:020000040000FA
:060000000A128A110C280F
:10000800FE00030EF1000A08F2000A168A151929E3
:100018000A128A110F280A128A11FE270A128A1157
:10002800F8000A128A11FF270A128A11F9008317A9
:1000380090308400C2300A168A1581200A128A116B
:100048008313D0308400E5300A168A1581200A12FD
:100058008A11ED01FA0183010A168A11B92883165B
:100068000313480883120313A300831603134708D6
:1000780083120313A2008316031346088312031383
:10008800A10083160313450883120313A000003050
:10009800A7000030A6000030A5000030A4000A1612
:1000A8008A15DC220A128A1103185B285C283E296B
:1000B80083160313480883120313DB008316031304
:1000C800470883120313DA008316031346088312C2
:1000D8000313D90083160313450883120313D800AA
:1000E8000A168A154D250A128A11831203135B0812
:1000F8005A0459045804031D822883283E2983166C
:1001080003134408803AFF0080307F02031D8E28C5
:1001180002304302031C912892283E2983160313B8
:10012800420883120313A3008316031341088312A2
:100138000313A20083160313400883120313A100BC
:10014800831603133F0883120313A0004030A7004F
:100158008930A6007030A5005F30A4000A168A1105
:1001680015200A128A110318BA28BB28C428F730A8
:1001780083160313C3070318C40AFF30C407CC2827
:10018800F83083160313C3070318C40AFF30C407E3
:1001980043080A128A159D240A128A11831203132E
:1001A800480883160313C2008312031347088316F3
:1001B8000313C10083120313460883160313C000F8
:1001C80083120313450883160313BF0048088312DC
:1001D8000313A30083160313470883120313A20013
:1001E80083160313460883120313A100831603130F
:1001F800450883120313A0008316031342088312D1
:100208000313A70083160313410883120313A600E0
:1002180083160313400883120313A50083160313E0
:100228003F0883120313A4000A168A1542270A12EC
:100238008A1183120313230883160313BA00831247
:100248000313220883160313B9008312031321082A
:1002580083160313B80083120313200883160313AD
:10026800B7000030C8000030C7000030C6000030BA
:10027800C500A42983160313480883120313DB005F
:1002880083160313470883120313DA008316031334
:10029800460883120313D9008316031345088312F3
:1002A8000313D8000A168A154D250A128A118312DB
:1002B80003135B0883160313BA00831203135A0847
:1002C80083160313B9008312031359088316031303
:1002D800B80083120313580883160313B7003A08AB
:1002E800F6003908F5003808F4003708F300003044
:1002F8000A168A15C9250A128A1176088316031365
:10030800A3007508A2007408A1007308A00048089B
:10031800A7004708A6004608A5004508A4000A1635
:100328008A152C230A128A11831603132308C8007E
:100338002208C7002108C6002008C500C301C4015F
:10034800CC01CC0A4C08AD0001300310AD0DFF3EC6
:10035800031DA92903102D0D693E84000A128A1570
:100368000A200A128A11AE000A128A150A200A12F5
:100378008A11AF000A128A150A200A128A11B000DF
:100388000A128A150A200A128A11B10031083A02A3
:10039800031DD82930083902031DD8292F0838022F
:1003A800031DD8292E0837020318DB29DC29DD298B
:1003B800E7290130AD002D08CC070A304C06031D93
:1003C800E629E729A6294C084A07AD004B08031877
:1003D8004B0AAE0043082D07AF0044080318440A2F
:1003E8002E07B0002F08BD023008031CBE03BE0252
:1003F8004A084B040319012A022A082AFF30BD07BC
:100408000318BE0AFF30BE0703303B05AD000030BD
:100418003C05AE002D082E040319132A142A292A94
:10042800FF30BD070318BE0AFF30BE07292A203057
:1004380083160313AD00490884002D088317800034
:100448000130AD002D08C907142A3E08803AFF0084
:1004580080307F02031D322A01303D020318352AFD
:10046800362A1B2A0330831603133B05AD000030E0
:100478003C05AE002D082E040319432A442AF62A07
:100488002D30AD00490884002D0883178000013005
:10049800AD002D08C907F62A4C08AD00013003103D
:1004A800AD0DFF3E031D532A03102D0D693E840038
:1004B8000A128A150A200A128A1183120313A0004D
:1004C8000A128A150A200A128A11A1000A128A152C
:1004D8000A200A128A11A2000A128A150A200A1290
:1004E8008A11A300831603133A0883120313A70083
:1004F80083160313390883120313A6008316031304
:10050800380883120313A5008316031337088312D0
:100518000313A4000A168A15E5240A128A11831205
:100528000313230883160313C2008312031322083C
:1005380083160313C10083120313210883160313C0
:10054800C00083120313200883160313BF00003072
:1005580083120313A3000030A2000030A1000A3068
:10056800A00083160313420883120313A7008316FF
:100578000313410883120313A600831603134008CC
:1005880083120313A500831603133F088312031372
:10059800A4000A168A157C230A128A1183120313EF
:1005A800230883160313C200831203132208831639
:1005B8000313C10083120313210883160313C00019
:1005C80083120313200883160313BF003F08303E2D
:1005D800AD00490884002D08831780000130AD0064
:1005E8002D08C9070130CC024C0A031DFC2AFD2A3C
:1005F800502A112B303083160313AD0049088400AC
:100608002D08831780000130AD002D08C907FF3081
:10061800C3070318C40AFF30C4074408803AFF0020
:1006280080307F02031D1A2B0130430203181D2B53
:100638001E2BFE2A831603134B08803AFF008030D6
:100648007F02031D292B09304A02031C2C2B2D2B5A
:10065800342B083083160313AD002D08CC003A2B39
:10066800831603134A08AD002D08CC004C08AD00D2
:10067800AE012D08CA022E08031CCB03CB024C087E
:100688000319472B482B532B2E30AD004908840003
:100698002D08831780000130AD002D08C9074C08CC
:1006A8000A128A159D240A128A1183120313480814
:1006B80083160313B5008312031347088316031325
:1006C800B40083120313460883160313B30083127E
:1006D8000313450883160313B20035088312031366
:1006E800B20083160313340883120313B100831670
:1006F8000313330883120313B0008316031332085D
:1007080083120313AF0083160313480883120313DD
:10071800AE0083160313470883120313AD00831634
:100728000313460883120313AC008316031345080A
:1007380083120313AB000A128A153C210A128A118C
:10074800831203132E08DB002D08DA002C08D900C9
:100758002B08D8000A168A154D250A128A11831209
:1007680003135B0883160313BA00831203135A0892
:1007780083160313B900831203135908831603134E
:10078800B80083120313580883160313B700CD2C3F
:100798004C08AD0001300310AD0DFF3E031DCF2BFB
:1007A80003102D0D693E84000A128A150A200A12C8
:1007B8008A1183120313A0000A128A150A200A124A
:1007C8008A11A1000A128A150A200A128A11A200A7
:1007D8000A128A150A200A128A11A3008316031323
:1007E8003A0883120313A7008316031339088312E8
:1007F8000313A60083160313380883120313A500F6
:1008080083160313370883120313A4000A168A15E4
:10081800E5240A128A11831203132308831603138B
:10082800C20083120313220883160313C100831224
:100838000313210883160313C0008312031320082F
:1008480083160313BF00003083120313A300003084
:10085800A2000030A1000A30A0008316031342084A
:1008680083120313A700831603134108831203138B
:10087800A60083160313400883120313A5008316EA
:1008880003133F0883120313A4000A168A157C2356
:100898000A128A1183120313230883160313C20052
:1008A80083120313220883160313C1008312031350
:1008B800210883160313C00083120313200883162C
:1008C8000313BF003F08303EAD00490884002D08DF
:1008D800831780000130AD002D08C9074C08AD0012
:1008E80001300310AD0DFF3E031D752C03102D0DB7
:1008F800693E84000A128A150A200A128A11831294
:100908000313A0000A128A150A200A128A11A100EC
:100918000A128A150A200A128A11A2000A128A15D6
:100928000A200A128A11A300831603133A088312B5
:100938000313A70083160313390883120313A600B1
:1009480083160313380883120313A50083160313B1
:10095800370883120313A4000A168A157C230A1287
:100968008A1183120313230883160313BA00831210
:100978000313220883160313B900831203132108F3
:1009880083160313B8008312031320088316031376
:10099800B7000130CC024C0A031DD32CD42CCC2B2D
:1009A800E62C3030AD00490884002D0883178000FC
:1009B8000130AD002D08C907FF30CA070318CB0A5C
:1009C800FF30CB074A084B04031DEB2CEC2CD52C2D
:1009D800B22D4A084B04031DF22CF32C012D3A08C2
:1009E800390438043704031DFA2CFB2C012D01307F
:1009F800CA070318CB0A0030CB074B08803A803C63
:100A0800031D082D4A084C0203180B2D0C2D132D1D
:100A1800831603134A08AD002D08CC002B2D83162E
:100A280003134B08803AAD0080302D02031D1E2DA4
:100A38004C084A020318212D222D2B2D831603134F
:100A48004C08AD00AE012D08CA002E08CB00831655
:100A580003133D083E040319322D332D452D033071
:100A68003B05AD0000303C05AE002D082E040319EF
:100A78003E2D3F2D452DFF30BD070318BE0AFF3020
:100A8800BE073C1F482D492D642D4B08803AAD0008
:100A98003E08803A2D02031D532D3D084A020318D3
:100AA800562D572D602D831603134A08BD024B0897
:100AB800031CBE03BE02642D83160313BD01BE01D1
:100AC8003E08803A803C031D6B2D3D084C020318FC
:100AD8006E2D6F2D7B2D831603134C08AD00AE01D0
:100AE8002D08BD022E08031CBE03BE027F2D8316EF
:100AF8000313BD01BE013D083E040319842D852D55
:100B08009C2D2030AD00490884002D0883178000F3
:100B18000130AD002D08C907FF30BD070318BE0A14
:100B2800FF30BE073D083E04031D9B2D9C2D852DDF
:100B380003303B05AD0000303C05AE002D082E0407
:100B48000319A72DA82DB22D2D30AD00490884001A
:100B58002D08831780000A168A11132D0130A80763
:100B6800FF30280784000A128A150A200A128A11FF
:100B7800AD002D08CC004C08031DC32DC62D0A1648
:100B88008A11062D49088400831780010800831202
:100B98000313D8006E305802031CD32DD42DE32E36
:100BA8003F30AE000030AD000030AC000030AB008C
:100BB8006430A1000030A2005808C900CA014908E1
:100BC800A3004A08A4000A168A154F220A128A119D
:100BD800831203132108CB0001300310CB0DFF3E15
:100BE800031DF12D03104B0D7D3E84000A128A155A
:100BF8000A200A128A11CC000A128A150A200A123F
:100C08008A11CD000A128A150A200A128A11CE000A
:100C18000A128A150A200A128A11CF004F08B20058
:100C28004E08B1004D08B0004C08AF000A128A15F2
:100C38003C210A128A11831203132E08D7002D08AB
:100C4800D6002C08D5002B08D4000A30A1000030AB
:100C5800A2005808C900CA014908F5004A08F60068
:100C68006430F3000030F4000A168A158B210A124A
:100C78008A11740883120313A4007308A3000A16C8
:100C88008A154F220A128A11831203132108CB00F6
:100C980001300310CB0DFF3E031D4D2E03104B0DED
:100CA800593E84000A128A150A200A128A11CC00B9
:100CB8000A128A150A200A128A11CD000A128A1508
:100CC8000A200A128A11CE000A128A150A200A126C
:100CD8008A11CF004F08AE004E08AD004D08AC0099
:100CE8004C08AB005708B2005608B1005508B000D0
:100CF8005408AF000A128A153C210A128A1183127D
:100D080003132E08D3002D08D2002C08D1002B087D
:100D1800D0000A30F3000030F4005808C900CA01B6
:100D28004908F5004A08F6000A168A158B210A12A6
:100D38008A11730883120313CB0001300310CB0D03
:100D4800FF3E031DA22E03104B0D353E84000A12F0
:100D58008A150A200A128A11CC000A128A150A205A
:100D68000A128A11CD000A128A150A200A128A115B
:100D7800CE000A128A150A200A128A11CF004F08DB
:100D8800AE004E08AD004D08AC004C08AB0053084F
:100D9800B2005208B1005108B0005008AF000A1262
:100DA8008A153C210A128A11831203132E08C800DF
:100DB8002D08C7002C08C6002B08C500D72F0B30FC
:100DC8005802031CE82EE92E942F3F30AE00003065
:100DD800AD000030AC000030AB000A30A10000309C
:100DE800A2005808C900CA014908A3004A08A4007B
:100DF8000A168A154F220A128A1183120313210830
:100E0800CB0001300310CB0DFF3E031D062F03104E
:100E18004B0D593E84000A128A150A200A128A11BB
:100E2800CC000A128A150A200A128A11CD000A1269
:100E38008A150A200A128A11CE000A128A150A2077
:100E48000A128A11CF004F08B2004E08B1004D08AF
:100E5800B0004C08AF000A128A153C210A128A1108
:100E6800831203132E08D7002D08D6002C08D500AE
:100E78002B08D4000A30F3000030F4005808C900E9
:100E8800CA014908F5004A08F6000A168A158B2196
:100E98000A128A11730883120313CB00013003105E
:100EA800CB0DFF3E031D532F03104B0D353E840021
:100EB8000A128A150A200A128A11CC000A128A1507
:100EC8000A200A128A11CD000A128A150A200A126B
:100ED8008A11CE000A128A150A200A128A11CF0036
:100EE8004F08AE004E08AD004D08AC004C08AB00F2
:100EF8005708B2005608B1005508B0005408AF00B2
:100F08000A128A153C210A128A11831203132E0829
:100F1800C8002D08C7002C08C6002B08C500D72F0D
:100F28003F30AE000030AD000030AC000030AB0008
:100F38005808C90001300310C90DFF3E031D9F2F3B
:100F48000310490D353E84000A128A150A200A1238
:100F58008A11CA000A128A150A200A128A11CB00BD
:100F68000A128A150A200A128A11CC000A128A1556
:100F78000A200A128A11CD004D08B2004C08B100AF
:100F88004B08B0004A08AF000A128A153C210A1221
:100F98008A11831203132E08C8002D08C7002C08D5
:100FA800C6002B08C500080083120313A100210303
:100FB800031DDF2FE02FEC2F77087F3EA0002008CD
:100FC800A20022080A168A15E4200A128A11FD2FA7
:100FD80002302106031DF12FF22FFD2F7708BF3EA7
:100FE800A0002008A20022080A168A15E4200A1286
:100FF8008A11080001340134FF1B0A2883137F1863
:1010080083170008840A0319FF0A080008308A00B9
:101018000408840A820700340034003480343F34E2
:10102800003400342034413400340034C8344234AD
:10103800003400347A344434003440341C344634A8
:1010480000345034C33447340034243474344934BD
:101058008034963418344B342034BC34BE344C3489
:1010680028346B346E344E34F93402341534503429
:10107800EC347834AD346034CA34F23449347134E1
:101088000034003480343F34CD34CC34CC343D3457
:101098000A34D73423343C346F34123483343A342A
:1010A8001734B734D1343834AC34C53427343734F2
:1010B800BD343734863435349534BF34D63433347C
:1010C8007734CC342B3432345F3470348934303450
:1010D800FF34E634DB342E340834E5343C341E3433
:1010E80060344234A2340D34013400340034003406
:1010F8000A340034003400346434003400340034DA
:10110800E834033400340034103427340034003415
:10111800A034863401340034403442340F3400346F
:1011280080349634983400340034E134F53405348E
:101138000034CA349A343B34533431343A3420348A
:1011480020342034533432343A3420342034203498
:101158002034533433343A340034253433342E3481
:101168003234663443340034253433342E34323444
:101178006634563400342534663400348316031339
:101188001812981618118316031787151930831625
:10119800031399008312031398178B1708008312FF
:1011A8000313A801A31FD928DA28E128A209A30953
:1011B800A20A0319A30AA801A80AA51FE428E5287A
:1011C800EE28A409A509A40A0319A50A0130A60056
:1011D8002608A806A901AA01220823040319F5284C
:1011E800F6282D29A701A70A042901300310A20D0A
:1011F800A30DFF3E031DFA280130A6002608A70705
:10120800A31F07290829F92801300310A90DAA0DE1
:10121800FF3E031D092923082502031D152922085D
:101228002402031C1829192920292208A4022308AA
:10123800031CA503A502291401300310A30CA20C5A
:10124800FF3E031D21290130A702031D2C292D294A
:10125800082928080319312932293729A909AA098F
:10126800A90A0319AA0A2A08A3002908A200080043
:10127800831203132E088039B3003308B8002E08F0
:10128800B3003307B4003408BE00AD1F4C294D2904
:101298004E293E143E0803195229532962293E0A51
:1012A800031D5729582960290030AE000030AD00D1
:1012B8000030AC000030AB00AD176A290030AE003A
:1012C8000030AD000030AC000030AB00320880398F
:1012D800B3003308B8063208B3003307B400340843
:1012E800BD00B11F782979297A293D143D080319D1
:1012F8007E297F298E293D0A031D832984298C296B
:101308000030B2000030B1000030B0000030AF0053
:10131800B11796290030B2000030B1000030B0009B
:101328000030AF003D0803199A299B29A0293E08DF
:10133800031D9F29A029A9290030AE000030AD0067
:101348000030AC000030AB009C2C2B08B3003308F5
:10135800F30031080A168A1537210A128A1574080B
:1013680083120313C4007308C3004308B300B40115
:10137800B501B6013608BC003508BB003408BA0010
:101388003308B9004408B300B401B501B601360802
:10139800C2003508C1003408C0003308BF002C085B
:1013A800B3003308F30030080A168A1537210A12E9
:1013B8008A15740883120313C4007308C300430812
:1013C800B300B401B501B6013308B90734080311F5
:1013D8000318013E0319F129BA0735080311031848
:1013E800013E0319F829BB07360803110318013E0B
:1013F8000319FF29BC074408B300B401B501B601BD
:101408003308BF07340803110318013E03190D2AD6
:10141800C007350803110318013E0319142AC10730
:10142800360803110318013E03191B2AC2072D08A9
:10143800B3003308F3002F080A168A1537210A1259
:101448008A15740883120313C4007308C300430881
:10145800B300B401B501B6013308B9073408031164
:101468000318013E0319392ABA073508031103186E
:10147800013E0319402ABB07360803110318013E31
:101488000319472ABC074408B300B401B501B601E3
:101498003308BF07340803110318013E0319552AFE
:1014A800C007350803110318013E03195C2AC10758
:1014B800360803110318013E0319632AC2070830CE
:1014C800B3000310B90DBA0DBB0DBC0DB30B652AE3
:1014D8002C08B3003308F3002F080A168A153721A1
:1014E8000A128A15740883120313C4007308C30010
:1014F8004308B3004408B400B501B6013308B9077E
:10150800340803110318013E03198B2ABA0735085A
:1015180003110318013E0319922ABB073608031169
:101528000318013E0319992ABC072B08B300330896
:10153800F30030080A168A1537210A128A1574082A
:1015480083120313C4007308C3004308B30044089C
:10155800B400B501B6013308B907340803110318FC
:10156800013E0319B82ABA07350803110318013ECA
:101578000319BF2ABB07360803110318013E0319D4
:10158800C62ABC070830B3000310B90DBA0DBB0D4D
:10159800BC0DB30BC82A2B08B3003308F3002F087F
:1015A8000A168A1537210A128A157408831203133A
:1015B800C4007308C3004308B3004408B400B5016D
:1015C800B6013308B907340803110318013E03199B
:1015D800EE2ABA07350803110318013E0319F52A44
:1015E800BB07360803110318013E0319FC2ABC0780
:1015F8002C08B3003308F30031080A168A1537217E
:101608000A128A15740883120313C4007308C300EE
:101618004308B3004408B400B501B6013308BF0756
:10162800340803110318013E03191B2BC0073508A2
:1016380003110318013E0319222BC10736080311B1
:101648000318013E0319292BC2072D08B3003308DC
:10165800F30030080A168A1537210A128A15740809
:1016680083120313C4007308C3004308B30044087B
:10167800B400B501B6013308BF07340803110318D5
:10168800013E0319482BC007350803110318013E12
:1016980003194F2BC107360803110318013E03191C
:1016A800562BC2072D08B3003308F30031080A1679
:1016B8008A1537210A128A15740883120313C40085
:1016C8007308C3004308B3004408B400B501B60169
:1016D80008300310B30DB40DB50DB60DFF3E031D54
:1016E8006D2B3308BF07340803110318013E031993
:1016F8007E2BC007350803110318013E0319852BFB
:10170800C107360803110318013E03198C2BC207C1
:101718003908B3003A08B4003B08B5003C08B600E5
:1017280018300310B60CB50CB40CB30CFF3E031DF7
:10173800952B3308BF07340803110318013E03191A
:10174800A62BC007350803110318013E0319AD2B5A
:10175800C107360803110318013E0319B42BC20749
:101768000830B3000310B90DBA0DBB0DBC0DB30B97
:10177800B62B3E083D07B300B401B40D3308823ED2
:10178800C30034080318013EFF3EC400E82B0130B3
:10179800B3000310BF0DC00DC10DC20DB30BCD2B8F
:1017A800BC1FD72BD82BD92B3F140130B300031003
:1017B800B90DBA0DBB0DBC0DB30BDB2BFF30C30746
:1017C8000318C40AFF30C407C11FEB2BEC2BCB2B2B
:1017D800BD01BC1FF02BF12B0D2CFF303905B300D8
:1017E800FF303A05B400FF303B05B5007F303C05BB
:1017F800B60036083504340433040319042C052CC8
:10180800082CBD01BD0A0D2C3F1C0B2C0C2C0D2CDB
:10181800052C3D080319112C122C432C0130BF074D
:10182800003003180130C007003003180130C10729
:10183800003003180130C207421C232C242C432CEF
:101848003F08B3004008B4004108B5004208B6009C
:101858000130B700360DB60CB50CB40CB30CB70B91
:101868002E2C3608C2003508C1003408C0003308E1
:10187800BF000130C3070318C40A0030C407440876
:10188800803AFF0080307F02031D4C2CFF3043025A
:10189800031C4F2C502C5B2C7F3083120313C20087
:1018A8008030C1000030C0000030BF00902C83128F
:1018B80003134408803AFF0080307F02031D662C22
:1018C800013043020318692C6A2C762C00308312ED
:1018D8000313C2000030C1000030C0000030BF0058
:1018E800B801902C831203134308B3003308BE00D9
:1018F800FF30BF05FF30C0057F30C1050030C2058D
:101908003E1C872C882C892CC1173E08B300031075
:10191800330CB4003408C2003808B3003308C204DA
:101928004208AE004108AD004008AC003F08AB00DB
:10193800080083120313D700D71FA32CA42C532EFF
:10194800D709D70A5708803A123E031CAC2CAD2C95
:10195800972D0A30A2000030A3005708F500F601C1
:10196800F51BF6036430F3000030F4000A168A15FC
:10197800D2230A128A15740883120313A500730868
:10198800A4000A128A15D3200A128A158312031397
:101998002208C90001300310C90DFF3E031DCF2CDA
:1019A8000310490D593E84000A128A150A200A12AA
:1019B8008A15CA000A128A150A200A128A15CB004B
:1019C8000A128A150A200A128A15CC000A128A15E8
:1019D8000A200A128A15CD004D08AE004C08AD0049
:1019E8004B08AC004A08AB006430A2000030A300EA
:1019F8005708A400A501A41BA5030A128A15D32021
:101A08000A128A15831203132208CE00013003102C
:101A1800CE0DFF3E031D0B2D03104E0D7D3E8400A1
:101A28000A128A150A200A128A15CF000A128A1584
:101A38000A200A128A15D0000A128A150A200A12E8
:101A48008A15D1000A128A150A200A128A15D200AC
:101A58005208B2005108B1005008B0004F08AF005A
:101A68000A128A153C210A128A15831203132E08BA
:101A7800D6002D08D5002C08D4002B08D3000A3036
:101A8800F3000030F4005708F500F601F51BF603E3
:101A98000A168A15D2230A128A15730883120313A9
:101AA800C90001300310C90DFF3E031D562D031058
:101AB800490D353E84000A128A150A200A128A1531
:101AC800CA000A128A150A200A128A15CB000A12BD
:101AD8008A150A200A128A15CC000A128A150A20C9
:101AE8000A128A15CD004D08AE004C08AD004B080F
:101AF800AC004A08AB005608B2005508B1005408BB
:101B0800B0005308AF000A128A153C210A128A1540
:101B1800831203132E08C8002D08C7002C08C6001E
:101B28002B08C500FF2F5708803A753E031C9D2DD2
:101B38009E2D262E0A30F3000030F4005708F500D9
:101B4800F601F51BF6030A168A15D2230A128A151E
:101B5800730883120313C90001300310C90DFF3E37
:101B6800031DB12D0310490D353E84000A128A1554
:101B78000A200A128A15CA000A128A150A200A12AD
:101B88008A15CB000A128A150A200A128A15CC0077
:101B98000A128A150A200A128A15CD004D08AE00CD
:101BA8004C08AD004B08AC004A08AB000A30A20054
:101BB8000030A3005708A400A501A41BA5030A121E
:101BC8008A15D3200A128A15831203132208CE001D
:101BD80001300310CE0DFF3E031DED2D03104E0DF9
:101BE800593E84000A128A150A200A128A15CF0063
:101BF8000A128A150A200A128A15D0000A128A15B2
:101C08000A200A128A15D1000A128A150A200A1215
:101C18008A15D2005208B2005108B1005008B0002D
:101C28004F08AF000A128A153C210A128A1583123E
:101C380003132E08C8002D08C7002C08C6002B085F
:101C4800C500FF2F5708C90001300310C90DFF3E1A
:101C5800031D292E0310490D353E84000A128A15EA
:101C68000A200A128A15CA000A128A150A200A12BC
:101C78008A15CB000A128A150A200A128A15CC0086
:101C88000A128A150A200A128A15CD004D08C800C2
:101C98004C08C7004B08C6004A08C500FF2F570864
:101CA800803A123E031C592E5A2E442F0A30A200A5
:101CB8000030A3005708F500F601F51BF603643061
:101CC800F3000030F4000A168A15D2230A128A1586
:101CD800740883120313A5007308A4000A128A1556
:101CE800D3200A128A15831203132208C90001306F
:101CF8000310C90DFF3E031D7C2E0310490D253E20
:101D080084000A128A150A200A128A15CA000A12C1
:101D18008A150A200A128A15CB000A128A150A2087
:101D28000A128A15CC000A128A150A200A128A1584
:101D3800CD004D08AE004C08AD004B08AC004A0879
:101D4800AB006430A2000030A3005708A400A5012E
:101D5800A41BA5030A128A15D3200A128A15831216
:101D680003132208CE0001300310CE0DFF3E031DE1
:101D7800B82E03104E0D493E84000A128A150A2017
:101D88000A128A15CF000A128A150A200A128A1521
:101D9800D0000A128A150A200A128A15D1000A12DE
:101DA8008A150A200A128A15D2005208B200510870
:101DB800B1005008B0004F08AF000A128A153C2144
:101DC8000A128A15831203132E08D6002D08D5008F
:101DD8002C08D4002B08D3000A30F3000030F4009C
:101DE8005708F500F601F51BF6030A168A15D223E3
:101DF8000A128A15730883120313C90001300310ED
:101E0800C90DFF3E031D032F0310490D013E840039
:101E18000A128A150A200A128A15CA000A128A1595
:101E28000A200A128A15CB000A128A150A200A12F9
:101E38008A15CC000A128A150A200A128A15CD00C2
:101E48004D08AE004C08AD004B08AC004A08AB008A
:101E58005608B2005508B1005408B0005308AF0046
:101E68000A128A153C210A128A15831203132E08B6
:101E7800C8002D08C7002C08C6002B08C500FF2F76
:101E88005708803A753E031C4A2F4B2FD32F0A3030
:101E9800F3000030F4005708F500F601F51BF603CF
:101EA8000A168A15D2230A128A1573088312031395
:101EB800C90001300310C90DFF3E031D5E2F03103A
:101EC800490D013E84000A128A150A200A128A1551
:101ED800CA000A128A150A200A128A15CB000A12A9
:101EE8008A150A200A128A15CC000A128A150A20B5
:101EF8000A128A15CD004D08AE004C08AD004B08FB
:101F0800AC004A08AB000A30A2000030A300570812
:101F1800A400A501A41BA5030A128A15D3200A123E
:101F28008A15831203132208CE0001300310CE0D48
:101F3800FF3E031D9A2F03104E0D253E84000A1202
:101F48008A150A200A128A15CF000A128A150A2051
:101F58000A128A15D0000A128A150A200A128A154E
:101F6800D1000A128A150A200A128A15D2005208CC
:101F7800B2005108B1005008B0004F08AF000A1273
:101F88008A153C210A128A15831203132E08C800E9
:101F98002D08C7002C08C6002B08C500FF2F5708BE
:101FA800C90001300310C90DFF3E031DD62F0310D1
:101FB800490D013E84000A128A150A200A128A1560
:101FC800CA000A128A150A200A128A15CB000A12B8
:101FD8008A150A200A128A15CC000A128A150A20C4
:101FE8000A128A15CD004D08C8004C08C7004B08D6
:081FF800C6004A08C5000800FC
:10200600F400F3013A30740203180A280B28132847
:1020160030307402031C102811281328F301F30A28
:10202600730C08000030831203132005F300003000
:102036002105F40080302205F5007F302305F600E7
:102046007608750474047304031D2A282B28332884
:102056000030A3000030A2000030A1000030A00034
:1020660000302405F30000302505F40080302605F5
:10207600F5007F302705F6007608750474047304AE
:10208600031D462847284F280030A7000030A60029
:102096000030A5000030A400A31F5228532877283B
:1020A6000030F3000030F4000030F5008030F60018
:1020B6002008F3022108031C210F62286328F4027A
:1020C6002208031C220F68286928F5022308031C2E
:1020D600230F6E286F28F6027608A3007508A20063
:1020E6007408A1007308A000A71F7A287B289F28E0
:1020F6000030F3000030F4000030F5008030F600C8
:102106002408F3022508031C250F8A288B28F402CD
:102116002608031C260F90289128F5022708031C81
:10212600270F96289728F6027608A7007508A600B6
:102136007408A5007308A4008030A3068030A706A3
:1021460027082302031DB12826082202031DB128F1
:1021560025082102031DB128240820020318B428EB
:10216600B528B7280310B828031408000A168A15DC
:10217600CB200A168A11F301F401F50120300A1664
:102186008A15B5200A168A110A128A15C2200A165D
:102196008A110A168A1592200A168A110A168A15B3
:1021A60095220A168A110A168A15A8200A168A1175
:1021B600F701F70A01300A128A11D8270A168A117E
:1021C6009130F6008030F7000A168A1509220A16A1
:1021D6008A11063083120313850002308316031317
:1021E600CF000430CE00B930CD00CD0BF828CE0B91
:1021F600F828CF0BF828FF288312031393010A1639
:102206008A1589200A168A1183160313CD004D08F4
:1022160083120313ED00033083160313CE009730A9
:10222600CD00CD0B1429CE0B1429073083120313CE
:102236008500033083160313CF000830CE007630B6
:10224600CD00CD0B2429CE0B2429CF0B2429000049
:102256000B3083160313CD004D08F70002300A1227
:102266008A11D8270A168A11831203136D080A16D3
:102276008A1589240A168A118312031348088316BD
:102286000313D30083120313470883160313D200E4
:1022960083120313460883160313D1008312031314
:1022A600450883160313D000A230CD004D08A800C0
:1022B6005308AC005208AB005108AA005008A90008
:1022C600A9300A168A11FC240A168A11A930F600CA
:1022D6000130F7000A168A1509220A168A110330F8
:1022E60083160313CF000830CE007630CD00CD0B19
:1022F6007A29CE0B7A29CF0B7A2900000530831272
:1023060003138500023083160313CF000430CE007A
:10231600B930CD00CD0B8D29CE0B8D29CF0B8D2954
:10232600942901308312031393000A168A15892013
:102336000A168A1183160313CD004D08E3001A30DE
:1023460083160313CE00F730CD00CD0BA829CE0B94
:10235600A829AD290730831203138500F701F70A70
:1023660002300A128A11D8270A168A118316031315
:1023760063080A168A152D240A168A118312031376
:10238600480883160313DF008312031347088316D6
:102396000313DE0083120313460883160313DD00BE
:1023A60083120313450883160313DC00A930CD00FE
:1023B6004D08A8005F08AC005E08AB005D08AA00E7
:1023C6005C08A900A9300A168A11FC240A168A118B
:1023D600A9300A168A15C7210A168A11A930F600ED
:1023E6000130F7000A168A1509220A168A110330E7
:1023F60083160313CF000830CE007630CD00CD0B08
:10240600022ACE0B022ACF0B022A000003308312C7
:1024160003138500023083160313CF000430CE0069
:10242600B930CD00CD0B152ACE0B152ACF0B152AA8
:102436001C2A02308312031393000A168A15892078
:102446000A168A1183160313CD004D08E4001A30CC
:1024560083160313CE00F730CD00CD0B302ACE0BFA
:10246600302A352A07308312031385000730831676
:102476000313CD004D08F70002300A128A11D8273F
:102486000A168A11B03083160313CD004D08A80032
:102496006408CE00CF014E08A9004F08AA0090306C
:1024A6000A168A11FC240A168A119030F6000130A9
:1024B600F7000A168A1509220A168A1102308316AF
:1024C6000313CF000430CE00B930CD00CD0B692AFE
:1024D600CE0B692ACF0B692A702ADB280A128A11C9
:1024E6000C28831203135C088039E1006108E900B7
:1024F6005C08E1006107E2006208EB00DB1F842A4A
:10250600852A862A6B146B0803198A2A8B2A9B2A2A
:102516006B0A031D8F2A902A982A0030DC000030AF
:10252600DB000030DA000030D900DB17DC01A32A1B
:102536000030DC000030DB000030DA000030D9006B
:1025460060088039E1006108EA006A086906031933
:10255600AD2AAE2AAF2A69176008E1006107E200DA
:102566006208EA00DF1FB82AB92ABA2A6A146A087A
:102576000319BE2ABF2ACF2A6A0A031DC32AC42A00
:10258600CC2A0030E0000030DF000030DE000030F2
:10259600DD00DF17E001D72A0030E0000030DF0061
:1025A6000030DE000030DD006B086A020318DC2A0A
:1025B600DD2A212B691FE02AE12AE52A8030E10085
:1025C6006108E9066B08E1006108EC006A08E100B1
:1025D6006108EB006C08E1006108EA005908E100B7
:1025E6006108EC005D08E1006108D9006C08E100B3
:1025F6006108DD005A08E1006108EC005E08E100B0
:102606006108DA006C08E1006108DE005B08E100A1
:102616006108EC005F08E1006108DB006C08E1007E
:102626006108DF005C08E1006108EC006008E10079
:102636006108DC006C08E1006108E000EC016A0852
:10264600E100E2016208E4006B086102E300031C9A
:10265600E4036408803AFF0080307F02031D352BB7
:102666001A306302031C382B392B762B8312031383
:102676005C085B045A045904031D422B442B0130A9
:10268600452B0030E1006108EC000030DC00003032
:10269600DB000030DA000030D9006A08E10061088A
:1026A600EB007E2B6C1C582B592B622B6C08E1001F
:1026B6000310610C0138E2006208EC00642B031081
:1026C600EC0C591C672B682B692BEC170130E100C9
:1026D6005C0DDC0CDB0CDA0CD90CE10B6B2B01303E
:1026E600E1006108EB07831203136A086B02031CFF
:1026F6007D2B7E2B552B691B812B822BCD2B6B08BB
:10270600031D862B872B902B0030DC000030DB006E
:102716000030DA000030D900FB2C5D08D9075E08CE
:1027260003110318013E0319992BDA075F080311F9
:102736000318013E0319A02BDB07600803110318D9
:10274600013E0319A72BDC075C1CAA2BAB2B812CA3
:102756006C1CAE2BAF2BB82B6C08E1000310610C80
:102766000138E2006208EC00BA2B0310EC0C591C8D
:10277600BD2BBE2BBF2BEC170130E1005C0DDC0C32
:10278600DB0CDA0CD90CE10BC12B0130E10061083E
:10279600EB07812C5C08803AFF006008803A7F02D4
:1027A600031DDF2B5F085B02031DDF2B5E085A0249
:1027B600031DDF2B5D0859020318E22BE32B3B2C8C
:1027C600FF30E100FF30E200FF30E300FF30E400BD
:1027D6005D08E5005E08E6005F08E7006008E800BF
:1027E6005908E5025A08031C5A0FFA2BFB2BE6027E
:1027F6005B08031C5B0F002C012CE7025C08031C22
:102806005C0F062C072CE8026508E107660803182A
:10281600660F0E2C0F2CE20767080318670F142C9F
:10282600152CE30768080318680AE4076408DC0047
:102836006308DB006208DA006108D9008030E10035
:102846006108E906EC09EC0A6C08031D2B2C2C2CFC
:10285600492C0130D907003003180130DA0700305F
:1028660003180130DB07003003180130DC07492C60
:102876005D08D9025E08031C5E0FDA025F08031CBE
:102886005F0FDB026008031C600FDC025C085B0460
:102896005A045904031D502C512C7D2C6C08031D21
:1028A600552C562C7D2C0030DC000030DB0000302F
:1028B600DA000030D900FB2C0130E1000310D90DFD
:1028C600DA0DDB0DDC0DE10B612CEC1F6B2C6C2C97
:1028D6006D2C59146C1C702C712C742C0314EC0D7B
:1028E600762C0310EC0D6B0803197A2C7B2C7D2CAF
:1028F6000130EB02DB1F802C812C5F2CEA01EC1FE0
:10290600852C862C942C6C087F3903198B2C8C2CE7
:102916008F2CEA01EA0A942C591C922C932C942CA5
:102926008C2C6A080319982C992CCD2C0130D907C8
:10293600003003180130DA07003003180130DB07D6
:10294600003003180130DC075C1CAA2CAB2CCD2C04
:102956005908E1005A08E2005B08E3005C08E4005D
:102966000130E500640DE40CE30CE20CE10CE50B30
:10297600B52C6408DC006308DB006208DA00610835
:10298600D9006B0A0319C82CC92CCD2C0130E100E3
:102996006108EB076B0A0319D12CD22CD72C6B08D4
:1029A600031DD62CD72CE52C0030DC000030DB00D4
:1029B6000030DA000030D9006B08031DE32CE42C4C
:1029C600E52CE9016B1CE82CE92CEB2CDB17EF2C32
:1029D6007F30E1006108DB056B08E1000310610C44
:1029E600E2006208DC00E91FF92CFA2CFB2CDC174C
:1029F600080083160313C900A930AD002D08B600E0
:102A06000A128A11B22D25304C0603190B2D0C2DF6
:102A1600182D4C08AD00490884002D088317800046
:102A26000130AD002D08C907032DBD01BE01BB0154
:102A3600BC01280884000A128A150A200A168A117F
:102A46000A168A1103200A168A11031C2B2D2C2D17
:102A56006C2D83160313BD01BE010A30F30000304E
:102A6600F400831603133E08F6003D08F5000A1627
:102A76008A1560210A168A11740883160313BE008C
:102A86007308BD00280884000A128A150A200A164F
:102A96008A11D03EAD00FF3003180030AE002D087D
:102AA600BD070318BE0A2E08BE070130AD002D086B
:102AB600A807280884000A128A150A200A168A110D
:102AC6000A168A1103200A168A1103186B2D6C2D1B
:102AD600302D83160313280884000A128A150A204B
:102AE6000A168A112E3A031D792D7A2DBF2D3C1711
:102AF6000130AD002D08A807CA01CB01AE2D0A3062
:102B0600F3000030F400831603134B08F6004A085E
:102B1600F5000A168A1560210A168A1174088316AA
:102B26000313CB007308CA00280884000A128A150A
:102B36000A200A168A11D03EAD00FF300318003075
:102B4600AE002D08CA070318CB0A2E08CB070130A2
:102B5600AD002D08A807280884000A128A150A2045
:102B66000A168A110A168A1103200A168A110318F0
:102B7600BD2DBE2D822DC52DCA01CB013C16C52DFE
:102B86003C15E12D013083160313A807FF302807F3
:102B960084000A128A150A200A168A11CC00AD0092
:102BA600AE012E08003A0319D92D032D2D08003A3F
:102BB6000319FD2F663A0319C32D032D00303B057B
:102BC600AD0007303C05AE002D082E040319EC2D90
:102BD600EF2D0A128A11ED2C3C1EF22DF32DF72D46
:102BE6000630CA000030CB00360884008313000884
:102BF600C500840A0008C600840A0008C700840AC3
:102C06000008C8000430AD002D08B6074808831236
:102C16000313A30083160313470883120313A200AA
:102C260083160313460883120313A10083160313A6
:102C3600450883120313A0000030A7000030A60049
:102C46000030A5000030A4000A168A1115200A16C5
:102C56008A1103182F2E302E4D2E83160313480883
:102C6600F6004708F5004608F4004508F3000A1682
:102C76008A159D200A168A11760883160313C80042
:102C86007508C7007408C6007308C5000330BB0486
:102C96000030BC0483160313C301C4014808831221
:102CA6000313A30083160313470883120313A2001A
:102CB60083160313460883120313A1008316031316
:102CC600450883120313A0000030A7000030A600B9
:102CD6000030A5000030A4000A168A15DC220A1668
:102CE6008A110318772E782E942F03108316031358
:102CF600470D480D823EC300FF3003180030C40064
:102D0600FF30C3070318C40AFF30C4070330F300BB
:102D16000030F4004408F6004308F5000A168A1548
:102D260060210A168A11740883160313C4007308F7
:102D3600C3000A3083120313A2000030A3008316D7
:102D46000313440883120313A500831603134308D1
:102D560083120313A4000A128A15D3200A168A11B5
:102D660083120313230883160313C4008312031369
:102D7600220883160313C300C41FC22EC32EC92EF6
:102D8600FF30C3070318C40AFF30C4074303FF3AE2
:102D96000A128A159D240A168A11831203134808FB
:102DA60083160313C2008312031347088316031303
:102DB600C10083120313460883160313C00083124F
:102DC6000313450883160313BF0048088312031331
:102DD600AE0083160313470883120313AD00831650
:102DE6000313460883120313AC0083160313450826
:102DF60083120313AB0083160313420883120313D3
:102E0600B20083160313410883120313B10083161D
:102E16000313400883120313B000831603133F08FD
:102E260083120313AF000A128A153C210A168A116F
:102E3600831203132E0883160313C200831203138F
:102E46002D0883160313C100831203132C0883165F
:102E56000313C000831203132B0883160313BF004A
:102E6600420883120313A300831603134108831237
:102E76000313A20083160313400883120313A10051
:102E8600831603133F0883120313A0003F30A700E5
:102E96008030A6000030A5000030A4000A168A1172
:102EA60015200A168A110318592F5A2F632FFF303F
:102EB60083160313C3070318C40AFF30C407942FED
:102EC60083160313420883120313A3008316031306
:102ED600410883120313A2008316031340088312CA
:102EE6000313A100831603133F0883120313A000E4
:102EF6004130A7002030A6000030A5000030A40015
:102F06000A168A1115200A168A11031C8B2F8C2F7C
:102F1600942F013083160313C3070318C40A003025
:102F2600C407831603134B08803AFF0080307F02E4
:102F3600031D9F2F0D304A020318A22FA32FEA2F3D
:102F4600831603134A080A128A11CB250A168A1118
:102F5600831203134808DC004708DB004608DA0042
:102F66004508D90083160313480883120313E000AB
:102F760083160313470883120313DF008316031314
:102F8600460883120313DE008316031345088312D3
:102F96000313DD000A168A1174220A168A11831297
:102FA60003135C0883160313C800831203135B081C
:102FB60083160313C700831203135A0883160313D9
:102FC600C60083120313590883160313C50083161C
:102FD60003134408803AFF0080307F02031DF52F5B
:102FE6000A3043020318FA2F0A128A1133280A12EA
:0A2FF6008A1192280A128A11C62DD2
:1030E800F300730883120313880008008316031380
:1030F800141C7F2880287A28080064008001840A2C
:10310800040603190034040682280A168A157A2050
:103118000A168A158312031313080800831203136F
:1031280018161811831603138C168312031398109C
:10313800080076087504740473040319A428A528E4
:10314800A7288030F606080000300A168A15E42001
:103158000A168A1501300A168A15E4200A168A15F5
:103168000800F600831603138712761DBC28BD28B5
:10317800C128750894008715C5287308750494003C
:1031880087117608740483120313940008008316C9
:103198000313880190308700890186018501033077
:1031A800831603178800831203130714871407155F
:1031B80007138713FF3085008801890186010800FD
:1031C800F60083120313091076080A168A1574206C
:1031D8000A168A158312031389140B30F50062301E
:1031E800F400F40BF528F50BF528000083120313FF
:1031F80089100800F50083120313091475080A16CC
:103208008A1574200A168A158312031389141A3032
:10321800F400F40B0D2900008312031389101A30EF
:10322800F400F40B152900000800831203138C1E08
:103238001E291F293029981C222923292A291812D6
:10324800C730F000F00B2629292930291A08F00088
:10325800700883160313E10072088A00710E830058
:10326800FE0E7E0E090083120313A400A001A10123
:103278007308F500F6017508A2007608A300241C5F
:10328800462947294D292208A0070318A10A23081F
:10329800A10701300310A20DA30DFF3E031D4E2907
:1032A8000310A40C2408031D5A295B29432921086B
:1032B800F4002008F300080083120313A001A10101
:1032C800731C672968297029750883120313A007DE
:1032D8000318A10A7608A10701300310F50DF60DB1
:1032E800FF3E031D712901300310F40CF30CFF3E5F
:1032F800031D782973087404031D8329842964290C
:10330800831203132108F4002008F300080073084F
:103318007404031990299129C22983120313A00167
:10332800A00AA12901300310F30DF40DFF3E031D7F
:1033380097290130F7007708A007F41FA429A529C9
:10334800962974087602031DAB2973087502031CBD
:10335800AE29AF29B5297308F5027408031CF603D2
:10336800F60201300310F40CF30CFF3E031DB629DE
:103378000130A002031DC129C229A5297608F4003D
:103388007508F3000800F300730884008317000829
:1033980083120313990083160313981CD429D52983
:1033A800CF29730A84008317000883120313990036
:1033B80083160313981CE129E229DC297308023ECD
:1033C80084008317000883120313990083160313DC
:1033D800981CEF29F029EA297308033E8400831713
:1033E800000883120313990083160313981CFD2900
:1033F800FE29F8292030831203139900831603133A
:10340800981C072A082A022A080083120313A3011A
:10341800A401322A23087607A1007708A000031820
:10342800A00AA31F182AA003831203132008A200CE
:103438002208FF00210884000A128A1500200A16B3
:103448008A150A168A15FE200A168A150130831273
:103458000313A3070318A40A0030A4072308760758
:10346800A1007708A0000318A00AA31F3C2AA00304
:10347800831203132008A2002208FF0021088400F9
:103488000A128A1500200A168A15003A031D4D2AC9
:103498004E2A0E2A080083120313A701A801210847
:1034A80022040319582A592A902AA601A60A672A2B
:1034B80001300310A10DA20DFF3E031D5D2A01304E
:1034C800A5002508A607A21F6A2A6B2A5C2A0130D4
:1034D8000310A70DA80DFF3E031D6C2A2208240225
:1034E800031D782A21082302031C7B2A7C2A832AAD
:1034F8002108A3022208031CA403A40227140130F4
:103508000310A20CA10CFF3E031D842A0130A60261
:10351800031D8F2A902A6B2A2808A2002708A100D9
:10352800080000300A168A1574200A168A153430E5
:1035380083120313A100F130A000A00BA12AA10B54
:10354800A12A3F300A168A15E4200A168A151A306D
:1035580083120313A100F730A000A00BB12AA10B1E
:10356800B12AB62A3F300A168A15E4200A168A15A7
:10357800843083120313A000A00BC02A00003F3040
:103588000A168A15E4200A168A1538300A168A158A
:10359800E4200A168A150C300A168A15E4200A1641
:1035A8008A1506300A168A15E4200A168A150800B4
:1035B8000030831203132005F30000302105F400C6
:1035C80080302205F5007F302305F6007608750463
:1035D80074047304031DF12AF22AFA2A0030A300A6
:1035E8000030A2000030A1000030A0000030240507
:1035F800F30000302505F40080302605F5007F3003
:103608002705F6007608750474047304031D0D2B52
:103618000E2B162B0030A7000030A6000030A500A6
:103628000030A40027082306031D242B26082206A1
:10363800031D242B25082106031D242B24082006FE
:103648000319272B282B2A2B03102B2B03140800D4
:10365800803083160313A306270883120313DC00A4
:1036680083160313260883120313DB008316031340
:10367800250883120313DA00831603132408831220
:103688000313D90083160313230883120313E000DE
:1036980083160313220883120313DF008316031310
:1036A800210883120313DE008316031320088312F4
:1036B8000313DD000A168A1174220A168A1583126A
:1036C80003135C0883160313A300831203135B0818
:1036D80083160313A200831203135A0883160313D5
:1036E800A10083120313590883160313A0000800CE
:1036F8008312031323082204210420040319852BB1
:10370800862BC92BF401F40A962B0130F300031021
:10371800A00DA10DA20DA30DF30B8B2B0130F3000F
:103728007308F407A31F992B9A2B892B23082702C8
:10373800031DA82B22082602031DA82B21082502F9
:10374800031DA82B20082402031CAB2BAC2BBA2B7F
:103758002008A4022108031C210FA5022208031C2B
:10376800220FA6022308031C230FA702013003100F
:10377800A30CA20CA10CA00CFF3E031DBB2B013017
:10378800F402031DC82BC92B9A2B2708A30026086F
:10379800A2002508A1002408A00008008312031332
:1037A800A101F61FD82BD92BE02BF509F609F50A4C
:1037B8000319F60AA101A10AF41FE32BE42BE92B54
:1037C800F309F409F30A0319F40A730874040319D2
:1037D800EE2BEF2B1E2CA001A00AFD2B01300310AD
:1037E800F30DF40DFF3E031DF32B0130F7007708AE
:1037F800A007F41F002C012CF22B74087602031D7D
:10380800072C73087502031C0A2C0B2C112C730847
:10381800F5027408031CF603F60201300310F40CD9
:10382800F30CFF3E031D122C0130A002031D1D2CBA
:103838001E2C012C21080319222C232C282CF509D5
:10384800F609F50A0319F60A7608F4007508F30074
:10385800080083120313CD003C30AE009F30AD004A
:10386800BE30AC007730AB004D08C900CA01CB01AF
:10387800CC014C08F6004B08F5004A08F40049084A
:10388800F30001300A168A15C9250A168A15760822
:1038980083120313B2007508B1007408B0007308EE
:1038A800AF000A128A153C210A168A1583120313DF
:1038B8002E0883160313D700831203132D088316CB
:1038C8000313D600831203132C0883160313D500A1
:1038D800831203132B0883160313D400570883128B
:1038E8000313C80083160313560883120313C70073
:1038F80083160313550883120313C6008316031394
:10390800540883120313C500080083120313CD0063
:103918003F30AE00F930AD009930AC009A30AB00C2
:103928004D08C900CA01CB01CC014C08F6004B0870
:10393800F5004A08F4004908F30001300A168A1510
:10394800C9250A168A15760883120313B20075086A
:10395800B1007408B0007308AF000A128A153C2140
:103968000A168A15831203132E0883160313DB0025
:10397800831203132D0883160313DA00831203132B
:103988002C0883160313D900831203132B088316FC
:103998000313D8005B0883120313C80083160313AC
:1039A8005A0883120313C700831603135908831296
:1039B8000313C60083160313580883120313C500A4
:1039C8000800003083120313AB000030AA00003057
:1039D800A9000030A80023082204210420040319A8
:1039E800F62CF72C442DAC01AC0A072D0130F3005E
:1039F8000310A00DA10DA20DA30DF30BFC2C01309B
:103A0800F3007308AC07A31F0A2D0B2DFA2C013005
:103A1800F3000310A80DA90DAA0DAB0DF30B0D2D86
:103A280023082702031D222D22082602031D222D0A
:103A380021082502031D222D20082402031C252D00
:103A4800262D352D2008A4022108031C210FA502CC
:103A58002208031C220FA6022308031C230FA70217
:103A6800281401300310A30CA20CA10CA00CFF3EDB
:103A7800031D362D0130AC02031D432D442D0B2DA3
:103A88002B08A3002A08A2002908A1002808A000E2
:103A980008000310831203135A0D5B0DDC005C0849
:103AA800E2006208031D592D5A2D632D0030DB00FA
:103AB8000030DA000030D9000030D800C82D58088E
:103AC800DC005908DD005A08DE005B08DF001F3003
:103AD8000310DF0CDE0CDD0CDC0CFF3E031D6C2D2F
:103AE8005C08E0006008E100DA17FF30D805FF3015
:103AF800D905FF30DA050030DB059630E202E21F17
:103B0800862D872DA12D6208803A973E03188D2DAA
:103B18008E2D8F2D5A2D01300310DB0CDA0CD90CA9
:103B2800D80CFF3E031D902D0130DC005C08E20735
:103B3800031D9F2DA02D8F2DB82D20306202031C50
:103B4800A62DA72DB32D5A2D0130DC000310D80D5A
:103B5800D90DDA0DDB0DDC0BAA2D0130E20262086B
:103B6800031DB72DB82DA82D61080319BC2DBD2D37
:103B7800C82DD809D909DA09DB09D80A0319D90ADD
:103B88000319DA0A0319DB0A080083120313A400D5
:103B980024080319D02DD12DE52DF61FD42DD52DB0
:103BA800E52D7309A6007409A7007509A800760910
:103BB800A900A60A0319A70A0319A80A0319A90A3A
:103BC800ED2D7608A9007508A8007408A7007308E9
:103BD800A6007608750474047304031DF42DF52DEE
:103BE800FE2D0030F6000030F5000030F400003003
:103BF800F300842E9630A0002008A500102E013076
:103C0800A0002008A50701300310A90CA80CA70CD8
:103C1800A60CFF3E031D082EFE302905031D152E98
:103C2800162E032E322E0130A0002008A5070130E1
:103C3800A607003003180130A70700300318013029
:103C4800A807003003180130A90701300310A90C98
:103C5800A80CA70CA60CFF3E031D2A2EFF30290531
:103C6800031D372E382E172E442E0130A5020130A1
:103C7800A0000310A60DA70DA80DA90DA00B3D2EA1
:103C8800A81B472E482E4E2E0230250203184D2E13
:103C98004E2E392E2518512E522E5A2EFF30A6059B
:103CA800FF30A7057F30A805FF30A9050310A50C34
:103CB8002508A000A101A201A30118300310A00D3E
:103CC800A10DA20DA30DFF3E031D622E2008A60420
:103CD8002108A7042208A8042308A9042408031912
:103CE800762E772E7C2EF61F7A2E7B2E7C2EA91709
:103CF8002908F6002808F5002708F4002608F3002C
:103D08000800831203132008F3002108F400220896
:103D1800F5000310740D750DF6007608AD002D083A
:103D2800031D972E982EA12E0030A3000030A2006C
:103D38000030A1000030A000412F2408F30025081E
:103D4800F4002608F5000310740D750DF6007608CA
:103D5800AC002C08031DB12EB22EB32E982EA1173D
:103D6800FF30A005FF30A1050030A205A517FF30E0
:103D7800A405FF30A5050030A6050030AB000030D3
:103D8800AA000030A9000030A8007F30AD029830AA
:103D98002C07F3007308AD021830F3007308AC0069
:103DA8000130F3000310A80DA90DAA0DAB0DF30BFC
:103DB800D62E26082202031DE72E25082102031D00
:103DC800E72E24082002031CEA2EEB2EF62E2408E8
:103DD800A0022508031C250FA1022608031C260A99
:103DE800A202281401300310A00DA10DA20DFF3E60
:103DF800031DF72E0130AC02031D032F042FD42E10
:103E0800AD1F072F082F222F2D08803A973E031841
:103E18000E2F0F2F102F982E01300310AB0CAA0C69
:103E2800A90CA80CFF3E031D112F0130F3007308E5
:103E3800AD07031D202F212F102F392F18302D02E9
:103E4800031C272F282F342F982E0130F30003103E
:103E5800A80DA90DAA0DAB0DF30B2B2F0130AD0248
:103E68002D08031D382F392F292F2B08A3002A08C6
:103E7800A2002908A1002808A00008000310831246
:103E88000313220D230DF3007308AD002D08031D45
:103E98004E2F4F2F582F0030A3000030A2000030C3
:103EA800A1000030A000FF2F0310260D270DF300FE
:103EB8007308AC002C08031D622F632F642F4F2F4B
:103EC800A217FF30A005FF30A105FF30A205003082
:103ED800A305A617FF30A405FF30A505FF30A605EA
:103EE8000030A7050030AB000030AA000030A90060
:103EF8000030A8007F30AD02A0302C07F300730813
:103F0800AD022030F3007308AC000130F300031059
:103F1800A80DA90DAA0DAB0DF30B8B2F27082302B3
:103F2800031DA02F26082202031DA02F2508210209
:103F3800031DA02F24082002031CA32FA42FB32F96
:103F48002408A0022508031C250FA1022608031C2B
:103F5800260FA2022708031C270FA30228140130EA
:103F6800F3000310A00DA10DA20DA30DF30BB52FA7
:103F78000130AC02031DC12FC22F892FAD1FC52FE1
:103F8800C62FE02F2D08803A9F3E0318CC2FCD2F47
:103F9800CE2F4F2F01300310AB0CAA0CA90CA80C84
:103FA800FF3E031DCF2F0130F3007308AD07031D3B
:103FB800DE2FDF2FCE2FF72F20302D02031CE52F09
:103FC800E62FF22F4F2F0130F3000310A80DA90D93
:103FD800AA0DAB0DF30BE92F0130AD022D08031D1F
:103FE800F62FF72FE72F2B08A3002A08A20029088D
:083FF800A1002808A000080048
:04400E00D520FF3F7B
:00000001FF
