:020000040000FA
:100000000A128A11DE2FFF1B0D2883137F18831716
:100010000008840A0319FF0A080000308A00040857
:10002000840A820700340034003480343F340034C2
:1000300000342034413400340034C83442340034B5
:1000400000347A344434003440341C3446340034B0
:100050005034C33447340034243474344934803445
:10006000963418344B342034BC34BE344C342834E9
:100070006B346E344E34F934023415345034EC346D
:100080007834AD346034CA34F234493471340034D5
:10009000003480343F34CD34CC34CC343D340A3455
:1000A000D73423343C346F34123483343A34173425
:1000B000B734D1343834AC34C53427343734BD3454
:1000C0003734863435349534BF34D63433347734CA
:1000D000CC342B3432345F34703489343034FF34D0
:1000E000E634DB342E340834E5343C341E346034DA
:1000F0004234A2340D3401340034003400340A3464
:100100000034003400346434003400340034E83403
:100110000334003400341034273400340034A03465
:10012000863401340034403442340F340034803497
:100130009634983400340034E134F5340534003416
:10014000CA349A343B34533431343A342034203472
:100150002034533432343A342034203420342034A0
:10016000533433343A340034253433342E34303479
:10017000663443340034253433342E343234663418
:100180005634003420342034203400345334313495
:100190003A340034533432343A340034253464343D
:0201A000003429
:1001A80001340134FB01FC01760877040319DD28CA
:1001B800DE281529FD01FD0AEC2801300310F60D93
:1001C800F70DFF3E031DE2280130FA007A08FD070B
:1001D800F71FEF28F028E12801300310FB0DFC0D74
:1001E800FF3E031DF12877087902031DFD287608D4
:1001F8007802031C0029012908297608F8027708E3
:10020800031CF903F9027B1401300310F70CF60CF8
:10021800FF3E031D09290130FD02031D142915297C
:10022800F0287C08F7007B08F60008000310720D20
:10023800730DF800780883120313A5002508031D21
:100248002629272930290030F3000030F200003039
:10025800F1000030F000D7290310760D770DF80073
:100268007808A4002408031D3A293B293C2927299A
:10027800F217FF30F005FF30F105FF30F2050030CE
:10028800F305F617FF30F405FF30F505FF30F605E6
:100298000030F7050030A3000030A2000030A100B4
:1002A8000030A0007F30A502A0302407F8007808AD
:1002B800A5022030F8007808A4000130F8000310E7
:1002C800A00DA10DA20DA30DF80B632977087302E9
:1002D800031D782976087202031D782975087102B2
:1002E800031D782974087002031C7B297C298B293B
:1002F8007408F0027508031C750FF1027608031CD8
:10030800760FF2027708031C770FF30220140130EE
:10031800F8000310F00DF10DF20DF30DF80B8D2917
:100328000130A402031D99299A296129A51F9D2935
:100338009E29B8292508803A9F3E0318A429A52993
:10034800A629272901300310A30CA20CA10CA00C8C
:10035800FF3E031DA7290130F8007808A507031DF3
:10036800B629B729A629CF2920302502031CBD2983
:10037800BE29CA2927290130F8000310A00DA10DB4
:10038800A20DA30DF80BC1290130A5022508031DF4
:10039800CE29CF29BF292308F3002208F20021081B
:1003A800F1002008F0000800831603134008F3004A
:1003B8003F08F2003E08F1003D08F0000030F70069
:1003C8000030F6000030F5000030F4000A168A15F7
:1003D80064220A128A110318F229F3299B2A831628
:1003E8000313400883120313D400831603133F0832
:1003F80083120313D300831603133E0883120313D7
:10040800D200831603133D0883120313D1000A1286
:100418008A1507200A128A118312031354085304F9
:1004280052045104031D192A1A2A9B2A83160313FE
:100438003C08803AFF0080307F02031D252A0230E5
:100448003B02031C282A292A9B2A831603133608F1
:10045800F3003508F2003408F1003308F0004030AA
:10046800F7008930F6007030F5005F30F4000A16A6
:100478008A1109200A128A110318432A442A4D2A8C
:10048800F73083160313BB070318BC0AFF30BC07F9
:10049800552AF83083160313BB070318BC0AFF302C
:1004A800BC073B080A128A1540210A128A118312D6
:1004B8000313410883160313B6008312031340087D
:1004C80083160313B500831203133F08831603131F
:1004D800B400831203133E0883160313B3004008C5
:1004E800F3003F08F2003E08F1003D08F00036082E
:1004F800F7003508F6003408F5003308F4000A124E
:100508008A111A210A128A11730883160313BA0072
:100518007208B9007108B8007008B7000030C00050
:100528000030BF000030BE000030BD001F2B831616
:100538000313400883120313D400831603133F08E0
:1005480083120313D300831603133E088312031385
:10055800D200831603133D0883120313D1000A1235
:100568008A1507200A128A11831203135408831666
:100578000313BA0083120313530883160313B90035
:1005880083120313520883160313B800831203134C
:10059800510883160313B7003A08F3003908F2002C
:1005A8003808F1003708F00000300A168A1553257C
:1005B8000A128A11730883120313E9007208E8000B
:1005C8007108E7007008E6008316031340088312D9
:1005D8000313ED00831603133F0883120313EC0083
:1005E800831603133E0883120313EB0083160313C9
:1005F8003D0883120313EA000A168A1537210A12E6
:100608008A1183120313690883160313C000831227
:100618000313680883160313BF00831203136708C4
:1006280083160313BE00831203136608831603138D
:10063800BD00BB01BC01C401C40A4408A5000130C7
:100648000310A50DFF3E031D242B0310250D693E45
:1006580084000A128A110D200A128A11A6000A12B1
:100668008A110D200A128A11A7000A128A110D2078
:100678000A128A11A8000A128A110D200A128A1178
:10068800A90029083A02031D532B28083902031D23
:10069800532B27083802031D532B2608370203184B
:1006A800562B572B582B622B0130A5002508C40761
:1006B8000A304406031D612B622B212B4408420794
:1006C800A50043080318430AA6003B082507A7000E
:1006D8003C0803183C0A2607A8002708B102280886
:1006E800031CB203B2024208430403197C2B7D2B7E
:1006F800832BFF30B1070318B20AFF30B20703306B
:100708002F05A50000303005A6002508260403198A
:100718008E2B8F2BA42BFF30B1070318B20AFF30A2
:10072800B207A42B203083160313A50041088400C8
:100738002508831780000130A5002508C1078F2BE5
:100748003208803AFF0080307F02031DAD2B013054
:1007580031020318B02BB12B962B033083160313E9
:100768002F05A50000303005A6002508260403192A
:10077800BE2BBF2B512C2D30A50041088400250825
:10078800831780000130A5002508C107512C4408B3
:10079800A50001300310A50DFF3E031DCE2B03104D
:1007A800250D693E84000A128A110D200A128A1149
:1007B800F0000A128A110D200A128A11F1000A1299
:1007C8008A110D200A128A11F2000A128A110D20CC
:1007D8000A128A11F3003A08F7003908F6003808B7
:1007E800F5003708F4000A168A1519240A128A1126
:1007F800730883160313B6007208B5007108B400B5
:100808007008B300003083120313A3000030A20065
:100818000030A1000A30A0008316031336088312A3
:100828000313A70083160313350883120313A600C6
:1008380083160313340883120313A50083160313C6
:10084800330883120313A4000A168A15B2220A1267
:100858008A1183120313230883160313B600831225
:100868000313220883160313B50083120313210808
:1008780083160313B400831203132008831603138B
:10088800B3003308303EA5004108840025088317CB
:1008980080000130A5002508C1070130C402440AC0
:1008A800031D572C582CCB2B6C2C3030831603137C
:1008B800A500410884002508831780000130A500A1
:1008C8002508C107FF30BB070318BC0AFF30BC0767
:1008D8003C08803AFF0080307F02031D752C0130F0
:1008E8003B020318782C792C592C831603134308E0
:1008F800803AFF0080307F02031D842C09304202B9
:10090800031C872C882C8F2C083083160313A50012
:100918002508C400952C831603134208A500250852
:10092800C4004408A500A6012508C2022608031C25
:10093800C303C30244080319A22CA32CAE2C2E30E7
:10094800A500410884002508831780000130A50010
:100958002508C10744080A128A1540210A128A117B
:1009680083120313410883160313AD008312031384
:10097800400883160313AC00831203133F08831641
:100988000313AB00831203133E0883160313AA0054
:100998002D0883120313AB00831603132C0883124C
:1009A8000313AA00831603132B0883120313A90049
:1009B800831603132A0883120313A800831603134C
:1009C800400883120313A700831603133F088312FA
:1009D8000313A600831603133E0883120313A5000E
:1009E800831603133D0883120313A4000A128A1501
:1009F8009F240A128A11831203132708D400260899
:100A0800D3002508D2002408D1000A128A1507202D
:100A18000A128A1183120313540883160313BA00A7
:100A280083120313530883160313B90083120313A5
:100A3800520883160313B800831203135108831650
:100A48000313B700082E4408A50001300310A50DB4
:100A5800FF3E031D2A2D0310250D693E84000A124E
:100A68008A110D200A128A11F0000A128A110D202B
:100A78000A128A11F1000A128A110D200A128A112B
:100A8800F2000A128A110D200A128A11F3003A089C
:100A9800F7003908F6003808F5003708F4000A1698
:100AA8008A1519240A128A11730883160313B600CB
:100AB8007208B5007108B4007008B30000308312E2
:100AC8000313A3000030A2000030A1000A30A000E8
:100AD80083160313360883120313A7008316031320
:100AE800350883120313A6008316031334088312F0
:100AF8000313A50083160313330883120313A400FA
:100B08000A168A15B2220A128A11831203132308BD
:100B180083160313B60083120313220883160313E4
:100B2800B50083120313210883160313B40083123C
:100B38000313200883160313B3003308303EA500BF
:100B4800410884002508831780000130A500250886
:100B5800C1074408A50001300310A50DFF3E031D81
:100B6800B02D0310250D693E84000A128A110D204C
:100B78000A128A1183120313A0000A128A110D2087
:100B88000A128A11A1000A128A110D200A128A116A
:100B9800A2000A128A110D200A128A11A3008316D4
:100BA80003133A0883120313A700831603133908A3
:100BB80083120313A6008316031338088312031342
:100BC800A50083160313370883120313A4000A161B
:100BD8008A15B2220A128A11831203132308831674
:100BE8000313BA0083120313220883160313B900F0
:100BF80083120313210883160313B8008312031307
:100C0800200883160313B7000130C402440A031DE9
:100C18000E2E0F2E272D212E3030A50041088400DE
:100C28002508831780000130A5002508C107FF307B
:100C3800C2070318C30AFF30C30742084304031D51
:100C4800262E272E102EC52F2E0884008313000869
:100C5800A500840A0008A6002508B7002608B800E1
:100C68000030B81BFF30B900BA000230A5002508D3
:100C7800AE07BA1F402E412E502E0330AF0400306D
:100C8800B004B709B809B909BA09B70A0319B80A03
:100C98000319B90A0319BA0A42084304031D552E59
:100CA800562E642E3A08390438043704031D5D2E85
:100CB8005E2E642E0130C2070318C30A0030C30732
:100CC800C401C40A4408A50001300310A50DFF3E65
:100CD800031D692E0310250D693E84000A128A112E
:100CE8000D200A128A11A6000A128A110D200A1272
:100CF8008A11A7000A128A110D200A128A11A80067
:100D08000A128A110D200A128A11A90029083A022A
:100D1800031D982E28083902031D982E270838022B
:100D2800031D982E2608370203189B2E9C2E9D2EF5
:100D3800A72E0130A5002508C4070A304406031D64
:100D4800A62EA72E662E4308803A803C031DAE2EA1
:100D5800420844020318B12EB22EB92E831603138B
:100D68004208A5002508C400D12E831603134308A2
:100D7800803AA50080302502031DC42E4408420293
:100D88000318C72EC82ED12E831603134408A500B6
:100D9800A6012508C2002608C300831603133108DC
:100DA80032040319D82ED92EEB2E03302F05A500B7
:100DB80000303005A600250826040319E42EE52E88
:100DC800EB2EFF30B1070318B20AFF30B207301F0D
:100DD800EE2EEF2E0A2F4308803AA5003208803AFB
:100DE8002502031DF92E310842020318FC2EFD2EA0
:100DF800062F831603134208B1024308031CB203EB
:100E0800B2020A2F83160313B101B2013208803AE5
:100E1800803C031D112F310844020318142F152F8D
:100E2800212F831603134408A500A6012508B10243
:100E38002608031CB203B202252F83160313B1013F
:100E4800B2013108320403192A2F2B2F422F2030E8
:100E5800A500410884002508831780000130A500FB
:100E68002508C107FF30B1070318B20AFF30B207DF
:100E780031083204031D412F422F2B2F03302F0539
:100E8800A50000303005A6002508260403194D2FBB
:100E98004E2FB72F2D30A500410884002508831751
:100EA80080000130A5002508C107B72F0030831244
:100EB8000313A3000030A2000030A1000A30A000F4
:100EC800831603134208A50001300310A50DFF3E49
:100ED800031D692F0310250D693E84000A128A112B
:100EE8000D200A128A11F0000A128A110D200A1226
:100EF8008A11F1000A128A110D200A128A11F200D1
:100F08000A128A110D200A128A11F3003A08F70012
:100F18003908F6003808F5003708F4000A168A156B
:100F280019240A128A11730883120313A70072087E
:100F3800A6007108A5007008A4000A168A15B22236
:100F48000A128A11831203132008303E83160313F2
:100F5800A6002608C4004408A50041088400250806
:100F680083178000552FFF30C2070318C30AFF30CC
:100F7800C307420A031DC42F430A031DC42FC52FEC
:100F88005A2F0130A007FF30200784000A128A1167
:100F98000D200A128A11A5002508C4004408031D63
:100FA800D62FD92F0A168A11482D41088400831795
:100FB800800108000A128A11D4200A128A11EE0050
:100FC8000A128A11D5200A128A11EF00831790306D
:100FD8008400CC300A168A1561200A128A118313FC
:100FE800C8308400DD300A168A1561200A128A1179
:100FF80083010A168A150D2E83160313141C05285F
:10100800062800280800031083120313530D540DFB
:10101800D5005508DB005B08031D132814281D287C
:101028000030D4000030D3000030D2000030D100AE
:1010380082285108D5005208D6005308D700540812
:10104800D8001F300310D80CD70CD60CD50CFF3E97
:10105800031D26285508D9005908DA00D317FF3090
:10106800D105FF30D205FF30D3050030D4059630C6
:10107800DB02DB1F402841285B285B08803A973E4B
:101088000318472848284928142801300310D40C8D
:10109800D30CD20CD10CFF3E031D4A280130D500D9
:1010A8005508DB07031D59285A284928722820307B
:1010B8005B02031C602861286D2814280130D500C4
:1010C8000310D10DD20DD30DD40DD50B64280130EA
:1010D800DB025B08031D7128722862285A0803196D
:1010E800762877288228D109D209D309D409D10AC8
:1010F8000319D20A0319D30A0319D40A080070087D
:10110800F8007108F9007208FA000310790D7A0DD9
:10111800FB007B0883120313A5002508031D9528EF
:1011280096289F280030F3000030F2000030F100CC
:101138000030F0003F297408F8007508F9007608B7
:10114800FA000310790D7A0DFB007B08A40024082F
:10115800031DAF28B028B1289628F117FF30F005F5
:10116800FF30F1050030F205F517FF30F405FF30C8
:10117800F5050030F6050030A3000030A20000306D
:10118800A1000030A0007F30A50298302407F800A5
:101198007808A5021830F8007808A4000130F80093
:1011A8000310A00DA10DA20DA30DF80BD4287608ED
:1011B8007202031DE52875087102031DE5287408ED
:1011C8007002031CE828E928F4287408F00275085E
:1011D800031C750FF1027608031C760AF20220142C
:1011E80001300310F00DF10DF20DFF3E031DF5283F
:1011F8000130A402031D01290229D228A51F0529AF
:10120800062920292508803A973E03180C290D291C
:101218000E29962801300310A30CA20CA10CA00CD7
:10122800FF3E031D0F290130F8007808A507031DAC
:101238001E291F290E29372918302502031C2529A4
:101248002629322996280130F8000310A00DA10D97
:10125800A20DA30DF80B29290130A5022508031DAD
:101268003629372927292308F3002208F200210804
:10127800F1002008F000080083120313D000D01FEB
:1012880046294729F42AD009D00A5008803A123E44
:10129800031C4F295029382A0A30F7000030F8007B
:1012A8005008F200F301F21BF3036430F000003041
:1012B800F1000A168A1508230A128A157108FA001D
:1012C8007008F9000A168A157F240A128A15770809
:1012D80083120313C20001300310C20DFF3E031D29
:1012E80070290310420D593E84000A128A110D20FC
:1012F8000A128A15C3000A128A110D200A128A15C9
:10130800C4000A128A110D200A128A15C5000A1291
:101318008A110D200A128A15C6004608A70045083A
:10132800A6004408A5004308A4006430F700003074
:10133800F8005008F900FA01F91BFA030A168A1591
:101348007F240A128A15770883120313C700013015
:101358000310C70DFF3E031DAC290310470D7D3E4A
:1013680084000A128A110D200A128A15C8000A126E
:101378008A110D200A128A15C9000A128A110D2035
:101388000A128A15CA000A128A110D200A128A1531
:10139800CB004B08AB004A08AA004908A900480836
:1013A800A8000A128A159F240A128A1583120313A9
:1013B8002708CF002608CE002508CD002408CC0039
:1013C8000A30F0000030F1005008F200F301F21B7F
:1013D800F3030A168A1508230A128A15700883125D
:1013E8000313C20001300310C20DFF3E031DF7298D
:1013F8000310420D353E84000A128A110D200A128C
:101408008A15C3000A128A110D200A128A15C4000F
:101418000A128A110D200A128A15C5000A128A11A9
:101428000D200A128A15C6004608A7004508A6001E
:101438004408A5004308A4004F08AB004E08AA00C2
:101448004D08A9004C08A8000A128A159F240A1200
:101458008A15831203132708C1002608C00025082F
:10146800BF002408BE009E2C5008803A753E031C1D
:101478003E2A3F2AC72A0A30F0000030F1005008FF
:10148800F200F301F21BF3030A168A1508230A1265
:101498008A15700883120313C20001300310C20DAD
:1014A800FF3E031D522A0310420D353E84000A12E6
:1014B8008A110D200A128A15C3000A128A110D20FA
:1014C8000A128A15C4000A128A110D200A128A15F6
:1014D800C5000A128A110D200A128A15C60046088C
:1014E800A7004508A6004408A5004308A4000A3040
:1014F800F7000030F8005008F900FA01F91BFA0368
:101508000A168A157F240A128A157708831203138C
:10151800C70001300310C70DFF3E031D8E2A0310BC
:10152800470D593E84000A128A110D200A128A15A5
:10153800C8000A128A110D200A128A15C9000A1257
:101548008A110D200A128A15CA000A128A110D2062
:101558000A128A15CB004B08AB004A08AA004908B2
:10156800A9004808A8000A128A159F240A128A1599
:10157800831203132708C1002608C0002508BF00EE
:101588002408BE009E2C5008C20001300310C20D72
:10159800FF3E031DCA2A0310420D353E84000A127D
:1015A8008A110D200A128A15C3000A128A110D2009
:1015B8000A128A15C4000A128A110D200A128A1505
:1015C800C5000A128A110D200A128A15C60046089B
:1015D800C1004508C0004408BF004308BE009E2C57
:1015E8005008803A123E031CFA2AFB2AE32B0A30E1
:1015F800F7000030F8005008F200F301F21BF30383
:101608006430F0000030F1000A168A1508230A1227
:101618008A157108FA007008F9000A168A157F24DD
:101628000A128A15770883120313C20001300310C7
:10163800C20DFF3E031D1B2B0310420D253E8400E7
:101648000A128A110D200A128A15C3000A128A1179
:101658000D200A128A15C4000A128A110D200A12D6
:101668008A15C5000A128A110D200A128A15C600A9
:101678004608A7004508A6004408A5004308A4009A
:101688006430F7000030F8005008F900FA01F91B3F
:10169800FA030A168A157F240A128A157708831214
:1016A8000313C70001300310C70DFF3E031D572B5E
:1016B8000310470D493E84000A128A110D200A12B0
:1016C8008A15C8000A128A110D200A128A15C90043
:1016D8000A128A110D200A128A15CA000A128A11E2
:1016E8000D200A128A15CB004B08AB004A08AA0045
:1016F8004908A9004808A8000A128A159F240A1256
:101708008A15831203132708CF002608CE00250860
:10171800CD002408CC000A30F0000030F100500859
:10172800F200F301F21BF3030A168A1508230A12C2
:101738008A15700883120313C20001300310C20D0A
:10174800FF3E031DA22B0310420D013E84000A1226
:101758008A110D200A128A15C3000A128A110D2057
:101768000A128A15C4000A128A110D200A128A1553
:10177800C5000A128A110D200A128A15C6004608E9
:10178800A7004508A6004408A5004308A4004F0880
:10179800AB004E08AA004D08A9004C08A8000A1280
:1017A8008A159F240A128A15831203132708C10079
:1017B8002608C0002508BF002408BE009E2C50083B
:1017C800803A753E031CE92BEA2B722C0A30F00094
:1017D8000030F1005008F200F301F21BF3030A167F
:1017E8008A1508230A128A15700883120313C20087
:1017F80001300310C20DFF3E031DFD2B0310420DE7
:10180800013E84000A128A110D200A128A15C300AB
:101818000A128A110D200A128A15C4000A128A11A6
:101828000D200A128A15C5000A128A110D200A1203
:101838008A15C6004608A7004508A6004408A50062
:101848004308A4000A30F7000030F8005008F900F7
:10185800FA01F91BFA030A168A157F240A128A1557
:10186800770883120313C70001300310C70DFF3E2A
:10187800031D392C0310470D253E84000A128A11D6
:101888000D200A128A15C8000A128A110D200A12A0
:101898008A15C9000A128A110D200A128A15CA006F
:1018A8000A128A110D200A128A15CB004B08AB00C8
:1018B8004A08AA004908A9004808A8000A128A1577
:1018C8009F240A128A15831203132708C1002608C9
:1018D800C0002508BF002408BE009E2C5008C20086
:1018E80001300310C20DFF3E031D752C0310420D7D
:1018F800013E84000A128A110D200A128A15C300BB
:101908000A128A110D200A128A15C4000A128A11B5
:101918000D200A128A15C5000A128A110D200A1212
:101928008A15C6004608C1004508C0004408BF0023
:101938004308BE0008008312031327088039AC004F
:101948002C08B1002708AC002C07AD002D08B70003
:10195800A61FAF2CB02CB12C371437080319B52C9F
:10196800B62CC52C370A031DBA2CBB2CC32C00304F
:10197800A7000030A6000030A5000030A400A6177C
:10198800CD2C0030A7000030A6000030A5000030A4
:10199800A4002B088039AC002C08B1062B08AC0039
:1019A8002C07AD002D08B600AA1FDB2CDC2CDD2C83
:1019B800361436080319E12CE22CF12C360A031DE3
:1019C800E62CE72CEF2C0030AB000030AA000030EA
:1019D800A9000030A800AA17F92C0030AB0000308D
:1019E800AA000030A9000030A80036080319FD2C11
:1019F800FE2C032D3708031D022D032D0C2D00305E
:101A0800A7000030A6000030A5000030A400FF2F7A
:101A18002408AC002C08F0002A080A168A15802130
:101A28000A128A15710883120313BD007008BC00DE
:101A38003C08AC00AD01AE01AF012F08B5002E087F
:101A4800B4002D08B3002C08B2003D08AC00AD016D
:101A5800AE01AF012F08BB002E08BA002D08B9004F
:101A68002C08B8002508AC002C08F00029080A1634
:101A78008A1580210A128A15710883120313BD0082
:101A88007008BC003C08AC00AD01AE01AF012C08E9
:101A9800B2072D0803110318013E0319542DB3078B
:101AA8002E0803110318013E03195B2DB4072F08F4
:101AB80003110318013E0319622DB5073D08AC0058
:101AC800AD01AE01AF012C08B8072D0803110318AA
:101AD800013E0319702DB9072E0803110318013EA2
:101AE8000319772DBA072F0803110318013E0319AC
:101AF8007E2DBB072608AC002C08F00028080A1623
:101B08008A1580210A128A15710883120313BD00F1
:101B18007008BC003C08AC00AD01AE01AF012C0858
:101B2800B2072D0803110318013E03199C2DB307B2
:101B38002E0803110318013E0319A32DB4072F081B
:101B480003110318013E0319AA2DB5073D08AC007F
:101B5800AD01AE01AF012C08B8072D080311031819
:101B6800013E0319B82DB9072E0803110318013EC9
:101B78000319BF2DBA072F0803110318013E0319D3
:101B8800C62DBB070830AC000310B20DB30DB40D61
:101B9800B50DAC0BC82D2508AC002C08F0002808A2
:101BA8000A168A1580210A128A15710883120313EE
:101BB800BD007008BC003C08AC003D08AD00AE019B
:101BC800AF012C08B2072D0803110318013E0319B1
:101BD800EE2DB3072E0803110318013E0319F52D46
:101BE800B4072F0803110318013E0319FC2DB5078C
:101BF8002408AC002C08F00029080A168A15802150
:101C08000A128A15710883120313BD007008BC00FC
:101C18003C08AC003D08AD00AE01AF012C08B2078E
:101C28002D0803110318013E03191B2EB3072E08B4
:101C380003110318013E0319222EB4072F080311BC
:101C48000318013E0319292EB5070830AC0003100C
:101C5800B20DB30DB40DB50DAC0B2B2E2408AC0092
:101C68002C08F00028080A168A1580210A128A15FD
:101C7800710883120313BD007008BC003C08AC0057
:101C88003D08AD00AE01AF012C08B2072D080311C5
:101C98000318013E0319512EB3072E080311031828
:101CA800013E0319582EB4072F0803110318013EEB
:101CB80003195F2EB5072508AC002C08F0002A0888
:101CC8000A168A1580210A128A15710883120313CD
:101CD800BD007008BC003C08AC003D08AD00AE017A
:101CE800AF012C08B8072D0803110318013E03198A
:101CF8007E2EB9072E0803110318013E0319852EFD
:101D0800BA072F0803110318013E03198C2EBB07CD
:101D18002608AC002C08F00029080A168A1580212C
:101D28000A128A15710883120313BD007008BC00DB
:101D38003C08AC003D08AD00AE01AF012C08B80767
:101D48002D0803110318013E0319AB2EB9072E08FD
:101D580003110318013E0319B22EBA072F08031105
:101D68000318013E0319B92EBB072608AC002C083E
:101D7800F0002A080A168A1580210A128A157108A5
:101D880083120313BD007008BC003C08AC003D087A
:101D9800AD00AE01AF0108300310AC0DAD0DAE0DB6
:101DA800AF0DFF3E031DD02E2C08B8072D080311D8
:101DB8000318013E0319E12EB9072E080311031871
:101DC800013E0319E82EBA072F0803110318013E34
:101DD8000319EF2EBB073208AC003308AD003408F6
:101DE800AE003508AF0018300310AF0CAE0CAD0CC8
:101DF800AC0CFF3E031DF82E2C08B8072D08031164
:101E08000318013E0319092FB9072E0803110318F7
:101E1800013E0319102FBA072F0803110318013EBA
:101E28000319172FBB070830AC000310B20DB30D10
:101E3800B40DB50DAC0B192F37083607AC00AD0142
:101E4800AD0D2C08823EBC002D080318013EFF3E54
:101E5800BD004B2F0130AC000310B80DB90DBA0D01
:101E6800BB0DAC0B302FB51F3A2F3B2F3C2F38142E
:101E78000130AC000310B20DB30DB40DB50DAC0BB1
:101E88003E2FFF30BC070318BD0AFF30BD07BA1F3D
:101E98004E2F4F2F2E2FB601B51F532F542F702FB3
:101EA800FF303205AC00FF303305AD00FF3034059C
:101EB800AE007F303505AF002F082E042D042C040A
:101EC8000319672F682F6B2FB601B60A702F381CBD
:101ED8006E2F6F2F702F682F36080319742F752FE8
:101EE800A62F0130B807003003180130B9070030B9
:101EF80003180130BA07003003180130BB073B1C38
:101F0800862F872FA62F3808AC003908AD003A086D
:101F1800AE003B08AF000130B0002F0DAF0CAE0C87
:101F2800AD0CAC0CB00B912F2F08BB002E08BA00DB
:101F38002D08B9002C08B8000130BC070318BD0AE9
:101F48000030BD073D08803AFF0080307F02031D46
:101F5800AF2FFF303C02031CB22FB32FBE2F7F30B0
:101F680083120313BB008030BA000030B900003080
:101F7800B800F32F831203133D08803AFF00803026
:101F88007F02031DC92F01303C020318CC2FCD2F2F
:101F9800D92F003083120313BB000030BA00003081
:101FA800B9000030B800B101F32F831203133C08C5
:101FB800AC002C08B700FF30B805FF30B9057F30FA
:101FC800BA050030BB05371CEA2FEB2FEC2FBA17E8
:101FD8003708AC0003102C0CAD002D08BB003108ED
:101FE800AC002C08BB043B08A7003A08A600390837
:101FF800A5003808A40008000A128A1500200A164D
:102008008A11831203131308080000307005F800C2
:1020180000307105F90080307205FA007F307305D1
:10202800FB007B087A0479047804031D1C281D280A
:1020380025280030F3000030F2000030F1000030B5
:10204800F00000307405F80000307505F9008030A4
:102058007605FA007F307705FB007B087A0479045F
:102068007804031D3828392841280030F70000304B
:10207800F6000030F5000030F400F31F442845282E
:1020880069280030F8000030F9000030FA0080308C
:10209800FB007008F8027108031C710F54285528BA
:1020A800F9027208031C720F5A285B28FA02730897
:1020B800031C730F60286128FB027B08F3007A0871
:1020C800F2007908F1007808F000F71F6C286D28F5
:1020D80091280030F8000030F9000030FA00803014
:1020E800FB007408F8027508031C750F7C287D280E
:1020F800F9027608031C760F82288328FA027708EB
:10210800031C770F88288928FB027B08F7007A08C8
:10211800F6007908F5007808F4008030F30680307E
:10212800F70677087302031DA32876087202031DB9
:10213800A32875087102031DA328740870020318E8
:10214800A628A728A9280310AA2803140800831280
:102158000313D1006E305102031CB328B428C129DF
:102168003F30A7000030A6000030A5000030A400D2
:102178006430F6000030F7005108C200C30142087D
:10218800F8004308F9000A128A11D6200A168A11A3
:10219800760883120313C40001300310C40DFF3EF8
:1021A800031DD1280310440D7D3E84000A128A11B4
:1021B8000D200A168A11C5000A128A110D200A1666
:1021C8008A11C6000A128A110D200A168A11C70040
:1021D8000A128A110D200A168A11C8004808AB0095
:1021E8004708AA004608A9004508A8000A128A1547
:1021F8009F240A168A11831203132708D000260881
:10220800CF002508CE002408CD000A30F6000030A3
:10221800F7005108C200C3014208F2004308F30066
:102228006430F0000030F1000A168A15A7210A165A
:102238008A117108F9007008F8000A128A11D6206C
:102248000A168A11760883120313C400013003109A
:10225800C40DFF3E031D2B290310440D593E840075
:102268000A128A110D200A168A11C5000A128A114B
:102278000D200A168A11C6000A128A110D200A16A4
:102288008A11C7000A128A110D200A168A11C8007D
:102298004808A7004708A6004608A5004508A40066
:1022A8005008AB004F08AA004E08A9004D08A80026
:1022B8000A128A159F240A168A1183120313270803
:1022C800CC002608CB002508CA002408C9000A301B
:1022D800F0000030F1005108C200C3014208F200CA
:1022E8004308F3000A168A15A7210A168A117008EE
:1022F80083120313C40001300310C40DFF3E031DF5
:1023080080290310440D353E84000A128A110D20DD
:102318000A168A11C5000A128A110D200A168A1196
:10232800C6000A128A110D200A168A11C7000A125D
:102338008A110D200A168A11C8004808A700470804
:10234800A6004608A5004508A4004C08AB004B08A9
:10235800AA004A08A9004908A8000A128A159F2459
:102368000A168A11831203132708C1002608C00021
:102378002508BF002408BE00B52A0B305102031CF3
:10238800C629C729722A3F30A7000030A6000030AE
:10239800A5000030A4000A30F6000030F70051080C
:1023A800C200C3014208F8004308F9000A128A1162
:1023B800D6200A168A11760883120313C400013046
:1023C8000310C40DFF3E031DE4290310440D593EBC
:1023D80084000A128A110D200A168A11C5000A12F1
:1023E8008A110D200A168A11C6000A128A110D20B8
:1023F8000A168A11C7000A128A110D200A168A11B4
:10240800C8004808AB004708AA004608A9004508C4
:10241800A8000A128A159F240A168A118312031328
:102428002708D0002608CF002508CE002408CD00B4
:102438000A30F0000030F1005108C200C301420820
:10244800F2004308F3000A168A15A7210A168A1112
:10245800700883120313C40001300310C40DFF3E3B
:10246800031D312A0310440D353E84000A128A11D7
:102478000D200A168A11C5000A128A110D200A16A3
:102488008A11C6000A128A110D200A168A11C7007D
:102498000A128A110D200A168A11C8004808A700D6
:1024A8004708A6004608A5004508A4005008AB0048
:1024B8004F08AA004E08A9004D08A8000A128A155C
:1024C8009F240A168A11831203132708C1002608BD
:1024D800C0002508BF002408BE00B52A3F30A70069
:1024E8000030A6000030A5000030A4005108C2004A
:1024F80001300310C20DFF3E031D7D2A0310420D5B
:10250800353E84000A128A110D200A168A11C3006A
:102518000A128A110D200A168A11C4000A128A1199
:102528000D200A168A11C5000A128A110D200A16F2
:102538008A11C6004608AB004508AA004408A9004D
:102548004308A8000A128A159F240A168A118312C2
:1025580003132708C1002608C0002508BF00240867
:10256800BE0008008312031355088039DA005A08A0
:10257800E2005508DA005A07DB005B08E400D41FC4
:10258800C62AC72AC82A641464080319CC2ACD2A83
:10259800DD2A640A031DD12AD22ADA2A0030D5009E
:1025A8000030D4000030D3000030D200D417D50159
:1025B800E52A0030D5000030D4000030D3000030C8
:1025C800D20059088039DA005A08E3006308620625
:1025D8000319EF2AF02AF12A62175908DA005A0774
:1025E800DB005B08E300D81FFA2AFB2AFC2A6314E5
:1025F80063080319002B012B112B630A031D052BFC
:10260800062B0E2B0030D9000030D8000030D70040
:102618000030D600D817D901192B0030D900003066
:10262800D8000030D7000030D600640863020318D1
:102638001E2B1F2B632B621F222B232B272B803053
:10264800DA005A08E2066408DA005A08E500630866
:10265800DA005A08E4006508DA005A08E30052086C
:10266800DA005A08E5005608DA005A08D200650868
:10267800DA005A08D6005308DA005A08E500570865
:10268800DA005A08D3006508DA005A08D700540857
:10269800DA005A08E5005808DA005A08D400650834
:1026A800DA005A08D8005508DA005A08E50059082F
:1026B800DA005A08D5006508DA005A08D900E50199
:1026C8006308DA00DB015B08DD0064085A02DC00FD
:1026D800031CDD035D08803AFF0080307F02031D84
:1026E800772B1A305C02031C7A2B7B2BB82B8312B6
:1026F80003135508540453045204031D842B862BDA
:102708000130872B0030DA005A08E5000030D50088
:102718000030D4000030D3000030D2006308DA0063
:102728005A08E400C02B651C9A2B9B2BA42B650828
:10273800DA0003105A0C0138DB005B08E500A62B11
:102748000310E50C521CA92BAA2BAB2BE517013063
:10275800DA00550DD50CD40CD30CD20CDA0BAD2BFA
:102768000130DA005A08E40783120313630864028D
:10277800031CBF2BC02B972B621BC32BC42B0F2C06
:102788006408031DC82BC92BD22B0030D50000309C
:10279800D4000030D3000030D2003D2D5608D207B7
:1027A800570803110318013E0319DB2BD3075808F8
:1027B80003110318013E0319E22BD407590803112A
:1027C8000318013E0319E92BD507551CEC2BED2BFB
:1027D800C32C651CF02BF12BFA2B6508DA000310CB
:1027E8005A0C0138DB005B08E500FC2B0310E50CF4
:1027F800521CFF2B002C012CE5170130DA00550D77
:10280800D50CD40CD30CD20CDA0B032C0130DA0023
:102818005A08E407C32C5508803AFF005908803A43
:102828007F02031D212C58085402031D212C570830
:102838005302031D212C560852020318242C252C60
:102848007D2CFF30DA00FF30DB00FF30DC00FF308A
:10285800DD005608DE005708DF005808E000590878
:10286800E1005208DE025308031C530F3C2C3D2C98
:10287800DF025408031C540F422C432CE002550875
:10288800031C550F482C492CE1025E08DA075F0843
:1028980003185F0F502C512CDB0760080318600FDA
:1028A800562C572CDC0761080318610ADD075D0800
:1028B800D5005C08D4005B08D3005A08D2008030E9
:1028C800DA005A08E206E509E50A6508031D6D2CD9
:1028D8006E2C8B2C0130D207003003180130D3073F
:1028E800003003180130D407003003180130D50731
:1028F8008B2C5608D2025708031C570FD3025808CE
:10290800031C580FD4025908031C590FD502550847
:10291800540453045204031D922C932CBF2C6508B5
:10292800031D972C982CBF2C0030D5000030D40004
:102938000030D3000030D2003D2D0130DA00031002
:10294800D20DD30DD40DD50DDA0BA32CE51FAD2C6C
:10295800AE2CAF2C5214651CB22CB32CB62C03141D
:10296800E50DB82C0310E50D64080319BC2CBD2C2B
:10297800BF2C0130E402D41FC22CC32CA12CE301CC
:10298800E51FC72CC82CD62C65087F390319CD2C18
:10299800CE2CD12CE301E30AD62C521CD42CD52CF6
:1029A800D62CCE2C63080319DA2CDB2C0F2D013022
:1029B800D207003003180130D30700300318013064
:1029C800D407003003180130D507551CEC2CED2C2A
:1029D8000F2D5208DA005308DB005408DC005508B4
:1029E800DD000130DE005D0DDD0CDC0CDB0CDA0CEB
:1029F800DE0BF72C5D08D5005C08D4005B08D3001B
:102A08005A08D200640A03190A2D0B2D0F2D013024
:102A1800DA005A08E407640A0319132D142D192D36
:102A28006408031D182D192D272D0030D5000030FE
:102A3800D4000030D3000030D2006408031D252DD7
:102A4800262D272DE201641C2A2D2B2D2D2DD41780
:102A5800312D7F30DA005A08D4056408DA000310F3
:102A68005A0CDB005B08D500E21F3B2D3C2D3D2DA9
:102A7800D517080083160313C100A130A500250847
:102A8800AE000A128A11C52F2530440603194D2DB0
:102A98004E2D5A2D4408A5004108840025088317A7
:102AA80080000130A5002508C107452DB101B201FC
:102AB800AF01B001200884000A128A110D200A16FD
:102AC8008A110A168A159D200A168A11031C6D2D73
:102AD8006E2DAE2D83160313B101B2010A30F0003A
:102AE8000030F100831603133208F3003108F200B6
:102AF8000A168A155B210A168A11710883160313B0
:102B0800B2007008B100200884000A128A110D2052
:102B18000A168A11D03EA500FF3003180030A6001F
:102B28002508B1070318B20A2608B2070130A50024
:102B38002508A007200884000A128A110D200A1609
:102B48008A110A168A159D200A168A110318AD2DB6
:102B5800AE2D722D83160313200884000A128A11E1
:102B68000D200A168A112E3A031DBB2DBC2D012EED
:102B780030170130A5002508A007C201C301F02DB8
:102B88000A30F0000030F100831603134308F30005
:102B98004208F2000A168A155B210A168A11710882
:102BA80083160313C3007008C200200884000A12A9
:102BB8008A110D200A168A11D03EA500FF3003188D
:102BC8000030A6002508C2070318C30A2608C30751
:102BD8000130A5002508A007200884000A128A11E0
:102BE8000D200A168A110A168A159D200A168A11BE
:102BF8000318FF2D002EC42D072EC201C301301665
:102C0800072E3015292E013083160313A007FF3035
:102C1800200784000A128A110D200A168A11C4009E
:102C2800A500A6012608003A03191B2E452D2508E4
:102C3800003A0319FD2F643A0319292E023A0319A1
:102C4800052E0F3A0319292E452D00302F05A50012
:102C580007303005A600250826040319342E372E20
:102C68000A128A11282E301E3A2E3B2E3F2E06308D
:102C7800C2000030C3002E08840083130008BD0082
:102C8800840A0008BE00840A0008BF00840A0008FD
:102C9800C0000430A5002508AE074008F3003F082F
:102CA800F2003E08F1003D08F0000030F700003067
:102CB800F6000030F5000030F4000A168A110920E9
:102CC8000A168A110318692E6A2E872E8316031393
:102CD8004008F3003F08F2003E08F1003D08F0000C
:102CE8000A168A1574200A168A11730883160313A4
:102CF800C0007208BF007108BE007008BD00033034
:102D0800AF040030B00483160313BB01BC014008B4
:102D1800F3003F08F2003E08F1003D08F0000030E3
:102D2800F7000030F6000030F5000030F4000A1615
:102D38008A1564220A168A110318A32EA42E942F2A
:102D48000310831603133F0D400D823EBB00FF3076
:102D580003180030BC00FF30BB070318BC0AFF3063
:102D6800BC070330F0000030F1003C08F3003B08DA
:102D7800F2000A168A155B210A168A117108831651
:102D88000313BC007008BB000A30F7000030F800DD
:102D98003C08FA003B08F9000A168A157F240A162F
:102DA8008A11780883160313BC007708BB00BC1F80
:102DB800DE2EDF2EE52EFF30BB070318BC0AFF30DE
:102DC800BC073B03FF3A0A128A1540210A168A11EA
:102DD80083120313410883160313B60083120313E7
:102DE800400883160313B500831203133F088316A4
:102DF8000313B400831203133E0883160313B300AE
:102E0800400883120313A700831603133F08831295
:102E18000313A600831603133E0883120313A500A9
:102E2800831603133D0883120313A40083160313A8
:102E3800360883120313AB00831603133508831275
:102E48000313AA0083160313340883120313A9007B
:102E580083160313330883120313A8000A128A1572
:102E68009F240A168A118312031327088316031353
:102E7800B60083120313260883160313B5008312C2
:102E88000313250883160313B400831203132408BD
:102E980083160313B3003608F3003508F20034082C
:102EA800F1003308F0003F30F7008030F6000030C2
:102EB800F5000030F4000A168A1109200A168A1152
:102EC8000318672F682F712FFF3083160313BB0772
:102ED8000318BC0AFF30BC07942F83160313360867
:102EE800F3003508F2003408F1003308F0004130EF
:102EF800F7002030F6000030F5000030F4000A1624
:102F08008A1109200A168A11031C8B2F8C2F942FE3
:102F1800013083160313BB070318BC0A0030BC0733
:102F2800831603134308803AFF0080307F02031D95
:102F38009F2F0D3042020318A22FA32FEA2F8316CA
:102F4800031342080A168A11AB200A168A11831243
:102F580003134108D5004008D4003F08D3003E08B9
:102F6800D20083160313400883120313D900831673
:102F780003133F0883120313D800831603133E0874
:102F880083120313D700831603133D088312031318
:102F9800D6000A168A11B6220A168A11831203135A
:102FA800550883160313C0008312031354088316AD
:102FB8000313BF0083120313530883160313BE00C1
:102FC80083120313520883160313BD0083160313D9
:102FD8003C08803AFF0080307F02031DF52F0A303D
:102FE8003B020318FA2F0A128A11D8290A128A11E9
:082FF800292A0A128A11D92FBF
:1030B600F000700883120313880008006400800182
:1030C600840A0406031900340406622883120313D3
:1030D60018161811831603138C16831203139810EF
:1030E6000800730872047104700403197B287C2895
:1030F6007E288030F306080000300A168A15DE2086
:103106000A168A1501300A168A15DE200A168A154D
:10311600080083160313181298161811831603173E
:103126008715193083160313990083120313981712
:103136008B170800F100F0013A3071020318A42839
:10314600A528AD2830307102031CAA28AB28AD286B
:10315600F001F00A700C0800F300831603138712BF
:10316600731DB628B728BB28720894008715BF2898
:103176007008720494008711730871048312031394
:103186009400080083160313880190308700890194
:103196008601850103308316031788008312031303
:1031A60007148714071507138713FF308500880156
:1031B600890186010800F3008312031309107308BE
:1031C6000A168A155B200A168A15831203138914B8
:1031D6000B30F2006230F100F10BEF28F20BEF2812
:1031E60000008312031389100800F20083120313F0
:1031F600091472080A168A155B200A168A158312A4
:10320600031389141A30F100F10B07290000831209
:10321600031389101A30F100F10B0F290000080082
:10322600F6007603031D18291929252974087F3EFF
:10323600F5007508F70077080A168A15DE200A16C3
:103246008A15362902307606031D2A292B293629A6
:103256007408BF3EF5007508F70077080A168A1548
:10326600DE200A168A150800803083120313E90649
:103276006D08D5006C08D4006B08D3006A08D2002C
:103286006908D9006808D8006708D7006608D6001C
:103296000A168A11B6220A168A15831203135508CE
:1032A600E9005408E8005308E7005208E600080061
:1032B600F401F501701C6029612967297208F40779
:1032C6000318F50A7308F50701300310F20DF30D24
:1032D600FF3E031D682901300310F10CF00CFF3E80
:1032E600031D6F2970087104031D7A297B295D2946
:1032F6007508F1007408F0000800F800F401F50103
:103306007008F200F3017208F6007308F700781CE3
:103316008D298E2994297608F4070318F50A77086B
:10332600F50701300310F60DF70DFF3E031D952935
:103336000310F80C7808031DA129A2298A2975080B
:10334600F1007408F0000800700871040319AC2934
:10335600AD29DC29F501F50ABB2901300310F00D72
:10336600F10DFF3E031DB1290130F4007408F50785
:10337600F11FBE29BF29B02971087302031DC52993
:1033860070087202031CC829C929CF297008F202E5
:103396007108031CF303F30201300310F10CF00C67
:1033A600FF3E031DD0290130F502031DDB29DC2970
:1033B600BF297308F1007208F000080000300A16F1
:1033C6008A155B200A168A153430F500F130F400B0
:1033D600F40BEB29F50BEB29F0293F300A168A1579
:1033E600DE200A168A151A30F500F830F400F40BC0
:1033F600FA29F50BFA2900003F300A168A15DE2055
:103406000A168A158530F400F40B072A3F300A168F
:103416008A15DE200A168A1538300A168A15DE2025
:103426000A168A150C300A168A15DE200A168A151F
:1034360006300A168A15DE200A168A150800F801D3
:10344600F901472A78087307F6007408F50003188F
:10345600F50AF81F2F2AF5037508F7007708831277
:103466000313FF00760884000A128A1103200A1645
:103476008A150A168A15F8200A168A150130F807E1
:103486000318F90A0030F90778087307F60074087C
:10349600F5000318F50AF81F512AF5037508F70019
:1034A600770883120313FF00760884000A128A1134
:1034B60003200A168A15003A031D622A632A252A62
:1034C600080000307005F80000307105F900803002
:1034D6007205FA007F307305FB007B087A047904D5
:1034E6007804031D772A782A802A0030F3000030FA
:1034F600F2000030F1000030F00000307405F800F2
:1035060000307505F90080307605FA007F307705C2
:10351600FB007B087A0479047804031D932A942A15
:103526009C2A0030F7000030F6000030F50000302D
:10353600F40077087306031DAA2A76087206031D8F
:10354600AA2A75087106031DAA2A740870060319AB
:10355600AD2AAE2AB02A0310B12A0314080083123A
:10356600031323082204210420040319BB2ABC2ABE
:10357600FF2AA901A90ACC2A0130A8000310A00D30
:10358600A10DA20DA30DA80BC12A0130A800280881
:10359600A907A31FCF2AD02ABF2A23082702031D63
:1035A600DE2A22082602031DDE2A21082502031D23
:1035B600DE2A20082402031CE12AE22AF02A200837
:1035C600A4022108031C210FA5022208031C220FB6
:1035D600A6022308031C230FA70201300310A30C25
:1035E600A20CA10CA00CFF3E031DF12A0130A9027A
:1035F600031DFE2AFF2AD02A2708A3002608A200B8
:103606002508A1002408A0000800F601F31F0C2BD2
:103616000D2B142BF209F309F20A0319F30AF6012A
:10362600F60AF11F172B182B1D2BF009F109F00ACA
:103636000319F10A700871040319222B232B522B4C
:10364600F501F50A312B01300310F00DF10DFF3EA7
:10365600031D272B0130F4007408F507F11F342BE6
:10366600352B262B71087302031D3B2B7008720243
:10367600031C3E2B3F2B452B7008F2027108031CDE
:10368600F303F30201300310F10CF00CFF3E031DAF
:10369600462B0130F502031D512B522B352B760894
:1036A6000319562B572B5C2BF209F309F20A03195F
:1036B600F30A7308F1007208F0000800831203137E
:1036C600C6003C30A7009F30A600BE30A50077306C
:1036D600A4004608C200C301C401C5014508F300A1
:1036E6004408F2004308F1004208F00001300A16CF
:1036F6008A1553250A168A15730883120313AB001D
:103706007208AA007108A9007008A8000A128A1592
:103716009F240A168A158312031327088316031398
:10372600CF0083120313260883160313CE008312D9
:103736000313250883160313CD00831203132408ED
:1037460083160313CC004F0883120313C10083169C
:1037560003134E0883120313C000831603134D0888
:1037660083120313BF00831603134C08831203133B
:10377600BE00080083120313C6003F30A700F930CD
:10378600A6009930A5009A30A4004608C200C301DD
:10379600C401C5014508F3004408F2004308F100DE
:1037A6004208F00001300A168A1553250A168A15B2
:1037B600730883120313AB007208AA007108A900EC
:1037C6007008A8000A128A159F240A168A15831201
:1037D6000313270883160313D30083120313260843
:1037E60083160313D20083120313250883160313CB
:1037F600D10083120313240883160313D000530841
:1038060083120313C1008316031352088312031392
:10381600C00083160313510883120313BF008316D7
:103826000313500883120313BE0008000030FC0087
:103836000030FB000030FA000030F9007308720413
:10384600710470040319282C292C762CFD01FD0A1D
:10385600392C0130F8000310F00DF10DF20DF30DC7
:10386600F80B2E2C0130F8007808FD07F31F3C2CCE
:103876003D2C2C2C0130F8000310F90DFA0DFB0D30
:10388600FC0DF80B3F2C73087702031D542C7208AD
:103896007602031D542C71087502031D542C700802
:1038A6007402031C572C582C672C7008F4027108FC
:1038B600031C710FF5027208031C720FF6027308DF
:1038C600031C730FF702791401300310F30CF20C8A
:1038D600F10CF00CFF3E031D682C0130FD02031DA8
:1038E600752C762C3D2C7C08F3007B08F2007A08B8
:1038F600F1007908F000080083120313A101F81FF4
:10390600852C862C8D2CF709F809F70A0319F80A75
:10391600A101A10AFA1F902C912C9A2CF909FA09F7
:10392600F90A0319FA0A0130FB007B08A106A20175
:10393600A301770878040319A12CA22CD92CA00185
:10394600A00AB02C01300310F70DF80DFF3E031D41
:10395600A62C0130FB007B08A007F81FB32CB42C63
:10396600A52C01300310A20DA30DFF3E031DB52C9F
:1039760078087A02031DC12C77087902031CC42C2F
:10398600C52CCC2C7708F9027808031CFA03FA0236
:10399600221401300310F80CF70CFF3E031DCD2C4A
:1039A6000130A002031DD82CD92CB42C21080319F0
:1039B600DD2CDE2CE32CA209A309A20A0319A30A13
:1039C6002308F8002208F700080071088312031381
:1039D600FF00700884000A128A1103200A168A154D
:1039E600990083160313981CF92CFA2CF42C013039
:1039F600F2000030F30072087007840073080318A1
:103A0600730A710783120313FF000A128A11032037
:103A16000A168A15990083160313981C132D142D64
:103A26000E2D0230F2000030F30072087007840099
:103A360073080318730A710783120313FF000A122F
:103A46008A1103200A168A15990083160313981CF7
:103A56002D2D2E2D282D0330F2000030F300720894
:103A66007007840073080318730A7107831203131F
:103A7600FF000A128A1103200A168A159900831676
:103A86000313981C472D482D422D20308312031313
:103A9600990083160313981C512D522D4C2D0800A6
:103AA600F80078080319582D592D6D2DF31F5C2D3C
:103AB6005D2D6D2D7009FA007109FB007209FC007D
:103AC6007309FD00FA0A0319FB0A0319FC0A031914
:103AD600FD0A752D7308FD007208FC007108FB00D5
:103AE6007008FA007308720471047004031D7C2DBB
:103AF6007D2D862D0030F3000030F2000030F100FD
:103B06000030F0000C2E9630F4007408F900982D61
:103B16000130F4007408F90701300310FD0CFC0CA9
:103B2600FB0CFA0CFF3E031D902DFE307D05031D98
:103B36009D2D9E2D8B2DBA2D0130F4007408F907AA
:103B46000130FA07003003180130FB070030031874
:103B56000130FC07003003180130FD070130031067
:103B6600FD0CFC0CFB0CFA0CFF3E031DB22DFF30C6
:103B76007D05031DBF2DC02D9F2DCC2D0130F902D3
:103B86000130F4000310FA0DFB0DFC0DFD0DF40BD6
:103B9600C52DFC1BCF2DD02DD62D02307902031852
:103BA600D52DD62DC12D7918D92DDA2DE22DFF3040
:103BB600FA05FF30FB057F30FC05FF30FD050310DD
:103BC600F90C7908F400F501F601F7011830031035
:103BD600F40DF50DF60DF70DFF3E031DEA2D7408E5
:103BE600FA047508FB047608FC047708FD047808D7
:103BF6000319FE2DFF2D042EF31F022E032E042E75
:103C0600FD177D08F3007C08F2007B08F1007A08B6
:103C1600F00008000A168A15C5200A168A15F00152
:103C2600F101F20120300A168A15AF200A168A150C
:103C36000A168A158C200A168A150A168A1569200C
:103C46000A168A150A168A15E1210A168A150A160F
:103C56008A157F200A168A15F401F40A01300A161D
:103C66008A1513210A168A159130F3008030F40064
:103C76000A168A1522220A168A15B430F0008030F8
:103C8600F1000A168A15E8240A168A15A430F000EF
:103C96000130F1000A168A15E8240A168A15B8308A
:103CA600F0008030F1000A168A15E8240A168A15F3
:103CB6009030F0000130F1000A168A15E8240A1641
:103CC6008A159E30F0008030F1000A168A15E82425
:103CD6000A168A15B830F0000130F1000A168A1566
:103CE600E8240A168A15033083160313C600973094
:103CF600C500C50B7C2EC60B7C2E06308312031323
:103D06008500023083160313C7000430C600B9309D
:103D1600C500C50B8C2EC60B8C2EC70B8C2E932E76
:103D26008312031393010A168A1100200A168A15B4
:103D360083160313C5004508DB00033083160313FF
:103D4600C6009730C500C50BA62EC60BA62E07309B
:103D56008312031385000D3083160313C50045082F
:103D6600F40002300A168A1513210A168A158316DC
:103D760003135B080A168A15BD230A168A158312D1
:103D86000313410883160313CB0083120313400861
:103D960083160313CA00831203133F088316031303
:103DA600C900831203133E0883160313C800A2300A
:103DB600C5004508A0004B08A4004A08A30049080E
:103DC600A2004808A100B8300A168A113E250A1634
:103DD6008A15B830F3000130F4000A168A1522223B
:103DE6000A168A15033083160313C6009730C500DA
:103DF600C50BFB2EC60BFB2E053083120313850065
:103E0600023083160313C7000430C600B930C5005C
:103E1600C50B0B2FC60B0B2FC70B0B2F122F013009
:103E26008312031393000A168A1100200A168A15B4
:103E360083160313C5004508D90003308316031300
:103E4600C6009730C500C50B262FC60B262F073098
:103E5600831203138500F401F40A02300A168A1548
:103E660013210A168A158316031359080A168A158A
:103E760061230A168A158312031341088316031356
:103E8600D70083120313400883160313D600831248
:103E960003133F0883160313D500831203133E084A
:103EA60083160313D400A930C5004508A00057089F
:103EB600A4005608A3005508A2005408A100A43087
:103EC6000A168A113E250A168A15A430F300013017
:103ED600F4000A168A1522220A168A150A30831653
:103EE60003135A020318782F792F8C2F0830C50038
:103EF6004508F40002300A168A1513210A168A1597
:103F0600B030F3008030F4000A168A1522220A1611
:103F16008A15033083160313C6009730C500C50BF8
:103F2600922FC60B922F03308312031385000230A3
:103F360083160313C7000430C600B930C500C50B8D
:103F4600A22FC60BA22FC70BA22FA92F02308312B6
:103F5600031393000A168A1100200A168A1583167F
:103F66000313C5004508DA00033083160313C600A1
:103F76009730C500C50BBD2FC60BBD2F073083126A
:103F860003138500073083160313C5004508F400A4
:103F960002300A168A1513210A168A15BC308316B2
:103FA6000313C5004508A0005A08C600C701460805
:103FB600A1004708A20090300A168A113E250A166B
:103FC6008A159030F3000130F4000A168A15222271
:103FD6000A168A15023083160313C7000430C6007A
:103FE600B930C500C50BF52FC60BF52FC70BF52F3E
:0A3FF600FC2F2F2E0A128A1100285A
:04400E00D520FF3F7B
:00000001FF
