:020000040000FA
:060000000A128A110C280F
:10000800FE00030EF1000A08F2000A128A11582BAA
:100018000A128A110F280A128A1122240A128A1136
:10002800F8000A128A1123240A128A11F90083138C
:10003800203084004A300A128A1107240A128A11D1
:10004800FA0183010A128A11132983120313DE00AD
:100058005430D6005608D900FC2825305F0603190D
:100068003628372843285F08D6005E0884005608DB
:10007800831380000130D6005608DE07FC28DA0119
:100088000130D307FF30530784000A128A110A236C
:100098000A128A11DF00D600D7015708003A03195F
:1000A8005628FC285608003A03190E29643A031901
:1000B80061280D3A03196128FC2859088400831324
:1000C8000008DC00840A0008DD000230D60056086B
:1000D800D907DD1F702871287A280330D600560802
:1000E800DA04DC09DD09DC0A0319DD0ADF01DF0AAD
:1000F8005F08D6005607013E84000A128A110A23B7
:100108000A128A11D7000A128A110A230A128A11BE
:10011800D80058085D02031D932857085C0203188D
:10012800962897289828A2280130D6005608DF0775
:1001380005305F06031DA128A2287C285A08033928
:100148000319A728A828B3282D30D6005E088400F4
:100158005608831380000130D6005608DE075F0872
:10016800D6005608DB00F3280A30CD000030CE0058
:100178005B08D6005607013E84000A128A110A233A
:100188000A128A11F3000A128A110A230A128A1122
:10019800F4005D08F6005C08F5000A128A112D22A9
:1001A8000A128A11740883120313D0007308CF004F
:1001B8000A128A11B9220A128A11831203134D08EE
:1001C800303ED7005708DF005F08D6005E0884007D
:1001D8005608831380000130D6005608DE07FF302A
:1001E800D6005608DB075B0A031DFB28FC28B82845
:1001F8000130D307FF30530784000A128A110A23FB
:100208000A128A11D6005608DF005F08031D0D295F
:100218000E2931285E0884008313800108000A1221
:100228008A11BF230A128A11F301F401F501203063
:100238000A128A11A9230A128A110A128A11D523CD
:100248000A128A110A128A11F3230A128A110A124F
:100258008A11E6210A128A110A128A11E6230A1261
:100268008A11F701F70A01300A128A1132230A1299
:100278008A110B30F6008030F7000A128A117322B7
:100288000A128A110A3083120313340203184D2903
:100298004E2961290830E0006008F70002300A1290
:1002A8008A1132230A128A111C30F6008030F700B6
:1002B8000A128A1173220A128A1103308312031355
:1002C800E2000830E1007630E000E00B6929E10B3C
:1002D8006929E20B692900008312031307111A30F8
:1002E80083120313E100F730E000E00B7929E10BFA
:1002F80079297E2900300A128A1116240A128A11D5
:100308000A128A11FE230A128A1183120313E000CB
:100318006008B4001A3083120313E100F730E000DC
:10032800E00B9429E10B94299929831203130715EB
:10033800033083120313E2000830E1007630E00056
:10034800E00BA429E10BA429E20BA4290000073043
:1003580083120313E0006008F70002300A128A11C2
:1003680032230A128A11203083120313E000600836
:10037800D3003408E100E2016108D4006208D50026
:1003880036300A128A1129200A128A113630F600EC
:100398000030F7000A128A1173220A128A110230F9
:1003A80083120313E2000430E100B930E000E00BEF
:1003B800DB29E10BDB29E20BDB29E22935290A12CB
:1003C8008A110C2800300A128A111C240A128A1178
:1003D800343083120313CB00F130CA00CA0BF22960
:1003E800CB0BF2293F300A128A118F230A128A1185
:1003F8001A3083120313CB00F730CA00CA0B022A43
:10040800CB0B022A072A3F300A128A118F230A12BD
:100418008A11843083120313CA00CA0B112A000000
:100428003F300A128A118F230A128A1138300A12B1
:100438008A118F230A128A110C300A128A118F230B
:100448000A128A1106300A128A118F230A128A1197
:10045800080083120313CB01CC0173087404031939
:10046800362A372A6E2ACA01CA0A452A01300310D9
:10047800F30DF40DFF3E031D3B2A0130F70077080A
:10048800CA07F41F482A492A3A2A01300310CB0D1B
:10049800CC0DFF3E031D4A2A74087602031D562A16
:1004A80073087502031C592A5A2A612A7308F5022F
:1004B8007408031CF603F6024B1401300310F40C05
:1004C800F30CFF3E031D622A0130CA02031D6D2A88
:1004D8006E2A492A4C08F4004B08F30008008312DE
:1004E8000313CD01CE019C2A4D087607CB0077086F
:1004F800CA000318CA0ACD1F822ACA03831203132B
:100508004A08CC004C08FF004B0884000A128A11E4
:1005180000230A128A110A128A1174230A128A11F4
:10052800013083120313CD070318CE0A0030CE071B
:100538004D087607CB007708CA000318CA0ACD1FF2
:10054800A62ACA03831203134A08CC004C08FF00EA
:100558004B0884000A128A1100230A128A11003AF1
:10056800031DB72AB82A782A0800831203134D08F6
:100578004E040319C02AC12AF02AD201D20ACF2A6E
:1005880001300310CD0DCE0DFF3E031DC52A0130ED
:10059800D1005108D207CE1FD22AD32AC42A4E0826
:1005A8005002031DD92A4D084F02031CDC2ADD2AFC
:1005B800E32A4D08CF024E08031CD003D0020130B5
:1005C8000310CE0CCD0CFF3E031DE42A0130D202ED
:1005D800031DEF2AF02AD32A5008CE004F08CD0079
:0205E800080009
:10060000FF1B0A2B83137F1883170008840A031922
:10061000FF0A080003308A000408840A82070034B5
:10062000013400340A34003464340034E8340334D0
:1006300010342734533431343A34203420342034C5
:10064000533432343A342034203420342034533478
:1006500033343A3400342034203420340034253408
:100660006434003483120313CB004B03031D392B76
:100670003A2B462B77087F3ECA004A08CC004C082C
:100680000A128A118F230A128A11572B02304B0645
:10069000031D4B2B4C2B572B7708BF3ECA004A0833
:1006A000CC004C080A128A118F230A128A11080002
:1006B000831203138C1E5D2B5E2B6D2B981C612BFC
:1006C000622B692B1812C730F000F00B652B682BDA
:1006D0006D2B1A08F0007008B10072088A00710EC4
:1006E0008300FE0E7E0E0900F50083120313091429
:1006F00075080A128A111C240A128A118312031324
:1007000089141A30F400F40B832B000083120313B6
:1007100089101A30F400F40B8B2B00000800F6004F
:1007200083120313091076080A128A111C240A1274
:100730008A118312031389140B30F5006230F40020
:10074000F40BA02BF50BA02B0000831203138910D0
:100750000800F600831603138712761DB02BB12B09
:10076000B52B750894008715B92B73087504940090
:10077000871176087404831203139400080083160B
:1007800003138801903087008901860103308316A6
:100790000317880083120313071487140711071324
:1007A0008713880189018601080083160313181234
:1007B000981618118316031787151930831603131B
:1007C00099008312031398178B17080000300A1240
:1007D0008A118F230A128A1101300A128A118F237B
:1007E0000A128A11080083120313181618118316AF
:1007F00003138C1683120313981008000A128A112F
:100800000F240A128A1183120313130808006400CC
:100810008001840A0406031900340406082C831698
:100820000313141C142C152C0F2C0800F300730850
:100830008312031393000800F30073088312031359
:080840008800080001340134B6
:04400E00D520FF3F7B
:00000001FF
