:020000040000FA
:060000000A128A110C280F
:10000800FE00030EF1000A08F2000A168A151A2AE1
:100018000A128A110F280A128A11FE270A128A1157
:10002800F8000A128A11FF270A128A11F9008317A9
:1000380090308400A4300A168A1581210A128A1188
:100048008313D0308400E5300A168A1581210A12FC
:100058008A11ED01FA0183010A128A11B52E83165D
:100068000313480883120313A300831603134708D6
:1000780083120313A2008316031346088312031383
:10008800A10083160313450883120313A000003050
:10009800A7000030A6000030A5000030A4000A1612
:1000A8008A15C1230A128A1103185B285C283E2985
:1000B80083160313480883120313DB008316031304
:1000C800470883120313DA008316031346088312C2
:1000D8000313D90083160313450883120313D800AA
:1000E8000A128A1502200A128A11831203135B0866
:1000F8005A0459045804031D822883283E2983166C
:1001080003134408803AFF0080307F02031D8E28C5
:1001180002304302031C912892283E2983160313B8
:100128003E0883120313A300831603133D088312AA
:100138000313A200831603133C0883120313A100C0
:10014800831603133B0883120313A0004030A70053
:100158008930A6007030A5005F30A4000A168A1501
:10016800E3250A128A110318BA28BB28C428F730D5
:1001780083160313C3070318C40AFF30C407CC2827
:10018800F83083160313C3070318C40AFF30C407E3
:1001980043080A128A159D240A128A11831203132E
:1001A800480883160313BE008312031347088316F7
:1001B8000313BD0083120313460883160313BC0000
:1001C80083120313450883160313BB0048088312E0
:1001D8000313A30083160313470883120313A20013
:1001E80083160313460883120313A100831603130F
:1001F800450883120313A000831603133E088312D5
:100208000313A700831603133D0883120313A600E4
:10021800831603133C0883120313A50083160313E4
:100228003B0883120313A4000A128A157E200A12BF
:100238008A1183120313230883160313C20083123F
:100248000313220883160313C10083120313210822
:1002580083160313C00083120313200883160313A5
:10026800BF000030C8000030C7000030C6000030B2
:10027800C500A42983160313480883120313DB005F
:1002880083160313470883120313DA008316031334
:10029800460883120313D9008316031345088312F3
:1002A8000313D8000A128A1502200A128A1183122F
:1002B80003135B0883160313C200831203135A083F
:1002C80083160313C10083120313590883160313FB
:1002D800C00083120313580883160313BF00420893
:1002E800F6004108F5004008F4003F08F30000302C
:1002F8000A168A1587260A128A11760883160313A6
:10030800A3007508A2007408A1007308A00048089B
:10031800A7004708A6004608A5004508A4000A1635
:100328008A1511240A128A11831603132308C80098
:100338002208C7002108C6002008C500C301C4015F
:10034800CC01CC0A4C08AD0001300310AD0DFF3EC6
:10035800031DA92903102D0D693E84000A168A156C
:100368000A200A128A11AE000A168A150A200A12F1
:100378008A11AF000A168A150A200A128A11B000DB
:100388000A168A150A200A128A11B1003108420297
:10039800031DD82930084102031DD8292F0840021F
:1003A800031DD8292E083F020318DB29DC29DD2983
:1003B800E7290130AD002D08CC070A304C06031D93
:1003C800E629E729A6294C084A07AD004B08031877
:1003D8004B0AAE0043082D07AF0044080318440A2F
:1003E8002E07B0002F08B9023008031CBA03BA025E
:1003F8004A084B040319012A022A082AFF30B907C0
:100408000318BA0AFF30BA0703303705AD000030C9
:100418003805AE002D082E040319132A142A292A98
:10042800FF30B9070318BA0AFF30BA07292A203063
:1004380083160313AD00490884002D088317800034
:100448000130AD002D08C907142A3A08803AFF0088
:1004580080307F02031D322A013039020318352A01
:10046800362A1B2A0330831603133705AD000030E4
:100478003805AE002D082E040319432A442AF62A0B
:100488002D30AD00490884002D0883178000013005
:10049800AD002D08C907F62A4C08AD00013003103D
:1004A800AD0DFF3E031D532A03102D0D693E840038
:1004B8000A168A150A200A128A1183120313A00049
:1004C8000A168A150A200A128A11A1000A168A1524
:1004D8000A200A128A11A2000A168A150A200A128C
:1004E8008A11A30083160313420883120313A7007B
:1004F80083160313410883120313A60083160313FC
:10050800400883120313A500831603133F088312C0
:100518000313A4000A168A1512250A128A118312D7
:100528000313230883160313BE0083120313220840
:1005380083160313BD0083120313210883160313C4
:10054800BC0083120313200883160313BB0000307A
:1005580083120313B0000030AF000030AE000A3041
:10056800AD00831603133E0883120313B4008316E9
:1005780003133D0883120313B300831603133C08C7
:1005880083120313B200831603133B088312031369
:10059800B1000A168A1561240A128A1183120313FC
:1005A800300883160313BE00831203132F08831623
:1005B8000313BD00831203132E0883160313BC0014
:1005C800831203132D0883160313BB003B08303E28
:1005D800AD00490884002D08831780000130AD0064
:1005E8002D08C9070130CC024C0A031DFC2AFD2A3C
:1005F800502A112B303083160313AD0049088400AC
:100608002D08831780000130AD002D08C907FF3081
:10061800C3070318C40AFF30C4074408803AFF0020
:1006280080307F02031D1A2B0130430203181D2B53
:100638001E2BFE2A831603134B08803AFF008030D6
:100648007F02031D292B09304A02031C2C2B2D2B5A
:10065800342B083083160313AD002D08CC003A2B39
:10066800831603134A08AD002D08CC004C08AD00D2
:10067800AE012D08CA022E08031CCB03CB024C087E
:100688000319472B482B532B2E30AD004908840003
:100698002D08831780000130AD002D08C9074C08CC
:1006A8000A128A159D240A128A1183120313480814
:1006B80083160313B5008312031347088316031325
:1006C800B40083120313460883160313B30083127E
:1006D8000313450883160313B20035088312031366
:1006E800B20083160313340883120313B100831670
:1006F8000313330883120313B0008316031332085D
:1007080083120313AF0083160313480883120313DD
:10071800AE0083160313470883120313AD00831634
:100728000313460883120313AC008316031345080A
:1007380083120313AB000A128A153C210A128A118C
:10074800831203132E08DB002D08DA002C08D900C9
:100758002B08D8000A128A1502200A128A1183125D
:1007680003135B0883160313C200831203135A088A
:1007780083160313C1008312031359088316031346
:10078800C00083120313580883160313BF00CD2C2F
:100798004C08AD0001300310AD0DFF3E031DCF2BFB
:1007A80003102D0D693E84000A168A150A200A12C4
:1007B8008A1183120313A0000A168A150A200A1246
:1007C8008A11A1000A168A150A200A128A11A200A3
:1007D8000A168A150A200A128A11A300831603131F
:1007E800420883120313A7008316031341088312D8
:1007F8000313A60083160313400883120313A500EE
:10080800831603133F0883120313A4000A168A15DC
:1008180012250A128A11831203132308831603135D
:10082800BE0083120313220883160313BD0083122C
:100838000313210883160313BC0083120313200833
:1008480083160313BB00003083120313B00000307B
:10085800AF000030AE000A30AD00831603133E0827
:1008680083120313B400831603133D088312031382
:10087800B300831603133C0883120313B2008316D4
:1008880003133B0883120313B1000A168A15612467
:100898000A128A1183120313300883160313BE0049
:1008A800831203132F0883160313BD008312031347
:1008B8002E0883160313BC00831203132D08831616
:1008C8000313BB003B08303EAD00490884002D08E7
:1008D800831780000130AD002D08C9074C08AD0012
:1008E80001300310AD0DFF3E031D752C03102D0DB7
:1008F800693E84000A168A150A200A128A11831290
:100908000313AD000A168A150A200A128A11AE00CE
:100918000A168A150A200A128A11AF000A168A15C1
:100928000A200A128A11B0008316031342088312A0
:100938000313B40083160313410883120313B3008F
:1009480083160313400883120313B200831603139C
:100958003F0883120313B1000A168A1561240A128C
:100968008A1183120313300883160313C2008312FB
:1009780003132F0883160313C100831203132E08D1
:1009880083160313C000831203132D088316031361
:10099800BF000130CC024C0A031DD32CD42CCC2B25
:1009A800E62C3030AD00490884002D0883178000FC
:1009B8000130AD002D08C907FF30CA070318CB0A5C
:1009C800FF30CB074A084B04031DEB2CEC2CD52C2D
:1009D8009C2E3608840083130008AD00840A0008A2
:1009E800AE002D08BF002E08C0000030C01BFF302D
:1009F800C100C2000230AD002D08B607C21F052D88
:100A0800062D152D0330B7040030B804BF09C009FE
:100A1800C109C209BF0A0319C00A0319C10A031987
:100A2800C20A4A084B04031D1A2D1B2D292D420802
:100A3800410440043F04031D222D232D292D01309C
:100A4800CA070318CB0A0030CB07CC01CC0A4C08E4
:100A5800AD0001300310AD0DFF3E031D2E2D031018
:100A68002D0D693E84000A168A150A200A128A1179
:100A7800AE000A168A150A200A128A11AF000A1651
:100A88008A150A200A128A11B0000A168A150A2045
:100A98000A128A11B10031084202031D5D2D300887
:100AA8004102031D5D2D2F084002031D5D2D2E08F8
:100AB8003F020318602D612D622D6C2D0130AD00B1
:100AC8002D08CC070A304C06031D6B2D6C2D2B2DE1
:100AD8004B08803A803C031D732D4A084C020318CA
:100AE800762D772D7E2D831603134A08AD002D0829
:100AF800CC00962D831603134B08803AAD00803046
:100B08002D02031D892D4C084A0203188C2D8D2DAA
:100B1800962D831603134C08AD00AE012D08CA00AC
:100B28002E08CB008316031339083A0403199D2DA8
:100B38009E2DB02D03303705AD0000303805AE00CE
:100B48002D082E040319A92DAA2DB02DFF30B907A1
:100B58000318BA0AFF30BA07381FB32DB42DCF2DAA
:100B68004B08803AAD003A08803A2D02031DBE2D8D
:100B780039084A020318C12DC22DCB2D8316031341
:100B88004A08B9024B08031CBA03BA02CF2D8316D0
:100B98000313B901BA013A08803A803C031DD62DE7
:100BA80039084C020318D92DDA2DE62D83160313C4
:100BB8004C08AD00AE012D08B9022E08031CBA037B
:100BC800BA02EA2D83160313B901BA0139083A04A7
:100BD8000319EF2DF02D072E2030AD0049088400B1
:100BE8002D08831780000130AD002D08C907FF309C
:100BF800B9070318BA0AFF30BA0739083A04031DBF
:100C0800062E072EF02D03303705AD0000303805CD
:100C1800AE002D082E040319122E132E8E2E2D3001
:100C2800AD00490884002D08831780000130AD000D
:100C38002D08C9078E2E003083120313B000003030
:100C4800AF000030AE000A30AD00831603134A0827
:100C5800AD0001300310AD0DFF3E031D2E2E031015
:100C68002D0D693E84000A168A150A200A128A1177
:100C780083120313A0000A168A150A200A128A1181
:100C8800A1000A168A150A200A128A11A2000A1659
:100C98008A150A200A128A11A30083160313420830
:100CA80083120313A7008316031341088312031347
:100CB800A60083160313400883120313A5008316A6
:100CC80003133F0883120313A4000A168A1512257A
:100CD8000A128A11831203132308B4002208B300EE
:100CE8002108B2002008B1000A168A1561240A12E8
:100CF8008A11831203132D08303E83160313AE00A6
:100D08002E08CC004C08AD00490884002D08831734
:100D180080001A2EFF30CA070318CB0AFF30CB0712
:100D28004A0A031D9B2E4B0A031D9B2E9C2E1F2E29
:100D38000130A807FF30280784000A168A150A2000
:100D48000A128A11AD002D08CC004C08031DAD2EE7
:100D5800B02E0A168A11002D4908840083178001D5
:100D680008000A168A15C6210A128A110A168A1557
:100D7800B5210A128A110A168A1592210A128A11B5
:100D88000A168A157A230A128A110A168A15A821C0
:100D98000A128A11F301F401F50120300A168A15A6
:100DA800EA210A128A11F701F70A01300A168A1590
:100DB80038220A128A119130F6008030F7000A169C
:100DC8008A15EE220A128A11033083160313CE0005
:100DD8009730CD00CD0BEE2ECE0BEE2E83120313E3
:100DE8000710033083160313CE009730CD00CD0BC8
:100DF800FB2ECE0BFB2E8312031393010A168A15C2
:100E080089210A128A1183160313CD004D08831213
:100E18000313ED00033083160313CE009730CD0083
:100E2800CD0B142FCE0B142F83120313071403308A
:100E380083160313CF000830CE007630CD00CD0BDB
:100E4800232FCE0B232FCF0B232F00000B3083161D
:100E58000313CD004D08F70002300A168A15382210
:100E68000A128A11831203136D080A168A110520C3
:100E78000A128A1183120313480883160313D30036
:100E880083120313470883160313D2008312031334
:100E9800460883160313D1008312031345088316EB
:100EA8000313D000A230CD004D08A8005308AC00B1
:100EB8005208AB005108AA005008A90090300A1641
:100EC8008A11F6240A128A119030F6000130F700D0
:100ED8000A168A15EE220A128A11033083160313A2
:100EE800CF000830CE007630CD00CD0B792FCE0B59
:100EF800792FCF0B792F00008312031307110330CA
:100F080083160313CE009730CD00CD0B892FCE0B5F
:100F1800892F02308312031393000A168A15892138
:100F28000A128A1183160313CD004D08E40003301A
:100F380083160313CE009730CD00CD0BA12FCE0B17
:100F4800A12F831203130715033083160313CF0051
:100F58000830CE007630CD00CD0BB02FCE0BB02FA1
:100F6800CF0BB02F0000073083160313CD004D08B8
:100F7800F70002300A168A1538220A128A11A93097
:100F880083160313CD004D08A8006408CE00CF01D6
:100F98004E08A9004F08AA0090300A168A11F624B4
:100FA8000A128A119030F6000130F7000A168A15E5
:100FB800EE220A128A11D72E0A128A110C28F5007D
:100FC80083120313091475080A168A1574210A1264
:100FD8008A118312031389141A30F400F40BF22FC8
:100FE80000008312031389101A30F400F40BFA2F4F
:080FF80000000800013401347F
:101004000310831203135A0D5B0DDC005C08E2002D
:101014006208031D0E280F2818280030DB0000305A
:10102400DA000030D9000030D8007D285808DC00F0
:101034005908DD005A08DE005B08DF001F3003108A
:10104400DF0CDE0CDD0CDC0CFF3E031D21285C08EC
:10105400E0006008E100DA17FF30D805FF30D90559
:10106400FF30DA050030DB059630E202E21F3B2850
:101074003C2856286208803A973E031842284328A1
:1010840044280F2801300310DB0CDA0CD90CD80CDF
:10109400FF3E031D45280130DC005C08E207031D08
:1010A4005428552844286D2820306202031C5B28EC
:1010B4005C2868280F280130DC000310D80DD90DF6
:1010C400DA0DDB0DDC0B5F280130E2026208031D40
:1010D4006C286D285D2861080319712872287D2801
:1010E400D809D909DA09DB09D80A0319D90A031975
:1010F400DA0A0319DB0A0800031083120313220D12
:10110400230DF3007308AD002D08031D8A288B28D6
:1011140094280030A3000030A2000030A100003069
:10112400A0003B290310260D270DF3007308AC0023
:101134002C08031D9E289F28A0288B28A217FF3067
:10114400A005FF30A105FF30A2050030A305A617B6
:10115400FF30A405FF30A505FF30A6050030A70524
:101164000030AB000030AA000030A9000030A80015
:101174007F30AD02A0302C07F3007308AD0220309D
:10118400F3007308AC000130F3000310A80DA90D9F
:10119400AA0DAB0DF30BC72827082302031DDC2877
:1011A40026082202031DDC2825082102031DDC2851
:1011B40024082002031CDF28E028EF282408A002CA
:1011C4002508031C250FA1022608031C260FA202D2
:1011D4002708031C270FA30228140130F30003106F
:1011E400A00DA10DA20DA30DF30BF1280130AC024B
:1011F400031DFD28FE28C528AD1F012902291C292D
:101204002D08803A9F3E0318082909290A298B28AA
:1012140001300310AB0CAA0CA90CA80CFF3E031D53
:101224000B290130F3007308AD07031D1A291B298C
:101234000A29332920302D02031C212922292E2991
:101244008B280130F3000310A80DA90DAA0DAB0DD6
:10125400F30B25290130AD022D08031D3229332952
:1012640023292B08A3002A08A2002908A100280882
:10127400A0000800831203132E088039B30033083A
:10128400B8002E08B3003307B4003408BE00AD1F05
:101294004C294D294E293E143E080319522953293D
:1012A40062293E0A031D5729582960290030AE00DF
:1012B4000030AD000030AC000030AB00AD176A293F
:1012C4000030AE000030AD000030AC000030AB00A8
:1012D40032088039B3003308B8063208B300330744
:1012E400B4003408BD00B11F782979297A293D1446
:1012F4003D0803197E297F298E293D0A031D832970
:1013040084298C290030B2000030B1000030B000D4
:101314000030AF00B11796290030B2000030B100A0
:101324000030B0000030AF003D0803199A299B2912
:10133400A0293E08031D9F29A029A9290030AE0039
:101344000030AD000030AC000030AB009C2C2B080A
:10135400B3003308F30031080A168A155E220A1214
:101364008A15740883120313C4007308C300430866
:10137400B300B401B501B6013608BC003508BB00A2
:101384003408BA003308B9004408B300B401B50105
:10139400B6013608C2003508C1003408C00033085D
:1013A400BF002C08B3003308F30030080A168A156E
:1013B4005E220A128A15740883120313C400730888
:1013C400C3004308B300B401B501B6013308B9073B
:1013D400340803110318013E0319F129BA0735082B
:1013E40003110318013E0319F829BB07360803113A
:1013F4000318013E0319FF29BC074408B300B401D4
:10140400B501B6013308BF07340803110318013EC0
:1014140003190D2AC007350803110318013E0319E7
:10142400142AC107360803110318013E03191B2AA5
:10143400C2072D08B3003308F3002F080A168A15D3
:101444005E220A128A15740883120313C4007308F7
:10145400C3004308B300B401B501B6013308B907AA
:10146400340803110318013E0319392ABA07350851
:1014740003110318013E0319402ABB073608031160
:101484000318013E0319472ABC074408B300B401FA
:10149400B501B6013308BF07340803110318013E30
:1014A4000319552AC007350803110318013E03190F
:1014B4005C2AC107360803110318013E0319632A85
:1014C400C2070830B3000310B90DBA0DBB0DBC0D33
:1014D400B30B652A2C08B3003308F3002F080A164F
:1014E4008A155E220A128A15740883120313C40033
:1014F4007308C3004308B3004408B400B501B6013F
:101504003308B907340803110318013E03198B2A61
:10151400BA07350803110318013E0319922ABB07C1
:10152400360803110318013E0319992ABC072B0836
:10153400B3003308F30030080A168A155E220A1233
:101544008A15740883120313C4007308C300430884
:10155400B3004408B400B501B6013308B907340830
:1015640003110318013E0319B82ABA0735080311F9
:101574000318013E0319BF2ABB07360803110318D9
:10158400013E0319C62ABC070830B3000310B90D85
:10159400BA0DBB0DBC0DB30BC82A2B08B30033081E
:1015A400F3002F080A168A155E220A128A15740897
:1015B40083120313C4007308C3004308B300440830
:1015C400B400B501B6013308B90734080311031890
:1015D400013E0319EE2ABA07350803110318013E28
:1015E4000319F52ABB07360803110318013E031932
:1015F400FC2ABC072C08B3003308F30031080A1690
:101604008A155E220A128A15740883120313C40011
:101614007308C3004308B3004408B400B501B6011D
:101624003308BF07340803110318013E03191B2BA9
:10163400C007350803110318013E0319222BC10703
:10164400360803110318013E0319292BC2072D087C
:10165400B3003308F30030080A168A155E220A1212
:101664008A15740883120313C4007308C300430863
:10167400B3004408B400B501B6013308BF07340809
:1016840003110318013E0319482BC0073508031141
:101694000318013E03194F2BC10736080311031821
:1016A400013E0319562BC2072D08B3003308F3007B
:1016B40031080A168A155E220A128A1574088312E2
:1016C4000313C4007308C3004308B3004408B40000
:1016D400B501B60108300310B30DB40DB50DB60D48
:1016E400FF3E031D6D2B3308BF0734080311031895
:1016F400013E03197E2BC007350803110318013E70
:101704000319852BC107360803110318013E031979
:101714008C2BC2073908B3003A08B4003B08B50063
:101724003C08B60018300310B60CB50CB40CB30C5E
:10173400FF3E031D952B3308BF073408031103181C
:10174400013E0319A62BC007350803110318013EF7
:101754000319AD2BC107360803110318013E031901
:10176400B42BC2070830B3000310B90DBA0DBB0D7A
:10177400BC0DB30BB62B3E083D07B300B401B40D4A
:101784003308823EC30034080318013EFF3EC40000
:10179400E82B0130B3000310BF0DC00DC10DC20D05
:1017A400B30BCD2BBC1FD72BD82BD92B3F14013017
:1017B400B3000310B90DBA0DBB0DBC0DB30BDB2B7D
:1017C400FF30C3070318C40AFF30C407C11FEB2B43
:1017D400EC2BCB2BBD01BC1FF02BF12B0D2CFF30C0
:1017E4003905B300FF303A05B400FF303B05B500BE
:1017F4007F303C05B600360835043404330403193D
:10180400042C052C082CBD01BD0A0D2C3F1C0B2CEF
:101814000C2C0D2C052C3D080319112C122C432CD7
:101824000130BF07003003180130C007003003182F
:101834000130C107003003180130C207421C232CB9
:10184400242C432C3F08B3004008B4004108B500E1
:101854004208B6000130B700360DB60CB50CB40C16
:10186400B30CB70B2E2C3608C2003508C10034085F
:10187400C0003308BF000130C3070318C40A003096
:10188400C4074408803AFF0080307F02031D4C2CBB
:10189400FF304302031C4F2C502C5B2C7F308312EF
:1018A4000313C2008030C1000030C0000030BF000C
:1018B400902C831203134408803AFF0080307F0287
:1018C400031D662C013043020318692C6A2C762C04
:1018D400003083120313C2000030C1000030C00086
:1018E4000030BF00B801902C831203134308B300E7
:1018F4003308BE00FF30BF05FF30C0057F30C1058F
:101904000030C2053E1C872C882C892CC1173E0848
:10191400B3000310330CB4003408C2003808B30019
:101924003308C2044208AE004108AD004008AC00D0
:101934003F08AB00080083120313D700D71FA32C62
:10194400A42C532ED709D70A5708803A123E031CF9
:10195400AC2CAD2C972D0A30A2000030A300570800
:10196400F500F601F51BF6036430F3000030F400D3
:101974000A168A15B7240A128A15740883120313E7
:10198400A5007308A4000A168A157A250A128A1576
:10199400831203132208C90001300310C90DFF3E4E
:1019A400031DCF2C0310490D593E84000A168A15D5
:1019B4000A200A128A15CA000A168A150A200A126F
:1019C4008A15CB000A168A150A200A128A15CC0039
:1019D4000A168A150A200A128A15CD004D08AE008F
:1019E4004C08AD004B08AC004A08AB006430A200C0
:1019F4000030A3005708A400A501A41BA5030A16E0
:101A04008A157A250A128A15831203132208CE0036
:101A140001300310CE0DFF3E031D0B2D03104E0DA0
:101A24007D3E84000A168A150A200A128A15CF0000
:101A34000A168A150A200A128A15D0000A168A156F
:101A44000A200A128A15D1000A168A150A200A12D7
:101A54008A15D2005208B2005108B1005008B000F3
:101A64004F08AF000A128A153C210A128A15831204
:101A740003132E08D6002D08D5002C08D4002B08FB
:101A8400D3000A30F3000030F4005708F500F601E3
:101A9400F51BF6030A168A15B7240A128A15730869
:101AA40083120313C90001300310C90DFF3E031D47
:101AB400562D0310490D353E84000A168A150A2056
:101AC4000A128A15CA000A168A150A200A128A15E9
:101AD400CB000A168A150A200A128A15CC000A16A7
:101AE4008A150A200A128A15CD004D08AE004C084A
:101AF400AD004B08AC004A08AB005608B2005508CC
:101B0400B1005408B0005308AF000A128A153C21F2
:101B14000A128A15831203132E08C8002D08C70061
:101B24002C08C6002B08C500FF2F5708803A753EC5
:101B3400031C9D2D9E2D262E0A30F3000030F40048
:101B44005708F500F601F51BF6030A168A15B724A3
:101B54000A128A15730883120313C9000130031093
:101B6400C90DFF3E031DB12D0310490D353E840000
:101B74000A168A150A200A128A15CA000A168A1534
:101B84000A200A128A15CB000A168A150A200A129C
:101B94008A15CC000A168A150A200A128A15CD0065
:101BA4004D08AE004C08AD004B08AC004A08AB0031
:101BB4000A30A2000030A3005708A400A501A41B0A
:101BC400A5030A168A157A250A128A1583120313A5
:101BD4002208CE0001300310CE0DFF3E031DED2D73
:101BE40003104E0D593E84000A168A150A200A1263
:101BF4008A15CF000A168A150A200A128A15D000FF
:101C04000A168A150A200A128A15D1000A168A159C
:101C14000A200A128A15D2005208B2005108B100F3
:101C24005008B0004F08AF000A128A153C210A126E
:101C34008A15831203132E08C8002D08C7002C0828
:101C4400C6002B08C500FF2F5708C9000130031038
:101C5400C90DFF3E031D292E0310490D353E840096
:101C64000A168A150A200A128A15CA000A168A1543
:101C74000A200A128A15CB000A168A150A200A12AB
:101C84008A15CC000A168A150A200A128A15CD0074
:101C94004D08C8004C08C7004B08C6004A08C500D8
:101CA400FF2F5708803A123E031C592E5A2E442FF8
:101CB4000A30A2000030A3005708F500F601F51B16
:101CC400F6036430F3000030F4000A168A15B724D2
:101CD4000A128A15740883120313A5007308A4005A
:101CE4000A168A157A250A128A1583120313220802
:101CF400C90001300310C90DFF3E031D7C2E0310E3
:101D0400490D253E84000A168A150A200A128A15EE
:101D1400CA000A168A150A200A128A15CB000A1666
:101D24008A150A200A128A15CC000A168A150A2076
:101D34000A128A15CD004D08AE004C08AD004B08C0
:101D4400AC004A08AB006430A2000030A30057087E
:101D5400A400A501A41BA5030A168A157A250A1254
:101D64008A15831203132208CE0001300310CE0D0E
:101D7400FF3E031DB82E03104E0D493E84000A1683
:101D84008A150A200A128A15CF000A168A150A2013
:101D94000A128A15D0000A168A150A200A128A1510
:101DA400D1000A168A150A200A128A15D20052088E
:101DB400B2005108B1005008B0004F08AF000A1239
:101DC4008A153C210A128A15831203132E08D600A1
:101DD4002D08D5002C08D4002B08D3000A30F300BA
:101DE4000030F4005708F500F601F51BF6030A1657
:101DF4008A15B7240A128A15730883120313C900BB
:101E040001300310C90DFF3E031D032F0310490DBC
:101E1400013E84000A168A150A200A128A15CA008D
:101E24000A168A150A200A128A15CB000A168A1580
:101E34000A200A128A15CC000A168A150A200A12E8
:101E44008A15CD004D08AE004C08AD004B08AC001F
:101E54004A08AB005608B2005508B1005408B00057
:101E64005308AF000A128A153C210A128A158312FC
:101E740003132E08C8002D08C7002C08C6002B0821
:101E8400C500FF2F5708803A753E031C4A2F4B2F7D
:101E9400D32F0A30F3000030F4005708F500F601A0
:101EA400F51BF6030A168A15B7240A128A15730855
:101EB40083120313C90001300310C90DFF3E031D33
:101EC4005E2F0310490D013E84000A168A150A206C
:101ED4000A128A15CA000A168A150A200A128A15D5
:101EE400CB000A168A150A200A128A15CC000A1693
:101EF4008A150A200A128A15CD004D08AE004C0836
:101F0400AD004B08AC004A08AB000A30A200003018
:101F1400A3005708A400A501A41BA5030A168A154B
:101F24007A250A128A15831203132208CE0001307F
:101F34000310CE0DFF3E031D9A2F03104E0D253EB8
:101F440084000A168A150A200A128A15CF000A1676
:101F54008A150A200A128A15D0000A168A150A2040
:101F64000A128A15D1000A168A150A200A128A153D
:101F7400D2005208B2005108B1005008B0004F0816
:101F8400AF000A128A153C210A128A158312031320
:101F94002E08C8002D08C7002C08C6002B08C50051
:101FA400FF2F5708C90001300310C90DFF3E031D60
:101FB400D62F0310490D013E84000A168A150A2003
:101FC4000A128A15CA000A168A150A200A128A15E4
:101FD400CB000A168A150A200A128A15CC000A16A2
:101FE4008A150A200A128A15CD004D08C8004C082B
:0C1FF400C7004B08C6004A08C5000800E2
:10200A0083120313CD003F30AE00F930AD00993092
:10201A00AC009A30AB004D08C900CA01CB01CC0113
:10202A004C08F6004B08F5004A08F4004908F3008A
:10203A0001300A168A1587260A168A11760883122B
:10204A000313B2007508B1007408B0007308AF003A
:10205A000A128A153C210A168A11831203132E08C2
:10206A0083160313DB00831203132D08831603134D
:10207A00DA00831203132C0883160313D900831280
:10208A0003132B0883160313D8005B088312031368
:10209A00C800831603135A0883120313C700831652
:1020AA000313590883120313C6008316031358082F
:1020BA0083120313C500080083120313D8006E307D
:1020CA005802031C69286A2879293F30AE0000307B
:1020DA00AD000030AC000030AB006430A10000302D
:1020EA00A2005808C900CA014908A3004A08A40066
:1020FA000A168A1534230A168A1183120313210831
:10210A00CB0001300310CB0DFF3E031D87280310BF
:10211A004B0D7D3E84000A168A150A200A168A117A
:10212A00CC000A168A150A200A168A11CD000A1648
:10213A008A150A200A168A11CE000A168A150A205A
:10214A000A168A11CF004F08B2004E08B1004D0896
:10215A00B0004C08AF000A128A153C210A168A11EF
:10216A00831203132E08D7002D08D6002C08D50099
:10217A002B08D4000A30A1000030A2005808C90078
:10218A00CA014908F5004A08F6006430F300003035
:10219A00F4000A168A15B2220A168A1174088312E2
:1021AA000313A4007308A3000A168A1534230A1617
:1021BA008A11831203132108CB0001300310CB0DBF
:1021CA00FF3E031DE32803104B0D593E84000A16F7
:1021DA008A150A200A168A11CC000A168A150A20BC
:1021EA000A168A11CD000A168A150A200A168A11B9
:1021FA00CE000A168A150A200A168A11CF004F083D
:10220A00AE004E08AD004D08AC004C08AB005708B4
:10221A00B2005608B1005508B0005408AF000A12BF
:10222A008A153C210A168A11831203132E08D30039
:10223A002D08D2002C08D1002B08D0000A30F30058
:10224A000030F4005808C900CA014908F5004A08D4
:10225A00F6000A168A15B2220A168A117308831220
:10226A000313CB0001300310CB0DFF3E031D3829A9
:10227A0003104B0D353E84000A168A150A200A16E9
:10228A008A11CC000A168A150A200A168A11CD006C
:10229A000A168A150A200A168A11CE000A168A1503
:1022AA000A200A168A11CF004F08AE004E08AD0068
:1022BA004D08AC004C08AB005308B2005208B100FC
:1022CA005108B0005008AF000A128A153C210A16BC
:1022DA008A11831203132E08C8002D08C7002C0880
:1022EA00C6002B08C5006D2A0B305802031C7E2934
:1022FA007F292A2A3F30AE000030AD000030AC0002
:10230A000030AB000A30A1000030A2005808C90012
:10231A00CA014908A3004A08A4000A168A153423E8
:10232A000A168A11831203132108CB000130031005
:10233A00CB0DFF3E031D9C2903104B0D593E840013
:10234A000A168A150A200A168A11CC000A168A1554
:10235A000A200A168A11CD000A168A150A200A16B8
:10236A008A11CE000A168A150A200A168A11CF0087
:10237A004F08B2004E08B1004D08B0004C08AF003B
:10238A000A128A153C210A168A11831203132E088F
:10239A00D7002D08D6002C08D5002B08D4000A3007
:1023AA00F3000030F4005808C900CA014908F500D2
:1023BA004A08F6000A168A15B2220A168A11730802
:1023CA0083120313CB0001300310CB0DFF3E031D14
:1023DA00E92903104B0D353E84000A168A150A2096
:1023EA000A168A11CC000A168A150A200A168A11B8
:1023FA00CD000A168A150A200A168A11CE000A1674
:10240A008A150A200A168A11CF004F08AE004E0814
:10241A00AD004D08AC004C08AB005708B200560896
:10242A00B1005508B0005408AF000A128A153C21C1
:10243A000A168A11831203132E08C8002D08C70032
:10244A002C08C6002B08C5006D2A3F30AE000030AC
:10245A00AD000030AC000030AB005808C9000130B4
:10246A000310C90DFF3E031D352A0310490D353EE1
:10247A0084000A168A150A200A168A11CA000A1640
:10248A008A150A200A168A11CB000A168A150A200A
:10249A000A168A11CC000A168A150A200A168A1107
:1024AA00CD004D08B2004C08B1004B08B0004A08F4
:1024BA00AF000A128A153C210A168A1183120313E5
:1024CA002E08C8002D08C7002C08C6002B08C50016
:1024DA000800831203135C088039E1006108E900EF
:1024EA005C08E1006107E2006208EB00DB1F7E2A5C
:1024FA007F2A802A6B146B080319842A852A952A55
:10250A006B0A031D892A8A2A922A0030DC000030CD
:10251A00DB000030DA000030D900DB17DC019D2A2D
:10252A000030DC000030DB000030DA000030D90077
:10253A0060088039E1006108EA006A08690603193F
:10254A00A72AA82AA92A69176008E1006107E200F8
:10255A006208EA00DF1FB22AB32AB42A6A146A0898
:10256A000319B82AB92AC92A6A0A031DBD2ABE2A2A
:10257A00C62A0030E0000030DF000030DE00003004
:10258A00DD00DF17E001D12A0030E0000030DF0073
:10259A000030DE000030DD006B086A020318D62A1C
:1025AA00D72A1B2B691FDA2ADB2ADF2A8030E100AF
:1025BA006108E9066B08E1006108EC006A08E100BD
:1025CA006108EB006C08E1006108EA005908E100C3
:1025DA006108EC005D08E1006108D9006C08E100BF
:1025EA006108DD005A08E1006108EC005E08E100BC
:1025FA006108DA006C08E1006108DE005B08E100AE
:10260A006108EC005F08E1006108DB006C08E1008A
:10261A006108DF005C08E1006108EC006008E10085
:10262A006108DC006C08E1006108E000EC016A085E
:10263A00E100E2016208E4006B086102E300031CA6
:10264A00E4036408803AFF0080307F02031D2F2BC9
:10265A001A306302031C322B332B702B83120313A1
:10266A005C085B045A045904031D3C2B3E2B0130C1
:10267A003F2B0030E1006108EC000030DC00003044
:10268A00DB000030DA000030D9006A08E100610896
:10269A00EB00782B6C1C522B532B5C2B6C08E10043
:1026AA000310610C0138E2006208EC005E2B031093
:1026BA00EC0C591C612B622B632BEC170130E100E7
:1026CA005C0DDC0CDB0CDA0CD90CE10B652B013050
:1026DA00E1006108EB07831203136A086B02031C0B
:1026EA00772B782B4F2B691B7B2B7C2BC72B6B08EB
:1026FA00031D802B812B8A2B0030DC000030DB008D
:10270A000030DA000030D900F52C5D08D9075E08E0
:10271A0003110318013E0319932BDA075F0803110B
:10272A000318013E03199A2BDB07600803110318EB
:10273A00013E0319A12BDC075C1CA42BA52B7B2CC7
:10274A006C1CA82BA92BB22B6C08E1000310610C9E
:10275A000138E2006208EC00B42B0310EC0C591C9F
:10276A00B72BB82BB92BEC170130E1005C0DDC0C50
:10277A00DB0CDA0CD90CE10BBB2B0130E100610850
:10278A00EB077B2C5C08803AFF006008803A7F02E6
:10279A00031DD92B5F085B02031DD92B5E085A0261
:1027AA00031DD92B5D0859020318DC2BDD2B352CB0
:1027BA00FF30E100FF30E200FF30E300FF30E400C9
:1027CA005D08E5005E08E6005F08E7006008E800CB
:1027DA005908E5025A08031C5A0FF42BF52BE60296
:1027EA005B08031C5B0FFA2BFB2BE7025C08031C3C
:1027FA005C0F002C012CE8026508E1076608031843
:10280A00660F082C092CE20767080318670F0E2CBD
:10281A000F2CE30768080318680AE4076408DC0059
:10282A006308DB006208DA006108D9008030E10041
:10283A006108E906EC09EC0A6C08031D252C262C14
:10284A00432C0130D907003003180130DA07003071
:10285A0003180130DB07003003180130DC07432C72
:10286A005D08D9025E08031C5E0FDA025F08031CCA
:10287A005F0FDB026008031C600FDC025C085B046C
:10288A005A045904031D4A2C4B2C772C6C08031D3F
:10289A004F2C502C772C0030DC000030DB0000304D
:1028AA00DA000030D900F52C0130E1000310D90D0F
:1028BA00DA0DDB0DDC0DE10B5B2CEC1F652C662CB5
:1028CA00672C59146C1C6A2C6B2C6E2C0314EC0D9F
:1028DA00702C0310EC0D6B080319742C752C772CD3
:1028EA000130EB02DB1F7A2C7B2C592CEA01EC1FFE
:1028FA007F2C802C8E2C6C087F390319852C862C12
:10290A00892CEA01EA0A8E2C591C8C2C8D2C8E2CCF
:10291A00862C6A080319922C932CC72C0130D907EC
:10292A00003003180130DA07003003180130DB07E2
:10293A00003003180130DC075C1CA42CA52CC72C22
:10294A005908E1005A08E2005B08E3005C08E40069
:10295A000130E500640DE40CE30CE20CE10CE50B3C
:10296A00AF2C6408DC006308DB006208DA00610847
:10297A00D9006B0A0319C22CC32CC72C0130E10001
:10298A006108EB076B0A0319CB2CCC2CD12C6B08F2
:10299A00031DD02CD12CDF2C0030DC000030DB00F2
:1029AA000030DA000030D9006B08031DDD2CDE2C64
:1029BA00DF2CE9016B1CE22CE32CE52CDB17E92C5C
:1029CA007F30E1006108DB056B08E1000310610C50
:1029DA00E2006208DC00E91FF32CF42CF52CDC176A
:1029EA00080083160313C900A930AD002D08B600EC
:1029FA000A128A119C2E25304C060319052D062D24
:102A0A00122D4C08AD00490884002D088317800058
:102A1A000130AD002D08C907FD2CB901BA01B70173
:102A2A00B801280884000A168A150A200A168A118B
:102A3A000A168A15D8210A168A11031C252D262D55
:102A4A00662D83160313B901BA010A30F300003068
:102A5A00F400831603133A08F6003908F5000A163B
:102A6A008A1587220A168A11740883160313BA0074
:102A7A007308B900280884000A168A150A200A165B
:102A8A008A11D03EAD00FF3003180030AE002D0889
:102A9A00B9070318BA0A2E08BA070130AD002D0883
:102AAA00A807280884000A168A150A200A168A1115
:102ABA000A168A15D8210A168A110318652D662D59
:102ACA002A2D83160313280884000A168A150A2059
:102ADA000A168A112E3A031D732D742DB92D381733
:102AEA000130AD002D08A807CA01CB01A82D0A3074
:102AFA00F3000030F400831603134B08F6004A086B
:102B0A00F5000A168A1587220A168A11740883168E
:102B1A000313CB007308CA00280884000A168A1512
:102B2A000A200A168A11D03EAD00FF300318003081
:102B3A00AE002D08CA070318CB0A2E08CB070130AE
:102B4A00AD002D08A807280884000A168A150A204D
:102B5A000A168A110A168A15D8210A168A11031822
:102B6A00B72DB82D7C2DBF2DCA01CB013816BF2D2C
:102B7A003815E12D013083160313A807FF30280703
:102B8A0084000A168A150A200A168A11CC00AD009A
:102B9A00AE012E08003A0319D32DFD2C2D08003A58
:102BAA000319FD2F643A0319E12D023A0319BD2DC9
:102BBA000F3A0319E12DFD2C00303705AD0007301F
:102BCA003805AE002D082E040319EC2DEF2D0A123C
:102BDA008A11ED2C381EF22DF32DF72D0630CA007E
:102BEA000030CB003608840083130008C500840A2D
:102BFA000008C600840A0008C700840A0008C80042
:102C0A000430AD002D08B607480883120313A30049
:102C1A0083160313470883120313A20083160313B0
:102C2A00460883120313A10083160313450883126F
:102C3A000313A0000030A7000030A6000030A50052
:102C4A000030A4000A168A15E3250A168A11031809
:102C5A002F2E302E4D2E831603134808F6004708F0
:102C6A00F5004608F4004508F3000A168A159D2166
:102C7A000A168A11760883160313C8007508C70056
:102C8A007408C6007308C5000330B7040030B804DE
:102C9A0083160313C301C401480883120313A30054
:102CAA0083160313470883120313A2008316031320
:102CBA00460883120313A1008316031345088312DF
:102CCA000313A0000030A7000030A6000030A500C2
:102CDA000030A4000A168A15C1230A168A1103189D
:102CEA00772E782E942F031083160313470D480D61
:102CFA00823EC300FF3003180030C400FF30C30710
:102D0A000318C40AFF30C4070330F3000030F4008C
:102D1A004408F6004308F5000A168A1587220A169F
:102D2A008A11740883160313C4007308C3000A3097
:102D3A0083120313A2000030A3008316031344086E
:102D4A0083120313A5008316031343088312031384
:102D5A00A4000A168A157A250A168A118312031301
:102D6A00230883160313C40083120313220883164D
:102D7A000313C300C41FC22EC32EC92EFF30C307BC
:102D8A000318C40AFF30C4074303FF3A0A128A151C
:102D9A009D240A168A118312031348088316031303
:102DAA00BE0083120313470883160313BD00831260
:102DBA000313460883160313BC0083120313450842
:102DCA0083160313BB00480883120313AE0083164D
:102DDA000313470883120313AD008316031346082F
:102DEA0083120313AC0083160313450883120313DB
:102DFA00AB00831603133E0883120313B200831633
:102E0A0003133D0883120313B100831603133C080E
:102E1A0083120313B000831603133B0883120313B0
:102E2A00AF000A128A153C210A168A11831203136B
:102E3A002E0883160313BE00831203132D0883166C
:102E4A000313BD00831203132C0883160313BC005B
:102E5A00831203132B0883160313BB003E08831245
:102E6A000313A300831603133D0883120313A2005E
:102E7A00831603133C0883120313A100831603135A
:102E8A003B0883120313A0003F30A7008030A6003E
:102E9A000030A5000030A4000A168A15E3250A1698
:102EAA008A110318592F5A2F632FFF3083160313E1
:102EBA00C3070318C40AFF30C407942F83160313E9
:102ECA003E0883120313A300831603133D088312DB
:102EDA000313A200831603133C0883120313A100F1
:102EEA00831603133B0883120313A0004130A70083
:102EFA002030A6000030A5000030A4000A168A156A
:102F0A00E3250A168A11031C8B2F8C2F942F01306C
:102F1A0083160313C3070318C40A0030C4078316B1
:102F2A0003134B08803AFF0080307F02031D9F2F56
:102F3A000D304A020318A22FA32FEA2F8316031378
:102F4A004A080A168A1161200A168A118312031383
:102F5A004808DC004708DB004608DA004508D900C3
:102F6A0083160313480883120313E000831603131E
:102F7A00470883120313DF008316031346088312DC
:102F8A000313DE0083160313450883120313DD00BF
:102F9A000A168A116E220A168A11831203135C0812
:102FAA0083160313C800831203135B0883160313E3
:102FBA00C700831203135A0883160313C600831229
:102FCA000313590883160313C50083160313440811
:102FDA00803AFF0080307F02031DF52F0A3043023A
:102FEA000318FA2F0A128A1133280A128A11922810
:102FFA000A128A11B02EFF1B0A2883137F1883171F
:10300A000008840A0319FF0A080018308A00040815
:10301A00840A820700340034003480343F34003498
:10302A0000342034413400340034C834423400348B
:10303A0000347A344434003440341C344634003486
:10304A005034C3344734003424347434493480341B
:10305A00963418344B342034BC34BE344C342834BF
:10306A006B346E344E34F934023415345034EC3443
:10307A007834AD346034CA34F234493471340034AB
:10308A00003480343F34CD34CC34CC343D340A342B
:10309A00D73423343C346F34123483343A341734FB
:1030AA00B734D1343834AC34C53427343734BD342A
:1030BA003734863435349534BF34D63433347734A0
:1030CA00CC342B3432345F34703489343034FF34A6
:1030DA00E634DB342E340834E5343C341E346034B0
:1030EA004234A2340D3401340034003400340A343A
:1030FA000034003400346434003400340034E834DA
:10310A000334003400341034273400340034A0343B
:10311A00863401340034403442340F34003480346D
:10312A009634983400340034E134F53405340034EC
:10313A00CA349A343B34533431343A342034203448
:10314A002034533432343A34203420342034203476
:10315A00533433343A340034253433342E3432344D
:0C316A00663443340034253464340034EF
:1032E800F30073088312031388000800831603137E
:1032F800141C7F2980297A29080064008001840A27
:10330800040603190034040682290A168A157A214C
:103318000A168A158312031313080800831203136D
:1033280018161811831603138C168312031398109A
:10333800080076087504740473040319A429A529E0
:10334800A7298030F606080000300A168A150022E0
:103358000A168A1501300A168A1500220A168A15D5
:1033680008008316031318129816181183160317EA
:1033780087151930831603139900831203139817BE
:103388008B17080083160313880190308700890182
:1033980086010330831603178800831203138701FD
:1033A8008801890186010800F400F3013A307402AB
:1033B8000318DF29E029E82930307402031CE529C5
:1033C800E629E829F301F30A730C0800F6008316CE
:1033D80003138712761DF129F229F629750894003E
:1033E8008715FA2973087504940087117608740400
:1033F8008312031394000800F600831203130910C4
:1034080076080A168A1574210A168A158312031378
:1034180089140B30F5006230F400F40B112AF50B17
:10342800112A000083120313891008008312031362
:103438008C1E1F2A202A312A981C232A242A2B2A48
:103448001812C730F000F00B272A2A2A312A1A0846
:10345800F000700883160313E10072088A00710EE9
:103468008300FE0E7E0E090083120313A1002103C0
:10347800031D3F2A402A4C2A77087F3EA0002008D7
:10348800A20022080A168A1500220A168A155D2A41
:1034980002302106031D512A522A5D2A7708BF3EB1
:1034A800A0002008A20022080A168A1500220A167F
:1034B8008A15080083120313A400A001A101730850
:1034C800F500F6017508A2007608A300241C6D2AF1
:1034D8006E2A742A2208A0070318A10A2308A10744
:1034E80001300310A20DA30DFF3E031D752A031022
:1034F800A40C2408031D812A822A6A2A2108F400C0
:103508002008F300080083120313A001A101731C13
:103518008E2A8F2A972A750883120313A007031887
:10352800A10A7608A10701300310F50DF60DFF3E3C
:10353800031D982A01300310F40CF30CFF3E031D01
:103548009F2A73087404031DAA2AAB2A8B2A8312A4
:1035580003132108F4002008F3000800730874041A
:103568000319B72AB82AE92A83120313A001A00A6B
:10357800C82A01300310F30DF40DFF3E031DBE2AC7
:103588000130F7007708A007F41FCB2ACC2ABD2A00
:1035980074087602031DD22A73087502031CD52A03
:1035A800D62ADC2A7308F5027408031CF603F6020F
:1035B80001300310F40CF30CFF3E031DDD2A01302B
:1035C800A002031DE82AE92ACC2A7608F400750827
:1035D800F300080083120313A301A401172B230887
:1035E8007607A1007708A0000318A00AA31FFD2AE8
:1035F800A003831203132008A2002208FF00210859
:1036080084000A168A1500200A168A150A128A11D9
:10361800E3270A168A15013083120313A307031838
:10362800A40A0030A40723087607A1007708A000A1
:103638000318A00AA31F212BA00383120313200839
:10364800A2002208FF00210884000A168A1500201B
:103658000A168A15003A031D322B332BF32A080069
:1036680083120313A701A8012108220403193D2B83
:103678003E2B752BA601A60A4C2B01300310A10D79
:10368800A20DFF3E031D422B0130A5002508A60709
:10369800A21F4F2B502B412B01300310A70DA80D53
:1036A800FF3E031D512B22082402031D5D2B210818
:1036B8002302031C602B612B682B2108A30222081C
:1036C800031CA403A402271401300310A20CA10CAC
:1036D800FF3E031D692B0130A602031D742B752BB9
:1036E800502B2808A2002708A100080000300A165D
:1036F8008A1574210A168A15343083120313A1001F
:10370800F130A000A00B862BA10B862B3F300A16A8
:103718008A1500220A168A151A3083120313A1008B
:10372800F730A000A00B962BA10B962B9B2B3F30BC
:103738000A168A1500220A168A1584308312031382
:10374800A000A00BA52B00003F300A168A15002206
:103758000A168A1538300A168A1500220A168A159A
:103768000C300A168A1500220A168A1506300A161F
:103778008A1500220A168A150800003083120313DE
:103788002005F30000302105F40080302205F50003
:103798007F302305F6007608750474047304031D4E
:1037A800D62BD72BDF2B0030A3000030A20000302F
:1037B800A1000030A00000302405F30000302505EA
:1037C800F40080302605F5007F302705F6007608DE
:1037D800750474047304031DF22BF32BFB2B0030C8
:1037E800A7000030A6000030A5000030A40027087C
:1037F8002306031D092C26082206031D092C25086B
:103808002106031D092C2408200603190C2C0D2C55
:103818000F2C0310102C0314080080308316031398
:10382800A306270883120313DC0083160313260854
:1038380083120313DB008316031325088312031373
:10384800DA0083160313240883120313D90083169E
:103858000313230883120313E000831603132208BB
:1038680083120313DF008316031321088312031343
:10387800DE0083160313200883120313DD000A16E3
:103888008A116E220A168A15831203135C0883169E
:103898000313A300831203135B0883160313A20008
:1038A800831203135A0883160313A1008312031308
:1038B800590883160313A000080083120313300865
:1038C8002F042E042D0403196A2C6B2CAE2CF50141
:1038D800F50A7B2C0130F4000310AD0DAE0DAF0DD1
:1038E800B00DF40B702C0130F4007408F507B01F0C
:1038F8007E2C7F2C6E2C30083402031D8D2C2F0853
:103908003302031D8D2C2E083202031D8D2C2D0829
:103918003102031C902C912C9F2C2D08B1022E08EB
:10392800031C2E0FB2022F08031C2F0FB3023008FE
:10393800031C300FB40201300310B00CAF0CAE0CF6
:10394800AD0CFF3E031DA02C0130F502031DAD2C6C
:10395800AE2C7F2C3408B0003308AF003208AE001C
:103968003108AD00080083120313A101F61FBD2C16
:10397800BE2CC52CF509F609F50A0319F60AA101AA
:10398800A10AF41FC82CC92CCE2CF309F409F30A98
:103998000319F40A730874040319D32CD42C032DC7
:1039A800A001A00AE22C01300310F30DF40DFF3E34
:1039B800031DD82C0130F7007708A007F41FE52C69
:1039C800E62CD72C74087602031DEC2C73087502BC
:1039D800031CEF2CF02CF62C7308F5027408031C5A
:1039E800F603F60201300310F40CF30CFF3E031D3E
:1039F800F72C0130A002031D022D032DE62C21080F
:103A08000319072D082D0D2DF509F609F50A0319D7
:103A1800F60A7608F4007508F300080000308312EF
:103A28000313AB000030AA000030A9000030A80042
:103A380023082204210420040319232D242D712D89
:103A4800AC01AC0A342D0130F3000310A00DA10D18
:103A5800A20DA30DF30B292D0130F3007308AC0759
:103A6800A31F372D382D272D0130F3000310A80D83
:103A7800A90DAA0DAB0DF30B3A2D23082702031D40
:103A88004F2D22082602031D4F2D21082502031D54
:103A98004F2D20082402031C522D532D622D20087F
:103AA800A4022108031C210FA5022208031C220FCF
:103AB800A6022308031C230FA702281401300310B1
:103AC800A30CA20CA10CA00CFF3E031D632D01301A
:103AD800AC02031D702D712D382D2B08A3002A0868
:103AE800A2002908A1002808A000080083120313D7
:103AF800A801A31F802D812D882DA209A309A20A40
:103B08000319A30AA801A80AA51F8B2D8C2D952D92
:103B1800A409A509A40A0319A50A0130A6002608C4
:103B2800A806A901AA012208230403199C2D9D2D8A
:103B3800D42DA701A70AAB2D01300310A20DA30DA8
:103B4800FF3E031DA12D0130A6002608A707A31FCD
:103B5800AE2DAF2DA02D01300310A90DAA0DFF3EEB
:103B6800031DB02D23082502031DBC2D22082402A5
:103B7800031CBF2DC02DC72D2208A4022308031C37
:103B8800A503A502291401300310A30CA20CFF3EC3
:103B9800031DC82D0130A702031DD32DD42DAF2D31
:103BA80028080319D82DD92DDE2DA909AA09A90A93
:103BB8000319AA0A2A08A3002908A200080000304D
:103BC800831203132005F30000302105F400803030
:103BD8002205F5007F302305F60076087504740485
:103BE8007304031DF82DF92D012E0030A3000030B9
:103BF800A2000030A1000030A00000302405F3002E
:103C080000302505F40080302605F5007F302705B3
:103C1800F6007608750474047304031D142E152E1B
:103C28001D2E0030A7000030A6000030A50000308F
:103C3800A400A31F202E212E452E0030F3000030B3
:103C4800F4000030F5008030F6002008F302210867
:103C5800031C210F302E312EF4022208031C220FE0
:103C6800362E372EF5022308031C230F3C2E3D2E3B
:103C7800F6027608A3007508A2007408A10073086C
:103C8800A000A71F482E492E6D2E0030F3000030EB
:103C9800F4000030F5008030F6002408F30225080F
:103CA800031C250F582E592EF4022608031C260F34
:103CB8005E2E5F2EF5022708031C270F642E652E43
:103CC800F6027608A7007508A6007408A500730810
:103CD800A4008030A3068030A70627082302031D0E
:103CE8007F2E26082202031D7F2E25082102031D90
:103CF8007F2E240820020318822E832E852E03107F
:103D0800862E0314080083120313A4002408031941
:103D18008E2E8F2EA32EF61F922E932EA32E73096E
:103D2800A6007409A7007509A8007609A900A60AC3
:103D38000319A70A0319A80A0319A90AAB2E7608BA
:103D4800A9007508A8007408A7007308A6007608DB
:103D5800750474047304031DB22EB32EBC2E0030F8
:103D6800F6000030F5000030F4000030F300422F78
:103D78009630A0002008A500CE2E0130A000200813
:103D8800A50701300310A90CA80CA70CA60CFF3E30
:103D9800031DC62EFE302905031DD32ED42EC12E99
:103DA800F02E0130A0002008A5070130A60700303A
:103DB80003180130A707003003180130A8070030A6
:103DC80003180130A90701300310A90CA80CA70C8F
:103DD800A60CFF3E031DE82EFF302905031DF52E16
:103DE800F62ED52E022F0130A5020130A0000310B7
:103DF800A60DA70DA80DA90DA00BFB2EA81B052F1E
:103E0800062F0C2F0230250203180B2F0C2FF72E2C
:103E180025180F2F102F182FFF30A605FF30A705E4
:103E28007F30A805FF30A9050310A50C2508A000C0
:103E3800A101A201A30118300310A00DA10DA20D2C
:103E4800A30DFF3E031D202F2008A6042108A70468
:103E58002208A8042308A90424080319342F352F9D
:103E68003A2FF61F382F392F3A2FA9172908F600AD
:103E78002808F5002708F4002608F3000800831234
:103E880003132008F3002108F4002208F5000310AA
:103E9800740D750DF6007608AD002D08031D552F1D
:103EA800562F5F2F0030A3000030A2000030A10081
:103EB8000030A000FF2F2408F3002508F40026088E
:103EC800F5000310740D750DF6007608AC002C088B
:103ED800031D6F2F702F712F562FA117FF30A005CC
:103EE800FF30A1050030A205A517FF30A405FF305B
:103EF800A5050030A6050030AB000030AA00003050
:103F0800A9000030A8007F30AD0298302C07F300DC
:103F18007308AD021830F3007308AC000130F300E9
:103F28000310A80DA90DAA0DAB0DF30B942F2608AD
:103F38002202031DA52F25082102031DA52F2408F1
:103F48002002031CA82FA92FB42F2408A00225089B
:103F5800031C250FA1022608031C260AA202281406
:103F680001300310A00DA10DA20DFF3E031DB52FBA
:103F78000130AC02031DC12FC22F922FAD1FC52FD8
:103F8800C62FE02F2D08803A973E0318CC2FCD2F4F
:103F9800CE2F562F01300310AB0CAA0CA90CA80C7D
:103FA800FF3E031DCF2F0130F3007308AD07031D3B
:103FB800DE2FDF2FCE2FF72F18302D02031CE52F11
:103FC800E62FF22F562F0130F3000310A80DA90D8C
:103FD800AA0DAB0DF30BE92F0130AD022D08031D1F
:103FE800F62FF72FE72F2B08A3002A08A20029088D
:083FF800A1002808A000080048
:04400E00D520FF3F7B
:00000001FF
