:020000040000FA
:060000000A128A110C280F
:10000800FE00030EF1000A08F2000A168A15B52947
:100018000A128A110F280A168A1103200A128A1155
:10002800F8000A168A1104200A128A11F9008313AB
:10003800CD308400EE300A168A1531210A128A1151
:10004800ED01FA0183010A168A15752E831603132A
:10005800480883120313A300831603134708831267
:100068000313A20083160313460883120313A10087
:1000780083160313450883120313A0000030A7005A
:100088000030A6000030A5000030A4000A168A152A
:100098005C230A128A11031852285328352983161B
:1000A8000313480883120313DB008316031347085E
:1000B80083120313DA00831603134608831203130B
:1000C800D90083160313450883120313D8000A12B4
:1000D8008A116A270A128A11831203135B085A04C9
:1000E80059045804031D79287A28352983160313DF
:1000F8004408803AFF0080307F02031D85280230C3
:100108004302031C882889283529831603133E08CF
:1001180083120313A300831603133D0883120313EA
:10012800A200831603133C0883120313A10083164D
:1001380003133B0883120313A0004030A700893043
:10014800A6007030A5005F30A4000A168A15152590
:100158000A128A110318B128B228BB28F73083166F
:100168000313C3070318C40AFF30C407C328F830B1
:1001780083160313C3070318C40AFF30C4074308D0
:100188000A128A159D240A128A1183120313480839
:1001980083160313BE008312031347088316031341
:1001A800BD0083120313460883160313BC00831291
:1001B8000313450883160313BB004808831203136F
:1001C800A30083160313470883120313A2008316A0
:1001D8000313460883120313A1008316031345086B
:1001E80083120313A000831603133E08831203131C
:1001F800A700831603133D0883120313A600831672
:1002080003133C0883120313A500831603133B084A
:1002180083120313A4000A128A11AC260A128A1147
:1002280083120313230883160313C20083120313D4
:10023800220883160313C1008312031321088316AF
:100248000313C00083120313200883160313BF008F
:100258000030C8000030C7000030C6000030C500BC
:100268009B2983160313480883120313DB008316A4
:100278000313470883120313DA008316031346088F
:1002880083120313D900831603134508831203133B
:10029800D8000A128A116A270A128A1183120313D4
:1002A8005B0883160313C200831203135A088316CC
:1002B8000313C10083120313590883160313C000E4
:1002C80083120313580883160313BF004208F6006D
:1002D8004108F5004008F4003F08F30000300A1612
:1002E8008A15B9250A128A11760883160313A30002
:1002F8007508A2007408A1007308A0004808A700A8
:100308004708A6004608A5004508A4000A168A154D
:10031800AC230A128A11831603132308C800220883
:10032800C7002108C6002008C500C301C401CC01CC
:10033800CC0A4C08AD0001300310AD0DFF3E031D83
:10034800A02903102D0D693E84000A168A150A207B
:100358000A128A11AE000A168A150A200A128A1190
:10036800AF000A168A150A200A128A11B0000A1666
:100378008A150A200A128A11B10031084202031DA7
:10038800CF2930084102031DCF292F084002031D41
:10039800CF292E083F020318D229D329D429DE29D0
:1003A8000130AD002D08CC070A304C06031DDD29AD
:1003B800DE299D294C084A07AD004B0803184B0A53
:1003C800AE0043082D07AF0044080318440A2E075F
:1003D800B0002F08B9023008031CBA03BA024A0851
:1003E8004B040319F829F929FF29FF30B907031825
:1003F800BA0AFF30BA0703303705AD0000303805B8
:10040800AE002D082E0403190A2A0B2A202AFF30D1
:10041800B9070318BA0AFF30BA07202A2030831612
:100428000313AD00490884002D08831380000130B0
:10043800AD002D08C9070B2A3A08803AFF00803022
:100448007F02031D292A0130390203182C2A2D2A7C
:10045800122A0330831603133705AD000030380520
:10046800AE002D082E0403193A2A3B2AED2A2D3016
:10047800AD00490884002D08831380000130AD00C9
:100488002D08C907ED2A4C08AD0001300310AD0D49
:10049800FF3E031D4A2A03102D0D693E84000A16EB
:1004A8008A150A200A128A1183120313A0000A1659
:1004B8008A150A200A128A11A1000A168A150A202A
:1004C8000A128A11A2000A168A150A200A128A112B
:1004D800A30083160313420883120313A70083168D
:1004E8000313410883120313A6008316031340085D
:1004F80083120313A500831603133F088312031303
:10050800A4000A168A15AD240A128A11831203134D
:10051800230883160313BE008312031322088316CD
:100528000313BD0083120313210883160313BC00B1
:1005380083120313200883160313BB0000308312B1
:100548000313B0000030AF000030AE000A30AD0039
:10055800831603133E0883120313B4008316031390
:100568003D0883120313B300831603133C08831258
:100578000313B200831603133B0883120313B1005D
:100588000A168A15FC230A128A11831203133008EB
:1005980083160313BE00831203132F088316031355
:1005A800BD00831203132E0883160313BC008312A5
:1005B80003132D0883160313BB003B08303EAD0020
:1005C800490884002D08831380000130AD002D08F0
:1005D800C9070130CC024C0A031DF32AF42A472A22
:1005E800082B303083160313AD00490884002D080A
:1005F800831380000130AD002D08C907FF30C30701
:100608000318C40AFF30C4074408803AFF0080304A
:100618007F02031D112B013043020318142B152BE5
:10062800F52A831603134B08803AFF0080307F02B7
:10063800031D202B09304A02031C232B242B2B2BB0
:10064800083083160313AD002D08CC00312B831618
:1006580003134A08AD002D08CC004C08AD00AE01CC
:100668002D08CA022E08031CCB03CB024C08031921
:100678003E2B3F2B4A2B2E30AD00490884002D0815
:10068800831380000130AD002D08C9074C080A12F9
:100698008A159D240A128A118312031348088316A7
:1006A8000313B50083120313470883160313B4001A
:1006B80083120313460883160313B300831203132C
:1006C800450883160313B200350883120313B200DA
:1006D80083160313340883120313B100831603131C
:1006E800330883120313B0008316031332088312EE
:1006F8000313AF0083160313480883120313AE00D5
:1007080083160313470883120313AD0083160313DC
:10071800460883120313AC0083160313450883129B
:100728000313AB000A128A153C210A128A1183129C
:1007380003132E08DB002D08DA002C08D9002B083B
:10074800D8000A128A116A270A128A11831203131F
:100758005B0883160313C200831203135A08831617
:100768000313C10083120313590883160313C0002F
:1007780083120313580883160313BF00C42C4C08B4
:10078800AD0001300310AD0DFF3E031DC62B031055
:100798002D0D693E84000A168A150A200A128A114C
:1007A80083120313A0000A168A150A200A128A1156
:1007B800A1000A168A150A200A128A11A2000A162E
:1007C8008A150A200A128A11A30083160313420805
:1007D80083120313A700831603134108831203131C
:1007E800A60083160313400883120313A50083167B
:1007F80003133F0883120313A4000A168A15AD24B5
:100808000A128A1183120313230883160313BE00E6
:1008180083120313220883160313BD0083120313E4
:10082800210883160313BC008312031320088316C0
:100838000313BB00003083120313B0000030AF0075
:100848000030AE000A30AD00831603133E08831251
:100858000313B400831603133D0883120313B30074
:10086800831603133C0883120313B2008316031381
:100878003B0883120313B1000A168A15FC230A12D7
:100888008A1183120313300883160313BE008312E0
:1008980003132F0883160313BD00831203132E08B6
:1008A80083160313BC00831203132D088316031346
:1008B800BB003B08303EAD00490884002D08831377
:1008C80080000130AD002D08C9074C08AD0001308B
:1008D8000310AD0DFF3E031D6C2C03102D0D693E5A
:1008E80084000A168A150A200A128A118312031331
:1008F800AD000A168A150A200A128A11AE000A16D5
:100908008A150A200A128A11AF000A168A150A20C7
:100918000A128A11B00083160313420883120313C4
:10092800B40083160313410883120313B30083161C
:100938000313400883120313B200831603133F08FE
:1009480083120313B1000A168A15FC230A128A11AE
:1009580083120313300883160313C2008312031390
:100968002F0883160313C100831203132E0883165E
:100978000313C000831203132D0883160313BF004B
:100988000130CC024C0A031DCA2CCB2CC32BDD2C06
:100998003030AD00490884002D08831380000130F1
:1009A800AD002D08C907FF30CA070318CB0AFF306E
:1009B800CB074A084B04031DE22CE32CCC2C932EC6
:1009C8003608840083130008AD00840A0008AE00CE
:1009D8002D08BF002E08C0000030C01BFF30C1002A
:1009E800C2000230AD002D08B607C21FFC2CFD2C3A
:1009F8000C2D0330B7040030B804BF09C009C10981
:100A0800C209BF0A0319C00A0319C10A0319C20A95
:100A18004A084B04031D112D122D202D42084104B4
:100A280040043F04031D192D1A2D202D0130CA073B
:100A38000318CB0A0030CB07CC01CC0A4C08AD0018
:100A480001300310AD0DFF3E031D252D03102D0DA4
:100A5800693E84000A168A150A200A128A11AE0015
:100A68000A168A150A200A128A11AF000A168A1570
:100A78000A200A128A11B0000A168A150A200A12D8
:100A88008A11B10031084202031D542D3008410279
:100A9800031D542D2F084002031D542D2E083F021C
:100AA8000318572D582D592D632D0130AD002D08F1
:100AB800CC070A304C06031D622D632D222D4B08EE
:100AC800803A803C031D6A2D4A084C0203186D2D9C
:100AD8006E2D752D831603134A08AD002D08CC0022
:100AE8008D2D831603134B08803AAD0080302D02FC
:100AF800031D802D4C084A020318832D842D8D2D4B
:100B0800831603134C08AD00AE012D08CA002E0849
:100B1800CB008316031339083A040319942D952D35
:100B2800A72D03303705AD0000303805AE002D087D
:100B38002E040319A02DA12DA72DFF30B9070318E6
:100B4800BA0AFF30BA07381FAA2DAB2DC62D4B089D
:100B5800803AAD003A08803A2D02031DB52D3908B8
:100B68004A020318B82DB92DC22D831603134A085B
:100B7800B9024B08031CBA03BA02C62D8316031325
:100B8800B901BA013A08803A803C031DCD2D3908D5
:100B98004C020318D02DD12DDD2D831603134C08DC
:100BA800AD00AE012D08B9022E08031CBA03BA0223
:100BB800E12D83160313B901BA0139083A04031960
:100BC800E62DE72DFE2D2030AD00490884002D08C4
:100BD800831380000130AD002D08C907FF30B90725
:100BE8000318BA0AFF30BA0739083A04031DFD2D65
:100BF800FE2DE72D03303705AD0000303805AE0077
:100C08002D082E040319092E0A2E852E2D30AD002D
:100C1800490884002D08831380000130AD002D0899
:100C2800C907852E003083120313B0000030AF00CF
:100C38000030AE000A30AD00831603134A08AD0039
:100C480001300310AD0DFF3E031D252E03102D0DA1
:100C5800693E84000A168A150A200A128A1183122C
:100C68000313A0000A168A150A200A128A11A10085
:100C78000A168A150A200A128A11A2000A168A156B
:100C88000A200A128A11A30083160313420883124A
:100C98000313A70083160313410883120313A60046
:100CA80083160313400883120313A5008316031346
:100CB8003F0883120313A4000A168A15AD240A12EA
:100CC8008A11831203132308B4002208B3002108F1
:100CD800B2002008B1000A168A15FC230A128A11EC
:100CE800831203132D08303E83160313AE002E081B
:100CF800CC004C08AD00490884002D0883138000FF
:100D0800112EFF30CA070318CB0AFF30CB074A0A57
:100D1800031D922E4B0A031D922E932E162E013080
:100D2800A807FF30280784000A168A150A200A1225
:100D38008A11AD002D08CC004C08031DA42EA72E47
:100D48000A168A11002D49088400831380010800BF
:100D5800031083120313220D230DF3007308AD0053
:100D68002D08031DB82EB92EC22E0030A300003066
:100D7800A2000030A1000030A000692F0310260D4A
:100D8800270DF3007308AC002C08031DCC2ECD2EC4
:100D9800CE2EB92EA217FF30A005FF30A105FF30D7
:100DA800A2050030A305A617FF30A405FF30A5054E
:100DB800FF30A6050030A7050030AB000030AA00C0
:100DC8000030A9000030A8007F30AD02A0302C0709
:100DD800F3007308AD022030F3007308AC00013053
:100DE800F3000310A80DA90DAA0DAB0DF30BF52EFA
:100DF80027082302031D0A2F26082202031D0A2F93
:100E080025082102031D0A2F24082002031C0D2F88
:100E18000E2F1D2F2408A0022508031C250FA10250
:100E28002608031C260FA2022708031C270FA3026B
:100E380028140130F3000310A00DA10DA20DA30D7D
:100E4800F30B1F2F0130AC02031D2B2F2C2FF32E79
:100E5800AD1F2F2F302F4A2F2D08803A9F3E0318A1
:100E6800362F372F382FB92E01300310AB0CAA0CB0
:100E7800A90CA80CFF3E031D392F0130F30073089D
:100E8800AD07031D482F492F382F612F20302D0221
:100E9800031C4F2F502F5C2FB92E0130F300031085
:100EA800A80DA90DAA0DAB0DF30B532F0130AD0200
:100EB8002D08031D602F612F512F2B08A3002A082E
:100EC800A2002908A1002808A00008000310831226
:100ED80003135A0D5B0DDC005C08E2006208031D79
:100EE800762F772F802F0030DB000030DA000030BB
:100EF800D9000030D800E52F5808DC005908DD007B
:100F08005A08DE005B08DF001F300310DF0CDE0C20
:100F1800DD0CDC0CFF3E031D892F5C08E000600837
:100F2800E100DA17FF30D805FF30D905FF30DA05C0
:100F38000030DB059630E202E21FA32FA42FBE2F5C
:100F48006208803A973E0318AA2FAB2FAC2F772F51
:100F580001300310DB0CDA0CD90CD80CFF3E031D52
:100F6800AD2F0130DC005C08E207031DBC2FBD2F4C
:100F7800AC2FD52F20306202031CC32FC42FD02FD3
:100F8800772F0130DC000310D80DD90DDA0DDB0DF9
:100F9800DC0BC72F0130E2026208031DD42FD52FC6
:100FA800C52F61080319D92FDA2FE52FD809D909D8
:100FB800DA09DB09D80A0319D90A0319DA0A031965
:100FC800DB0A0800F60083120313091076080A16D4
:100FD8008A151E210A128A118312031389140B30F1
:100FE800F5006230F400F40BF72FF50BF72F000033
:080FF8008312031389100800A5
:10100200F600761D052806280B287508831603139B
:10101200940010287308750483160313940076084D
:101022007404831203139400080083120313A801AB
:10103200A31F1C281D282428A209A309A20A0319F8
:10104200A30AA801A80AA51F272828283128A4092D
:10105200A509A40A0319A50A0130A6002608A806B4
:10106200A901AA0122082304031938283928702863
:10107200A701A70A472801300310A20DA30DFF3EC6
:10108200031D3D280130A6002608A707A31F4A28F2
:101092004B283C2801300310A90DAA0DFF3E031D69
:1010A2004C2823082502031D582822082402031C69
:1010B2005B285C2863282208A4022308031CA503DA
:1010C200A502291401300310A30CA20CFF3E031D3C
:1010D20064280130A702031D6F2870284B282808B6
:1010E2000319742875287A28A909AA09A90A0319D3
:1010F200AA0A2A08A3002908A200080083120313DF
:101102002008F3002108F4002208F5000310740DF2
:10111200750DF6007608AD002D08031D9128922862
:101122009B280030A3000030A2000030A100003054
:10113200A0003B292408F3002508F4002608F50046
:101142000310740D750DF6007608AC002C08031D13
:10115200AB28AC28AD289228A117FF30A005FF309C
:10116200A1050030A205A517FF30A405FF30A50593
:101172000030A6050030AB000030AA000030A90004
:101182000030A8007F30AD0298302C07F3007308BE
:10119200AD021830F3007308AC000130F300031005
:1011A200A80DA90DAA0DAB0DF30BD028260822021B
:1011B200031DE12825082102031DE128240820023D
:1011C200031CE428E528F0282408A0022508031CB3
:1011D200250FA1022608031C260AA20228140130A8
:1011E2000310A00DA10DA20DFF3E031DF128013039
:1011F200AC02031DFD28FE28CE28AD1F01290229BD
:101202001C292D08803A973E0318082909290A2922
:10121200922801300310AB0CAA0CA90CA80CFF3EBB
:10122200031D0B290130F3007308AD07031D1A29B2
:101232001B290A29332918302D02031C21292229AE
:101242002E2992280130F3000310A80DA90DAA0D32
:10125200AB0DF30B25290130AD022D08031D3229F8
:10126200332923292B08A3002A08A2002908A10058
:101272002808A0000800831203132E088039B30047
:101282003308B8002E08B3003307B4003408BE0098
:10129200AD1F4C294D294E293E143E0803195229EF
:1012A200532962293E0A031D572958296029003013
:1012B200AE000030AD000030AC000030AB00AD1726
:1012C2006A290030AE000030AD000030AC000030C2
:1012D200AB0032088039B3003308B8063208B300D5
:1012E2003307B4003408BD00B11F782979297A295F
:1012F2003D143D0803197E297F298E293D0A031DCD
:10130200832984298C290030B2000030B1000030DA
:10131200B0000030AF00B11796290030B2000030A3
:10132200B1000030B0000030AF003D0803199A2927
:101332009B29A0293E08031D9F29A029A929003025
:10134200AE000030AD000030AC000030AB009C2C91
:101352002B08B3003308F30031080A168A15F92165
:101362000A128A15740883120313C4007308C30097
:101372004308B300B401B501B6013608BC00350814
:10138200BB003408BA003308B9004408B300B40102
:10139200B501B6013608C2003508C1003408C000E4
:1013A2003308BF002C08B3003308F30030080A16D4
:1013B2008A15F9210A128A15740883120313C400CC
:1013C2007308C3004308B300B401B501B601330882
:1013D200B907340803110318013E0319F129BA07AA
:1013E200350803110318013E0319F829BB07360813
:1013F20003110318013E0319FF29BC074408B30077
:10140200B401B501B6013308BF073408031103184C
:10141200013E03190D2AC007350803110318013EC6
:101422000319142AC107360803110318013E0319D0
:101432001B2AC2072D08B3003308F3002F080A162F
:101442008A15F9210A128A15740883120313C4003B
:101452007308C3004308B300B401B501B6013308F1
:10146200B907340803110318013E0319392ABA07D0
:10147200350803110318013E0319402ABB07360839
:1014820003110318013E0319472ABC074408B3009D
:10149200B401B501B6013308BF07340803110318BC
:1014A200013E0319552AC007350803110318013EEE
:1014B20003195C2AC107360803110318013E0319F8
:1014C200632AC2070830B3000310B90DBA0DBB0D71
:1014D200BC0DB30B652A2C08B3003308F3002F08A8
:1014E2000A168A15F9210A128A157408831203133F
:1014F200C4007308C3004308B3004408B400B50134
:10150200B6013308B907340803110318013E031961
:101512008B2ABA07350803110318013E0319922AD0
:10152200BB07360803110318013E0319992ABC07A9
:101532002B08B3003308F30030080A168A15F92184
:101542000A128A15740883120313C4007308C300B5
:101552004308B3004408B400B501B6013308B90723
:10156200340803110318013E0319B82ABA073508D3
:1015720003110318013E0319BF2ABB0736080311E2
:101582000318013E0319C62ABC070830B300031032
:10159200B90DBA0DBB0DBC0DB30BC82A2B08B30095
:1015A2003308F3002F080A168A15F9210A128A1540
:1015B200740883120313C4007308C3004308B30002
:1015C2004408B400B501B6013308B9073408031161
:1015D2000318013E0319EE2ABA073508031103184E
:1015E200013E0319F52ABB07360803110318013E11
:1015F2000319FC2ABC072C08B3003308F300310896
:101602000A168A15F9210A128A157408831203131D
:10161200C4007308C3004308B3004408B400B50112
:10162200B6013308BF07340803110318013E03193A
:101632001B2BC007350803110318013E0319222B87
:10164200C107360803110318013E0319292BC207EB
:101652002D08B3003308F30030080A168A15F92161
:101662000A128A15740883120313C4007308C30094
:101672004308B3004408B400B501B6013308BF07FC
:10168200340803110318013E0319482BC00735081B
:1016920003110318013E03194F2BC107360803112A
:1016A2000318013E0319562BC2072D08B300330855
:1016B200F30031080A168A15F9210A128A157408EC
:1016C20083120313C4007308C3004308B300440821
:1016D200B400B501B60108300310B30DB40DB50D59
:1016E200B60DFF3E031D6D2B3308BF0734080311EF
:1016F2000318013E03197E2BC00735080311031896
:10170200013E0319852BC107360803110318013E58
:1017120003198C2BC2073908B3003A08B4003B08FE
:10172200B5003C08B60018300310B60CB50CB40C6A
:10173200B30CFF3E031D952B3308BF07340803117A
:101742000318013E0319A62BC0073508031103181D
:10175200013E0319AD2BC107360803110318013EE0
:101762000319B42BC2070830B3000310B90DBA0D28
:10177200BB0DBC0DB30BB62B3E083D07B300B40145
:10178200B40D3308823EC30034080318013EFF3E05
:10179200C400E82B0130B3000310BF0DC00DC10D12
:1017A200C20DB30BCD2BBC1FD72BD82BD92B3F147B
:1017B2000130B3000310B90DBA0DBB0DBC0DB30B54
:1017C200DB2BFF30C3070318C40AFF30C407C11F55
:1017D200EB2BEC2BCB2BBD01BC1FF02BF12B0D2CDB
:1017E200FF303905B300FF303A05B400FF303B0546
:1017F200B5007F303C05B6003608350434043304A6
:101802000319042C052C082CBD01BD0A0D2C3F1C0C
:101812000B2C0C2C0D2C052C3D080319112C122C11
:10182200432C0130BF07003003180130C0070030DD
:1018320003180130C107003003180130C207421CEF
:10184200232C242C432C3F08B3004008B400410849
:10185200B5004208B6000130B700360DB60CB50C23
:10186200B40CB30CB70B2E2C3608C2003508C100DD
:101872003408C0003308BF000130C3070318C40A8C
:101882000030C4074408803AFF0080307F02031D05
:101892004C2CFF304302031C4F2C502C5B2C7F300E
:1018A20083120313C2008030C1000030C000003038
:1018B200BF00902C831203134408803AFF0080304B
:1018C2007F02031D662C013043020318692C6A2C27
:1018D200762C003083120313C2000030C1000030A6
:1018E200C0000030BF00B801902C831203134308DC
:1018F200B3003308BE00FF30BF05FF30C0057F30A4
:10190200C1050030C2053E1C872C882C892CC117CA
:101912003E08B3000310330CB4003408C200380888
:10192200B3003308C2044208AE004108AD004008CB
:10193200AC003F08AB00080083120313D700D71F87
:10194200A32CA42C532ED709D70A5708803A123E4B
:10195200031CAC2CAD2C972D0A30A2000030A30042
:101962005708F500F601F51BF6036430F30000306A
:10197200F4000A168A1552240A128A157408831270
:101982000313A5007308A4000A128A1516200A126E
:101992008A15831203132208C90001300310C90DEE
:1019A200FF3E031DCF2C0310490D593E84000A1639
:1019B2008A150A200A128A15CA000A168A150A20EE
:1019C2000A128A15CB000A168A150A200A128A15EB
:1019D200CC000A168A150A200A128A15CD004D0873
:1019E200AE004C08AD004B08AC004A08AB006430B6
:1019F200A2000030A3005708A400A501A41BA50360
:101A02000A128A1516200A128A1583120313220853
:101A1200CE0001300310CE0DFF3E031D0B2D03102F
:101A22004E0D7D3E84000A168A150A200A128A1576
:101A3200CF000A168A150A200A128A15D0000A1641
:101A42008A150A200A128A15D1000A168A150A2056
:101A52000A128A15D2005208B2005108B100500889
:101A6200B0004F08AF000A128A153C210A128A15EB
:101A7200831203132E08D6002D08D5002C08D4009B
:101A82002B08D3000A30F3000030F4005708F500A9
:101A9200F601F51BF6030A168A1552240A128A1554
:101AA200730883120313C90001300310C90DFF3EEE
:101AB200031D562D0310490D353E84000A168A1562
:101AC2000A200A128A15CA000A168A150A200A1260
:101AD2008A15CB000A168A150A200A128A15CC002A
:101AE2000A168A150A200A128A15CD004D08AE0080
:101AF2004C08AD004B08AC004A08AB005608B200D7
:101B02005508B1005408B0005308AF000A128A15F4
:101B12003C210A128A15831203132E08C8002D08CD
:101B2200C7002C08C6002B08C500FF2F5708803AB3
:101B3200753E031C9D2D9E2D262E0A30F30000308B
:101B4200F4005708F500F601F51BF6030A168A158C
:101B520052240A128A15730883120313C900013032
:101B62000310C90DFF3E031DB12D0310490D353E73
:101B720084000A168A150A200A128A15CA000A1651
:101B82008A150A200A128A15CB000A168A150A201B
:101B92000A128A15CC000A168A150A200A128A1518
:101BA200CD004D08AE004C08AD004B08AC004A0811
:101BB200AB000A30A2000030A3005708A400A50120
:101BC200A41BA5030A128A1516200A128A1583126B
:101BD20003132208CE0001300310CE0DFF3E031D79
:101BE200ED2D03104E0D593E84000A168A150A2067
:101BF2000A128A15CF000A168A150A200A128A15B5
:101C0200D0000A168A150A200A128A15D1000A166D
:101C12008A150A200A128A15D2005208B200510807
:101C2200B1005008B0004F08AF000A128A153C21DB
:101C32000A128A15831203132E08C8002D08C70042
:101C42002C08C6002B08C500FF2F5708C900013019
:101C52000310C90DFF3E031D292E0310490D353E09
:101C620084000A168A150A200A128A15CA000A1660
:101C72008A150A200A128A15CB000A168A150A202A
:101C82000A128A15CC000A168A150A200A128A1527
:101C9200CD004D08C8004C08C7004B08C6004A08D2
:101CA200C500FF2F5708803A123E031C592E5A2EA8
:101CB200442F0A30A2000030A3005708F500F601B5
:101CC200F51BF6036430F3000030F4000A168A159F
:101CD20052240A128A15740883120313A50073088A
:101CE200A4000A128A1516200A128A1583120313F7
:101CF2002208C90001300310C90DFF3E031D7C2ECE
:101D02000310490D253E84000A168A150A200A127C
:101D12008A15CA000A168A150A200A128A15CB00E9
:101D22000A168A150A200A128A15CC000A168A1582
:101D32000A200A128A15CD004D08AE004C08AD00EB
:101D42004B08AC004A08AB006430A2000030A3008C
:101D52005708A400A501A41BA5030A128A15162080
:101D62000A128A15831203132208CE0001300310CF
:101D7200CE0DFF3E031DB82E03104E0D493E8400CA
:101D82000A168A150A200A128A15CF000A168A151F
:101D92000A200A128A15D0000A168A150A200A1287
:101DA2008A15D1000A168A150A200A128A15D2004B
:101DB2005208B2005108B1005008B0004F08AF00FD
:101DC2000A128A153C210A128A15831203132E085D
:101DD200D6002D08D5002C08D4002B08D3000A30D9
:101DE200F3000030F4005708F500F601F51BF60386
:101DF2000A168A1552240A128A15730883120313CB
:101E0200C90001300310C90DFF3E031D032F03104B
:101E1200490D013E84000A168A150A200A128A1503
:101E2200CA000A168A150A200A128A15CB000A1657
:101E32008A150A200A128A15CC000A168A150A2067
:101E42000A128A15CD004D08AE004C08AD004B08B1
:101E5200AC004A08AB005608B2005508B10054085D
:101E6200B0005308AF000A128A153C210A128A15E3
:101E7200831203132E08C8002D08C7002C08C600C1
:101E82002B08C500FF2F5708803A753E031C4A2FC6
:101E92004B2FD32F0A30F3000030F4005708F5001F
:101EA200F601F51BF6030A168A1552240A128A1540
:101EB200730883120313C90001300310C90DFF3EDA
:101EC200031D5E2F0310490D013E84000A168A1578
:101ED2000A200A128A15CA000A168A150A200A124C
:101EE2008A15CB000A168A150A200A128A15CC0016
:101EF2000A168A150A200A128A15CD004D08AE006C
:101F02004C08AD004B08AC004A08AB000A30A200F6
:101F12000030A3005708A400A501A41BA5030A12C0
:101F22008A1516200A128A15831203132208CE007C
:101F320001300310CE0DFF3E031D9A2F03104E0DEC
:101F4200253E84000A168A150A200A128A15CF0035
:101F52000A168A150A200A128A15D0000A168A154C
:101F62000A200A128A15D1000A168A150A200A12B4
:101F72008A15D2005208B2005108B1005008B000D0
:101F82004F08AF000A128A153C210A128A158312E1
:101F920003132E08C8002D08C7002C08C6002B0802
:101FA200C500FF2F5708C90001300310C90DFF3EBD
:101FB200031DD62F0310490D013E84000A168A150F
:101FC2000A200A128A15CA000A168A150A200A125B
:101FD2008A15CB000A168A150A200A128A15CC0025
:101FE2000A168A150A200A128A15CD004D08C80061
:0E1FF2004C08C7004B08C6004A08C50008008E
:102006000134013483120313CD003C30AE009F30FF
:10201600AD00BE30AC007730AB004D08C900CA0138
:10202600CB01CC014C08F6004B08F5004A08F40039
:102036004908F30001300A168A15B9250A168A11CD
:10204600760883120313B2007508B1007408B00055
:102056007308AF000A128A153C210A168A118312E8
:1020660003132E0883160313D000831203132D08BF
:1020760083160313CF00831203132C08831603134E
:10208600CE00831203132B0883160313CD005008CA
:1020960083120313C800831603134F088312031316
:1020A600C700831603134E0883120313C600831654
:1020B60003134D0883120313C5000800831203138C
:1020C600D8006E305802031C69286A2879293F30E7
:1020D600AE000030AD000030AC000030AB00643024
:1020E600A1000030A2005808C900CA014908A3008F
:1020F6004A08A4000A168A15CF220A168A118312E4
:1021060003132108CB0001300310CB0DFF3E031D46
:10211600872803104B0D7D3E84000A168A150A2077
:102126000A168A11CC000A168A150A200A168A117E
:10213600CD000A168A150A200A168A11CE000A163A
:102146008A150A200A168A11CF004F08B2004E08D7
:10215600B1004D08B0004C08AF000A128A153C21A8
:102166000A168A11831203132E08D7002D08D600EB
:102176002C08D5002B08D4000A30A1000030A2009C
:102186005808C900CA014908F5004A08F600643033
:10219600F3000030F4000A168A154D220A168A1139
:1021A600740883120313A4007308A3000A168A1581
:1021B600CF220A168A11831203132108CB0001309D
:1021C6000310CB0DFF3E031DE32803104B0D593EB4
:1021D60084000A168A150A200A168A11CC000A16E5
:1021E6008A150A200A168A11CD000A168A150A20AF
:1021F6000A168A11CE000A168A150A200A168A11AC
:10220600CF004F08AE004E08AD004D08AC004C089C
:10221600AB005708B2005608B1005508B000540884
:10222600AF000A128A153C210A168A11831203137B
:102236002E08D3002D08D2002C08D1002B08D00080
:102246000A30F3000030F4005808C900CA014908F2
:10225600F5004A08F6000A168A154D220A168A1152
:10226600730883120313CB0001300310CB0DFF3E1E
:10227600031D382903104B0D353E84000A168A15B6
:102286000A200A168A11CC000A168A150A200A168E
:102296008A11CD000A168A150A200A168A11CE005E
:1022A6000A168A150A200A168A11CF004F08AE00B0
:1022B6004E08AD004D08AC004C08AB005308B20008
:1022C6005208B1005108B0005008AF000A128A1532
:1022D6003C210A168A11831203132E08C8002D0802
:1022E600C7002C08C6002B08C5006D2A0B30580203
:1022F600031C7E297F292A2A3F30AE000030AD001C
:102306000030AC000030AB000A30A1000030A20063
:102316005808C900CA014908A3004A08A4000A16B9
:102326008A15CF220A168A11831203132108CB00BD
:1023360001300310CB0DFF3E031D9C2903104B0DEE
:10234600593E84000A168A150A200A168A11CC00FC
:102356000A168A150A200A168A11CD000A168A1547
:102366000A200A168A11CE000A168A150A200A16AB
:102376008A11CF004F08B2004E08B1004D08B000D8
:102386004C08AF000A128A153C210A168A118312DC
:1023960003132E08D7002D08D6002C08D5002B08CD
:1023A600D4000A30F3000030F4005808C900CA010E
:1023B6004908F5004A08F6000A168A154D220A163B
:1023C6008A11730883120313CB0001300310CB0D5F
:1023D600FF3E031DE92903104B0D353E84000A1606
:1023E6008A150A200A168A11CC000A168A150A20AE
:1023F6000A168A11CD000A168A150A200A168A11AB
:10240600CE000A168A150A200A168A11CF004F082E
:10241600AE004E08AD004D08AC004C08AB005708A6
:10242600B2005608B1005508B0005408AF000A12B1
:102436008A153C210A168A11831203132E08C80036
:102446002D08C7002C08C6002B08C5006D2A3F3092
:10245600AE000030AD000030AC000030AB005808D4
:10246600C90001300310C90DFF3E031D352A0310B4
:10247600490D353E84000A168A150A200A168A1165
:10248600CA000A168A150A200A168A11CB000A16ED
:102496008A150A200A168A11CC000A168A150A20FD
:1024A6000A168A11CD004D08B2004C08B1004B083F
:1024B600B0004A08AF000A128A153C210A168A1192
:1024C600831203132E08C8002D08C7002C08C60067
:1024D6002B08C5000800831203135C088039E1004D
:1024E6006108E9005C08E1006107E2006208EB00B0
:1024F600DB1F7E2A7F2A802A6B146B080319842A25
:10250600852A952A6B0A031D892A8A2A922A00306F
:10251600DC000030DB000030DA000030D900DB17C9
:10252600DC019D2A0030DC000030DB000030DA00E0
:102536000030D90060088039E1006108EA006A08C5
:1025460069060319A72AA82AA92A69176008E100BB
:102556006107E2006208EA00DF1FB22AB32AB42A42
:102566006A146A080319B82AB92AC92A6A0A031D0D
:10257600BD2ABE2AC62A0030E0000030DF00003047
:10258600DE000030DD00DF17E001D12A0030E00078
:102596000030DF000030DE000030DD006B086A022C
:1025A6000318D62AD72A1B2B691FDA2ADB2ADF2A29
:1025B6008030E1006108E9066B08E1006108EC0083
:1025C6006A08E1006108EB006C08E1006108EA00B6
:1025D6005908E1006108EC005D08E1006108D900D6
:1025E6006C08E1006108DD005A08E1006108EC00B2
:1025F6005E08E1006108DA006C08E1006108DE00AF
:102606005B08E1006108EC005F08E1006108DB009F
:102616006C08E1006108DF005C08E1006108EC007D
:102626006008E1006108DC006C08E1006108E00078
:10263600EC016A08E100E2016208E4006B0861024D
:10264600E300031CE4036408803AFF0080307F0245
:10265600031D2F2B1A306302031C322B332B702BD6
:10266600831203135C085B045A045904031D3C2BB4
:102676003E2B01303F2B0030E1006108EC000030BA
:10268600DC000030DB000030DA000030D9006A08D8
:10269600E1006108EB00782B6C1C522B532B5C2B52
:1026A6006C08E1000310610C0138E2006208EC00DE
:1026B6005E2B0310EC0C591C612B622B632BEC1761
:1026C6000130E1005C0DDC0CDB0CDA0CD90CE10B03
:1026D600652B0130E1006108EB07831203136A08DA
:1026E6006B02031C772B782B4F2B691B7B2B7C2BC8
:1026F600C72B6B08031D802B812B8A2B0030DC0037
:102706000030DB000030DA000030D900F52C5D081F
:10271600D9075E0803110318013E0319932BDA0744
:102726005F0803110318013E03199A2BDB076008A3
:1027360003110318013E0319A12BDC075C1CA42B13
:10274600A52B7B2C6C1CA82BA92BB22B6C08E100AB
:102756000310610C0138E2006208EC00B42B031090
:10276600EC0C591CB72BB82BB92BEC170130E10038
:102776005C0DDC0CDB0CDA0CD90CE10BBB2B01304D
:10278600E1006108EB077B2C5C08803AFF006008DB
:10279600803A7F02031DD92B5F085B02031DD92BEC
:1027A6005E085A02031DD92B5D0859020318DC2B5B
:1027B600DD2B352CFF30E100FF30E200FF30E30077
:1027C600FF30E4005D08E5005E08E6005F08E7000C
:1027D6006008E8005908E5025A08031C5A0FF42B52
:1027E600F52BE6025B08031C5B0FFA2BFB2BE702BB
:1027F6005C08031C5C0F002C012CE8026508E1074D
:1028060066080318660F082C092CE20767080318E8
:10281600670F0E2C0F2CE30768080318680AE407F5
:102826006408DC006308DB006208DA006108D9008E
:102836008030E1006108E906EC09EC0A6C08031D2A
:10284600252C262C432C0130D907003003180130E3
:10285600DA07003003180130DB07003003180130B7
:10286600DC07432C5D08D9025E08031C5E0FDA0202
:102876005F08031C5F0FDB026008031C600FDC02AD
:102886005C085B045A045904031D4A2C4B2C772C14
:102896006C08031D4F2C502C772C0030DC000030C8
:1028A600DB000030DA000030D900F52C0130E10001
:1028B6000310D90DDA0DDB0DDC0DE10B5B2CEC1FE3
:1028C600652C662C672C59146C1C6A2C6B2C6E2C90
:1028D6000314EC0D702C0310EC0D6B080319742C0B
:1028E600752C772C0130EB02DB1F7A2C7B2C592CB4
:1028F600EA01EC1F7F2C802C8E2C6C087F39031983
:10290600852C862C892CEA01EA0A8E2C591C8C2CE3
:102916008D2C8E2C862C6A080319922C932CC72C8E
:102926000130D907003003180130DA0700300318E8
:102936000130DB07003003180130DC075C1CA42CD7
:10294600A52CC72C5908E1005A08E2005B08E300F1
:102956005C08E4000130E500640DE40CE30CE20CD5
:10296600E10CE50BAF2C6408DC006308DB006208B1
:10297600DA006108D9006B0A0319C22CC32CC72CD4
:102986000130E1006108EB076B0A0319CB2CCC2C54
:10299600D12C6B08031DD02CD12CDF2C0030DC0091
:1029A6000030DB000030DA000030D9006B08031D70
:1029B600DD2CDE2CDF2CE9016B1CE22CE32CE52C54
:1029C600DB17E92C7F30E1006108DB056B08E100CD
:1029D6000310610CE2006208DC00E91FF32CF42C02
:1029E600F52CDC17080083160313C900A930AD00C7
:1029F6002D08B6000A128A11932E25304C060319AB
:102A0600052D062D122D4C08AD00490884002D0811
:102A1600831380000130AD002D08C907FD2CB901D4
:102A2600BA01B701B801280884000A168A150A20D7
:102A36000A168A110A168A1588210A168A11031C93
:102A4600252D262D662D83160313B901BA010A30EA
:102A5600F3000030F400831603133A08F600390831
:102A6600F5000A168A1522220A168A117408831698
:102A76000313BA007308B900280884000A168A15D9
:102A86000A200A168A11D03EAD00FF300318003026
:102A9600AE002D08B9070318BA0A2E08BA07013086
:102AA600AD002D08A807280884000A168A150A20F2
:102AB6000A168A110A168A1588210A168A11031817
:102AC600652D662D2A2D83160313280884000A1601
:102AD6008A150A200A168A112E3A031D732D742DA3
:102AE600B92D38170130AD002D08A807CA01CB0152
:102AF600A82D0A30F3000030F400831603134B08A8
:102B0600F6004A08F5000A168A1522220A168A11C4
:102B1600740883160313CB007308CA0028088400C0
:102B26000A168A150A200A168A11D03EAD00FF3011
:102B360003180030AE002D08CA070318CB0A2E086A
:102B4600CB070130AD002D08A807280884000A1617
:102B56008A150A200A168A110A168A1588210A1663
:102B66008A110318B72DB82D7C2DBF2DCA01CB01B4
:102B76003816BF2D3815E12D013083160313A8072B
:102B8600FF30280784000A168A150A200A168A11B9
:102B9600CC00AD00AE012E08003A0319D32DFD2C52
:102BA6002D08003A0319FD2F643A0319E12D023A64
:102BB6000319BD2D0F3A0319E12DFD2C0030370501
:102BC600AD0007303805AE002D082E040319EC2D94
:102BD600EF2D0A128A11E42C381EF22DF32DF72D53
:102BE6000630CA000030CB00360884008313000884
:102BF600C500840A0008C600840A0008C700840AC3
:102C06000008C8000430AD002D08B6074808831236
:102C16000313A30083160313470883120313A200AA
:102C260083160313460883120313A10083160313A6
:102C3600450883120313A0000030A7000030A60049
:102C46000030A5000030A4000A168A1515250A16BC
:102C56008A1103182F2E302E4D2E83160313480883
:102C6600F6004708F5004608F4004508F3000A1682
:102C76008A154D210A168A11760883160313C80091
:102C86007508C7007408C6007308C5000330B7048A
:102C96000030B80483160313C301C4014808831225
:102CA6000313A30083160313470883120313A2001A
:102CB60083160313460883120313A1008316031316
:102CC600450883120313A0000030A7000030A600B9
:102CD6000030A5000030A4000A168A155C230A16E7
:102CE6008A110318772E782E942F03108316031358
:102CF600470D480D823EC300FF3003180030C40064
:102D0600FF30C3070318C40AFF30C4070330F300BB
:102D16000030F4004408F6004308F5000A168A1548
:102D260022220A168A11740883160313C400730834
:102D3600C3000A3083120313A2000030A3008316D7
:102D46000313440883120313A500831603134308D1
:102D560083120313A4000A128A1516200A168A1172
:102D660083120313230883160313C4008312031369
:102D7600220883160313C300C41FC22EC32EC92EF6
:102D8600FF30C3070318C40AFF30C4074303FF3AE2
:102D96000A128A159D240A168A11831203134808FB
:102DA60083160313BE008312031347088316031307
:102DB600BD0083120313460883160313BC00831257
:102DC6000313450883160313BB0048088312031335
:102DD600AE0083160313470883120313AD00831650
:102DE6000313460883120313AC0083160313450826
:102DF60083120313AB00831603133E0883120313D7
:102E0600B200831603133D0883120313B100831621
:102E160003133C0883120313B000831603133B0805
:102E260083120313AF000A128A153C210A168A116F
:102E3600831203132E0883160313BE008312031393
:102E46002D0883160313BD00831203132C08831663
:102E56000313BC00831203132B0883160313BB0052
:102E66003E0883120313A300831603133D0883123F
:102E76000313A200831603133C0883120313A10055
:102E8600831603133B0883120313A0003F30A700E9
:102E96008030A6000030A5000030A4000A168A156E
:102EA60015250A168A110318592F5A2F632FFF303A
:102EB60083160313C3070318C40AFF30C407942FED
:102EC600831603133E0883120313A300831603130A
:102ED6003D0883120313A200831603133C088312D2
:102EE6000313A100831603133B0883120313A000E8
:102EF6004130A7002030A6000030A5000030A40015
:102F06000A168A1515250A168A11031C8B2F8C2F73
:102F1600942F013083160313C3070318C40A003025
:102F2600C407831603134B08803AFF0080307F02E4
:102F3600031D9F2F0D304A020318A22FA32FEA2F3D
:102F4600831603134A080A168A1161200A168A1183
:102F5600831203134808DC004708DB004608DA0042
:102F66004508D90083160313480883120313E000AB
:102F760083160313470883120313DF008316031314
:102F8600460883120313DE008316031345088312D3
:102F96000313DD000A168A116E220A168A1183129D
:102FA60003135C0883160313C800831203135B081C
:102FB60083160313C700831203135A0883160313D9
:102FC600C60083120313590883160313C50083161C
:102FD60003134408803AFF0080307F02031DF52F5B
:102FE6000A3043020318FA2F0A128A112A280A12F3
:102FF6008A1189280A128A11A72EFF1B0A28831311
:103006007F1883170008840A0319FF0A080018307E
:103016008A000408840A82070034003400348034AD
:103026003F34003400342034413400340034C83492
:103036004234003400347A344434003440341C348E
:10304600463400345034C3344734003424347434A2
:1030560049348034963418344B342034BC34BE346E
:103066004C3428346B346E344E34F934023415340F
:103076005034EC347834AD346034CA34F2344934E4
:1030860071340034003480343F34CD34CC34CC3405
:103096003D340A34D73423343C346F341234833409
:1030A6003A341734B734D1343834AC34C5342734D1
:1030B6003734BD343734863435349534BF34D6345A
:1030C60033347734CC342B3432345F34703489342F
:1030D6003034FF34E634DB342E340834E5343C3403
:1030E6001E3460344234A2340D34013400340034CA
:1030F60000340A34003400340034643400340034BC
:103106000034E834033400340034103427340034F7
:103116000034A034863401340034403442340F3451
:10312600003480349634983400340034E134F53475
:1031360005340034CA349A343B34533431343A3487
:10314600203420342034533432343A34203420347A
:1031560020342034533433343A3400342534333471
:103166002E34323466345634003425346434003414
:10323C00F30073088312031388000800F30073086B
:10324C00831203139300080083160313141C2F29F5
:10325C0030292A29080064008001840A0406031915
:10326C000034040632290A168A152A210A168A15F0
:10327C008312031313080800831203131816181172
:10328C00831603138C168312031398100800760808
:10329C007504740473040319542955295729803073
:1032AC00F606080000300A128A11E6270A168A155B
:1032BC0001300A128A11E6270A168A1508008316AD
:1032CC000313181298161811831603178715193043
:1032DC008316031399008312031398178B17080096
:1032EC00831603138801903087008901860103300F
:1032FC008316031788008312031387018801890141
:10330C0086010800F400F3013A30740203188F2987
:10331C009029982930307402031C952996299829F4
:10332C00F301F30A730C0800F5008312031309145C
:10333C0075080A168A151E210A168A15831203139C
:10334C0089141A30F400F40BA9290000831203131A
:10335C0089101A30F400F40BB12900000800831214
:10336C0003138C1EBA29BB29CC29981CBE29BF2952
:10337C00C6291812C730F000F00BC229C529CC2978
:10338C001A08F000700883160313D60072088A001E
:10339C00710E8300FE0E7E0E090083120313A10032
:1033AC002103031DDA29DB29E72977087F3EA000DA
:1033BC002008A20022080A128A11E6270A168A158A
:1033CC00F82902302106031DEC29ED29F82977088C
:1033DC00BF3EA0002008A20022080A128A11E6278C
:1033EC000A168A15080083120313A400A001A10178
:1033FC007308F500F6017508A2007608A300241CDA
:10340C00082A092A0F2A2208A0070318A10A230850
:10341C00A10701300310A20DA30DFF3E031D102ABE
:10342C000310A40C2408031D1C2A1D2A052A21089C
:10343C00F4002008F300080083120313A001A1017B
:10344C00731C292A2A2A322A750883120313A0070F
:10345C000318A10A7608A10701300310F50DF60D2B
:10346C00FF3E031D332A01300310F40CF30CFF3E16
:10347C00031D3A2A73087404031D452A462A262A7A
:10348C00831203132108F4002008F30008007308CA
:10349C0074040319522A532A842A83120313A00199
:1034AC00A00A632A01300310F30DF40DFF3E031D37
:1034BC00592A0130F7007708A007F41F662A672AFB
:1034CC00582A74087602031D6D2A73087502031CB2
:1034DC00702A712A772A7308F5027408031CF60304
:1034EC00F60201300310F40CF30CFF3E031D782A96
:1034FC000130A002031D832A842A672A7608F4006F
:10350C007508F300080083120313A301A401B22A67
:10351C0023087607A1007708A0000318A00AA31FB0
:10352C00982AA003831203132008A2002208FF008C
:10353C00210884000A168A1500200A168A150A1614
:10354C008A159A210A168A15013083120313A307D0
:10355C000318A40A0030A40723087607A1007708F3
:10356C00A0000318A00AA31FBC2AA00383120313F4
:10357C002008A2002208FF00210884000A168A15E0
:10358C0000200A168A15003A031DCD2ACE2A8E2A4F
:10359C00080083120313A701A801210822040319B0
:1035AC00D82AD92A102BA601A60AE72A0130031023
:1035BC00A10DA20DFF3E031DDD2A0130A50025083B
:1035CC00A607A21FEA2AEB2ADC2A01300310A70D5A
:1035DC00A80DFF3E031DEC2A22082402031DF82A25
:1035EC0021082302031CFB2AFC2A032B2108A3021B
:1035FC002208031CA403A402271401300310A20CFC
:10360C00A10CFF3E031D042B0130A602031D0F2B42
:10361C00102BEB2A2808A2002708A1000800003074
:10362C000A168A151E210A168A15343083120313C2
:10363C00A100F130A000A00B212BA10B212B3F30BE
:10364C000A128A11E6270A168A151A3083120313F6
:10365C00A100F730A000A00B312BA10B312B362B86
:10366C003F300A128A11E6270A168A158430831213
:10367C000313A000A00B402B00003F300A128A114C
:10368C00E6270A168A1538300A128A11E6270A1616
:10369C008A150C300A128A11E6270A168A1506308A
:1036AC000A128A11E6270A168A15080000308312BE
:1036BC0003132005F30000302105F40080302205AF
:1036CC00F5007F302305F600760875047404730446
:1036DC00031D712B722B7A2B0030A3000030A2003B
:1036EC000030A1000030A00000302405F3000030B1
:1036FC002505F40080302605F5007F302705F600FF
:10370C007608750474047304031D8D2B8E2B962B75
:10371C000030A7000030A6000030A5000030A40047
:10372C0027082306031DA42B26082206031DA42B01
:10373C0025082106031DA42B240820060319A72BFA
:10374C00A82BAA2B0310AB2B031408008030831674
:10375C000313A306270883120313DC008316031339
:10376C00260883120313DB00831603132508831228
:10377C000313DA0083160313240883120313D900EE
:10378C0083160313230883120313E0008316031319
:10379C00220883120313DF008316031321088312FC
:1037AC000313DE0083160313200883120313DD00BA
:1037BC000A168A116E220A168A15831203135C08E4
:1037CC0083160313A300831203135B0883160313DE
:1037DC00A200831203135A0883160313A100831249
:1037EC000313590883160313A00008008312031354
:1037FC0030082F042E042D040319052C062C492CFB
:10380C00F501F50A162C0130F4000310AD0DAE0DC8
:10381C00AF0DB00DF40B0B2C0130F4007408F50750
:10382C00B01F192C1A2C092C30083402031D282C1B
:10383C002F083302031D282C2E083202031D282CBE
:10384C002D083102031C2B2C2C2C3A2C2D08B102E8
:10385C002E08031C2E0FB2022F08031C2F0FB302CD
:10386C003008031C300FB40201300310B00CAF0C45
:10387C00AE0CAD0CFF3E031D3B2C0130F502031DBD
:10388C00482C492C1A2C3408B0003308AF003208ED
:10389C00AE003108AD00080083120313A101F61F1E
:1038AC00582C592C602CF509F609F50A0319F60A5F
:1038BC00A101A10AF41F632C642C692CF309F409EF
:1038CC00F30A0319F40A7308740403196E2C6F2C91
:1038DC009E2CA001A00A7D2C01300310F30DF40DD9
:1038EC00FF3E031D732C0130F7007708A007F41F6F
:1038FC00802C812C722C74087602031D872C730883
:10390C007502031C8A2C8B2C912C7308F5027408FD
:10391C00031CF603F60201300310F40CF30CFF3E0B
:10392C00031D922C0130A002031D9D2C9E2C812C7A
:10393C0021080319A22CA32CA82CF509F609F50AC9
:10394C000319F60A7608F4007508F3000800003035
:10395C0083120313AB000030AA000030A900003022
:10396C00A80023082204210420040319BE2CBF2C18
:10397C000C2DAC01AC0ACF2C0130F3000310A00DC0
:10398C00A10DA20DA30DF30BC42C0130F300730891
:10399C00AC07A31FD22CD32CC22C0130F300031084
:1039AC00A80DA90DAA0DAB0DF30BD52C23082702DE
:1039BC00031DEA2C22082602031DEA2C21082502ED
:1039CC00031DEA2C20082402031CED2CEE2CFD2CEC
:1039DC002008A4022108031C210FA5022208031CA5
:1039EC00220FA6022308031C230FA7022814013060
:1039FC000310A30CA20CA10CA00CFF3E031DFE2C6B
:103A0C000130AC02031D0B2D0C2DD32C2B08A30065
:103A1C002A08A2002908A1002808A00008000030EC
:103A2C00831203132005F30000302105F4008030CD
:103A3C002205F5007F302305F60076087504740422
:103A4C007304031D2A2D2B2D332D0030A3000030C1
:103A5C00A2000030A1000030A00000302405F300CB
:103A6C0000302505F40080302605F5007F30270551
:103A7C00F6007608750474047304031D462D472D57
:103A8C004F2D0030A7000030A6000030A5000030FC
:103A9C00A400A31F522D532D772D0030F3000030BE
:103AAC00F4000030F5008030F6002008F302210805
:103ABC00031C210F622D632DF4022208031C220F1C
:103ACC00682D692DF5022308031C230F6E2D6F2D15
:103ADC00F6027608A3007508A2007408A10073080A
:103AEC00A000A71F7A2D7B2D9F2D0030F3000030F6
:103AFC00F4000030F5008030F6002408F3022508AD
:103B0C00031C250F8A2D8B2DF4022608031C260F6F
:103B1C00902D912DF5022708031C270F962D972D1C
:103B2C00F6027608A7007508A6007408A5007308AD
:103B3C00A4008030A3068030A70627082302031DAB
:103B4C00B12D26082202031DB12D25082102031DCB
:103B5C00B12D240820020318B42DB52DB72D031058
:103B6C00B82D0314080083120313A40024080319AE
:103B7C00C02DC12DD52DF61FC42DC52DD52D7309E6
:103B8C00A6007409A7007509A8007609A900A60A61
:103B9C000319A70A0319A80A0319A90ADD2D760827
:103BAC00A9007508A8007408A7007308A600760879
:103BBC00750474047304031DE42DE52DEE2D003003
:103BCC00F6000030F5000030F4000030F300742EE5
:103BDC009630A0002008A500002E0130A00020087F
:103BEC00A50701300310A90CA80CA70CA60CFF3ECE
:103BFC00031DF82DFE302905031D052E062EF32D71
:103C0C00222E0130A0002008A5070130A6070030A5
:103C1C0003180130A707003003180130A807003043
:103C2C0003180130A90701300310A90CA80CA70C2C
:103C3C00A60CFF3E031D1A2EFF302905031D272E4F
:103C4C00282E072E342E0130A5020130A0000310BF
:103C5C00A60DA70DA80DA90DA00B2D2EA81B372E58
:103C6C00382E3E2E0230250203183D2E3E2E292ED4
:103C7C002518412E422E4A2EFF30A605FF30A705EF
:103C8C007F30A805FF30A9050310A50C2508A0005E
:103C9C00A101A201A30118300310A00DA10DA20DCA
:103CAC00A30DFF3E031D522E2008A6042108A704D5
:103CBC002208A8042308A90424080319662E672ED9
:103CCC006C2EF61F6A2E6B2E6C2EA9172908F60087
:103CDC002808F5002708F4002608F30008000A1647
:103CEC008A1576210A168A150A168A1565210A166E
:103CFC008A150A168A1542210A168A150A168A1579
:103D0C0015230A168A150A168A1558210A168A15B9
:103D1C00F301F401F50120300A128A1501200A166C
:103D2C008A1583120313061486140615063083169F
:103D3C000317920013309100AD309000900BA42E1D
:103D4C00910BA42E920BA42E83120313061086142F
:103D5C000615033083160317910097309000900BD3
:103D6C00B52E910BB52E8312031305080A168A156E
:103D7C0024210A168A150A168A1539210A168A155B
:103D8C00831603179000100883120313ED000630FE
:103D9C0083160317920013309100AD309000900BF6
:103DAC00D52E910BD52E920BD52E83120313061400
:103DBC008614061103308316031791009730900078
:103DCC00900BE62E910BE62E8312031305080A16B0
:103DDC008A1524210A168A150A168A1539210A16FB
:103DEC008A15831603179000100883160313D90045
:103DFC00063083160317920013309100AD309000FB
:103E0C00900B062F910B062F920B062F8312031388
:103E1C00061486100615033083160317910097308D
:103E2C009000900B172F910B172F8312031305087B
:103E3C000A168A1524210A168A150A168A1539219A
:103E4C000A168A158316031790001008831603139D
:103E5C00D80009308316031792001E309100E3300E
:103E6C009000900B372F910B372F920B372F3E2F43
:103E7C00F701F70A01300A168A15D3210A168A159A
:103E8C009130F6008030F7000A168A1589220A163E
:103E9C008A15F701F70A02300A168A15D3210A1679
:103EAC008A158316031358080A168A1105200A1658
:103EBC008A1583120313480883160313D400831244
:103ECC000313470883160313D30083120313460806
:103EDC0083160313D20083120313450883160313AE
:103EEC00D100A23083160317900010088316031319
:103EFC00A8005408AC005308AB005208AA005108A3
:103F0C00A900DA300A168A11F6240A168A15DA3054
:103F1C00F6000030F7000A168A1589220A168A154F
:103F2C0007308316031790001008F70002300A16AA
:103F3C008A15D3210A168A15A93083160317900007
:103F4C00100883160313A800590883160317910051
:103F5C009201110883160313A90083160317120884
:103F6C0083160313AA00DA300A168A11F6240A16ED
:103F7C008A15DA30F6000030F7000A168A15892205
:103F8C000A168A15A23083160317900010088316A0
:103F9C000313A800831203136D08831603179100F3
:103FAC009201110883160313A90083160317120834
:103FBC0083160313AA00DA300A168A11F6240A169D
:103FCC008A150E308316031790001008F700023084
:103FDC000A168A15D3210A168A15DA30F600003033
:103FEC00F7000A168A1589220A168A159C2E0A12BF
:043FFC008A110C28F2
:04400E00D520FF3F7B
:00000001FF
