:020000040000FA
:060000000A128A11EB2F29
:100DBE007E088A007F0882000A128A11DF260A1234
:100DCE008A118000840A04087D0603190034FF0A84
:100DDE000319FE0AE32E8316031788018901831671
:100DEE0003138601FF308500870189018801831274
:100DFE00031385018601880187018901F701F60138
:100E0E000800013400340234003404340034083451
:100E1E000034103400342034003440340034803434
:100E2E000034013400340234003404340034083405
:100E3E000034103400342034003440340034803414
:100E4E0000348312031306140630F2001330F1003F
:100E5E00AD30F000F00B312FF10B312FF20B312FA3
:100E6E00382F83120313061086140630F200133047
:100E7E00F100AD30F000F00B422FF10B422FF20BD0
:100E8E00422F492F83120313861006150630F200E7
:100E9E001330F100AD30F000F00B532FF10B532F48
:100EAE00F20B532F5A2F83120313061108000A1246
:100EBE008A11F2260A128A11831203130518682F5B
:100ECE00692F5E2F6830F400E430F300F30B6D2FC2
:100EDE00F40B6D2F000083120313051C772F782F50
:100EEE005E2F0A128A1128270A128A11F801F80AAF
:100EFE00E22F831203138518852F862FBB2F6830A0
:100F0E00F400E430F300F30B8A2FF40B8A2F000069
:100F1E0083120313851C942F952FE22F083077062A
:100F2E00031D9A2F9B2FAE2F09140B30F500263080
:100F3E00F4005D30F300F30BA22FF40BA22FF50B90
:100F4E00A22FA92F0230F3007308F800E22F7708C2
:100F5E00F3007307303E84008313000888000130CD
:100F6E00F3007308F707E22F0519BE2FBF2FE22FEC
:100F7E006830F400E430F300F30BC32FF40BC32FEF
:100F8E00000083120313051DCD2FCE2FE22F083044
:100F9E007606031DD32FD42FD62F89149C2F7608B7
:100FAE00F3007307203E840083130008870001308E
:100FBE00F3007308F60778030319E62FE72F802F47
:100FCE005E2F0A128A11002883134030FD0007306D
:100FDE00FE000830FF00203084000A128A11E3263A
:100FEE000A128A11F601F701F80183010A128A1119
:020FFE005E2F64
:04400E00D120FF3F7F
:00000001FF
