:020000040000FA
:060000000A128A110C280F
:10000800FE00030EF2000A08F3000A128A111C28E7
:100018000A128A110F280A128A11D3200A128A1189
:10002800F800F501F601F70183010A128A118D28FB
:10003800831203138C1D21282228392883160313C1
:10004800141C2728282839280A128A11BD200A12C8
:100058008A11F1007108F5003F300A128A11CD208B
:100068000A128A11831203138C110B1C3C283D2899
:1000780067288312061B4128422854284928061F4E
:10008800462847284928F601F60A760803194D2814
:100098004E284328F6010130F1007108F707672858
:1000A800861B5728582867285F28861F5C285D28E4
:1000B8005F28F601F60A7608031963286428592888
:1000C800F6010130F7020B1073088A00720E8300E4
:1000D800FE0E7E0E0900F400831603138712741DAA
:1000E800762877287F2883120313220883160313A0
:1000F8009400871587288312031320082204831687
:1001080003139400871174088312031321049400C5
:1001180008000A128A11A8200A128A11F701F801A8
:10012800F80A83120313A001A101A20124300A12C4
:100138008A116F200A128A11770883120313880024
:10014800A0280A128A110C28831603138516880121
:1001580018308700FE30860089011617961783121B
:1001680003138601870188018901F601E8308B00B5
:1001780008000A128A11C6200A128A118312031370
:100188001308080083160313141CCB28CC28C62890
:100198000800F0007008831203139300080001346C
:04400E00D520FF3F7B
:00000001FF
