:020000040000FA
:060000000A128A110C280F
:10000800FE00030EF2000A08F3000A128A111C28E7
:100018000A128A110F280A128A11C8200A128A1194
:10002800F800F501F601F70183010A128A11682820
:10003800831203138C1D2128222833280A128A11BF
:10004800B2200A128A11F1007108F50077080A1225
:100058008A11C2200A128A11831203138C110B1CF5
:10006800362837286028061B3A283B284D2842287E
:10007800061F3F2840284228F601F60A7608031989
:10008800462847283C28F6010130F1007108F70797
:100098006028861B5028512860285828861F552814
:1000A80056285828F601F60A760803195C285D28B0
:1000B8005228F6010130F7020B1073088A00720EFD
:1000C8008300FE0E7E0E09000A128A119C200A1275
:1000D8008A11F701F801F80A83120313A001A1019C
:1000E800A20124300A128A1183200A128A11770881
:1000F8008312031388007B280A128A110C28F40043
:10010800741D872888288F288312031322088316D2
:1001180003139400962883120313200822048316DD
:100128000313940074088312031321049400080035
:1001380083160313880118308700FE308600851661
:100148008901161796178312031386018701880100
:1001580085018901F601E8308B0008000A128A112E
:10016800BB200A128A11831203131308080083168E
:100178000313141CC028C128BB280800F00070080D
:0A01880083120313930008000134F2
:04400E00D520FF3F7B
:00000001FF
