:020000040000FA
:060000000A128A110C280F
:10000800FE00030EF2000A08F3000A128A112528DE
:100018000A128A110F280A128A11DB200A128A1181
:10002800F80083132030840034300A128A11C62065
:100038000A128A11F501F601F70183010A128A11E1
:100048008F28831203138C1D2A282B283C280A1278
:100058008A11BD200A128A11F1007108F50077088B
:100068000A128A11D5200A128A11831203138C11DD
:100078000B1C3F2840286928061B4328442856287B
:100088004B28061F482849284B28F601F60A760807
:1000980003194F2850284528F6010130F10071084E
:1000A800F7076928861B59285A2869286128861F56
:1000B8005E285F286128F601F60A76080319652884
:1000C80066285B28F6010130F7020B1073088A00D6
:1000D800720E8300FE0E7E0E0900F40083160313D1
:1000E8008712741D7828792881288312031336080B
:1000F8008316031394008715892883120313340881
:1001080036048316031394008711740883120313AB
:100118003504940008000A128A11AA200A128A11CA
:10012800F701F801F80A83120313B401B501B60107
:1001380024300A128A1171200A128A117708831250
:1001480003138800A2280A128A110C2883160313A5
:100158008516880118308700FE3086001617961716
:1001680083120313860187018801F601E8308B00AA
:1001780008000A128A11CE200A128A118312031368
:100188001308080064008001840A04060319003477
:100198000406C72883160313141CD328D428CE2892
:1001A8000800F0007008831203139300080001345C
:04400E00D520FF3F7B
:00000001FF
