:020000040000FA
:060000000A128A110C280F
:10000800FE00030EF2000A08F3000A128A111C28E7
:100018000A128A110F280A128A11BD200A128A119F
:10002800F800F501F601F70183010A128A11742814
:100038000B1C1F282028322883120313061B25288F
:1000480026282B280130F1007108F7073128861B74
:100058002E282F2831280130F7020B1083120313A2
:100068008C1D372838284F2883160313141C3D2865
:100078003E284F280A128A11A7200A128A11F10075
:100088007108F60077080A128A11B7200A128A1135
:10009800831203138C1173088A00720E8300FE0EFC
:1000A8007E0E0900F400831603138712741D5D2861
:1000B8005E2866288312031322088316031394000C
:1000C80087156E288312031320082204831603134E
:1000D8009400871174088312031321049400080004
:1000E8000A128A118E200A128A1183120313A001A0
:1000F800A101A20124300A128A1156200A128A117B
:10010800F701F801770883120313880086280A127A
:100118008A110C28FF30831603138600FF308500F0
:10012800880118308700831203138601831603138E
:1001380016179617831203138C11831603138C1545
:10014800E8308B0008000A128A11B0200A128A11BE
:10015800831203131308080083160313141CB5280D
:10016800B628B0280800F000700883120313930023
:040178000800013446
:04400E00D520FF3F7B
:00000001FF
