:020000040000FA
:060000000A128A110C280F
:10000800FE00030EF2000A08F3000A128A111C28E7
:100018000A128A110F280A128A11CC200A128A1190
:10002800F800F501F601F70183010A128A11862802
:10003800831203138C1D2128222833280A128A11BF
:10004800B6200A128A11F1007108F50077080A1221
:100058008A11C6200A128A11831203138C110B1CF1
:10006800362837286028061B3A283B284D2842287E
:10007800061F3F2840284228F601F60A7608031989
:10008800462847283C28F6010130F1007108F70797
:100098006028861B5028512860285828861F552814
:1000A80056285828F601F60A760803195C285D28B0
:1000B8005228F6010130F7020B1073088A00720EFD
:1000C8008300FE0E7E0E0900F400831603138712C8
:1000D800741D6F287028782883120313220883164A
:1000E8000313940087158028831203132008220421
:1000F80083160313940087117408831203132104D1
:10010800940008000A128A11A1200A128A11F70124
:10011800F801F80A83120313A001A101A2012430F7
:100128000A128A1168200A128A11770883120313A7
:10013800880099280A128A110C2883160313851639
:10014800880118308700FE30860089011617961737
:10015800831203138601870188018901F601E830BB
:100168008B0008000A128A11BF200A128A11831212
:1001780003131308080083160313141CC428C52886
:10018800BF280800F00070088312031393000800CA
:02019800013430
:04400E00D520FF3F7B
:00000001FF
