:020000040000FA
:060000000A128A110C280F
:10000800FE00030EF1000A08F2000A168A154F2AAC
:100018000A128A110F28831603130A128A15BF20A1
:100028000A128A11DD000A128A15C0200A128A11E2
:10003800DE00831790308400A4300A168A15272022
:100048000A128A118313CD308400DD300A168A150E
:1000580027200A128A1183120313EF01FA01830180
:100068000A168A15AF2E8316031348088312031342
:10007800A30083160313470883120313A2008316F1
:100088000313460883120313A100831603134508BC
:1000980083120313A0000030A7000030A600003030
:1000A800A5000030A4000A168A15DB220A128A115C
:1000B80003185F286028422983160313480883120F
:1000C8000313DA0083160313470883120313D900B6
:1000D80083160313460883120313D80083160313E9
:1000E800450883120313D7000A128A1179270A12C6
:1000F8008A11831203135A08590458045704031D1C
:10010800862887284229831603134408803AFF006B
:1001180080307F02031D922802304302031C952879
:1001280096284229831603133E0883120313A3005B
:10013800831603133D0883120313A20083160313C7
:100148003C0883120313A100831603133B08831290
:100158000313A0004030A7008930A6007030A50026
:100168005F30A4000A168A1592240A128A1103180D
:10017800BE28BF28C828F73083160313C3070318FF
:10018800C40AFF30C407D028F83083160313C30706
:100198000318C40AFF30C40743080A128A159D24AD
:1001A8000A128A1183120313470883160313BE0029
:1001B80083120313460883160313BD008312031327
:1001C800450883160313BC008312031344088316DF
:1001D8000313BB00480883120313A30083160313F9
:1001E800470883120313A2008316031346088312D9
:1001F8000313A10083160313450883120313A000F9
:10020800831603133E0883120313A70083160313F0
:100218003D0883120313A600831603133C088312B8
:100228000313A500831603133B0883120313A400CA
:100238000A128A11B9260A128A1183120313230893
:1002480083160313C20083120313220883160313B1
:10025800C10083120313210883160313C0008312FD
:100268000313200883160313BF000030C8000030B2
:10027800C7000030C6000030C500A8298316031344
:10028800480883120313DA008316031347088312FE
:100298000313D90083160313460883120313D800E7
:1002A80083160313450883120313D7000A128A1111
:1002B80079270A128A11831203135A088316031323
:1002C800C20083120313590883160313C100831253
:1002D8000313580883160313C00083120313570827
:1002E80083160313BF004208F6004108F5004008D2
:1002F800F4003F08F30000300A168A1536250A1262
:100308008A11760883160313A3007508A2007408DF
:10031800A1007308A0004808A7004708A6004608DF
:10032800A5004508A4000A168A152B230A128A116B
:10033800831603132308C8002208C7002108C60033
:100348002008C500C301C401CC01CC0A4C08AD008B
:1003580001300310AD0DFF3E031DAD2903102D0D17
:10036800693E84000A128A150A200A128A11AE0010
:100378000A128A150A200A128A11AF000A128A156F
:100388000A200A128A11B0000A128A150A200A12D3
:100398008A11B10031084202031DDC2930084102EC
:1003A800031DDC292F084002031DDC292E083F020B
:1003B8000318DF29E029E129EB290130AD002D08D8
:1003C800CC070A304C06031DEA29EB29AA294C0858
:1003D8004A07AD004B0803184B0AAE0043082D0727
:1003E800AF0044080318440A2E07B0002F08B902CA
:1003F8003008031CBA03BA024A084B040319052A39
:10040800062A0C2AFF30B9070318BA0AFF30BA07C0
:1004180003303705AD0000303805AE002D082E0436
:100428000319172A182A2D2AFF30B9070318BA0A00
:10043800FF30BA072D2A203083160313AD00490870
:1004480084002D08831780000130AD002D08C907EE
:10045800182A3A08803AFF0080307F02031D362AA6
:10046800013039020318392A3A2A1F2A0330831621
:1004780003133705AD0000303805AE002D082E04F3
:100488000319472A482AFA2A2D30AD004908840062
:100498002D08831780000130AD002D08C907FA2AFE
:1004A8004C08AD0001300310AD0DFF3E031D572A67
:1004B80003102D0D693E84000A128A150A200A12BB
:1004C8008A1183120313A0000A128A150A200A123D
:1004D8008A11A1000A128A150A200A128A11A2009A
:1004E8000A128A150A200A128A11A3008316031316
:1004F800420883120313A7008316031341088312CB
:100508000313A60083160313400883120313A500E0
:10051800831603133F0883120313A4000A168A15CF
:100528002A240A128A118312031323088316031339
:10053800BE0083120313220883160313BD0083121F
:100548000313210883160313BC0083120313200826
:1005580083160313BB00003083120313AB00003073
:10056800AA000030A9000A30A800831603133E0829
:1005780083120313AF00831603133D08831203137A
:10058800AE00831603133C0883120313AD008316D1
:1005980003133B0883120313AC000A168A157B2346
:1005A8000A128A11831203132B0883160313BE0041
:1005B800831203132A0883160313BD00831203133F
:1005C800290883160313BC00831203132808831613
:1005D8000313BB003B08303EAD00490884002D08DA
:1005E800831780000130AD002D08C9070130CC0207
:1005F8004C0A031D002B012B542A152B303083166F
:100608000313AD00490884002D08831780000130CA
:10061800AD002D08C907FF30C3070318C40AFF300F
:10062800C4074408803AFF0080307F02031D1E2B58
:10063800013043020318212B222B022B83160313AC
:100648004B08803AFF0080307F02031D2D2B0930B4
:100658004A02031C302B312B382B08308316031326
:10066800AD002D08CC003E2B831603134A08AD00BD
:100678002D08CC004C08AD00AE012D08CA022E088A
:10068800031CCB03CB024C0803194B2B4C2B572BC9
:100698002E30AD00490884002D08831780000130F2
:1006A800AD002D08C9074C080A128A159D240A12A4
:1006B8008A1183120313470883160313B5008312A4
:1006C8000313460883160313B40083120313450863
:1006D80083160313B300831203134408831603130A
:1006E800B200350883120313B100831603133408CC
:1006F80083120313B0008316031333088312031302
:10070800AF0083160313320883120313AE00831657
:100718000313480883120313AD0083160313470815
:1007280083120313AC0083160313460883120313C2
:10073800AB0083160313450883120313AA000A1299
:100748008A153C210A128A11831203132D08DA0034
:100758002C08D9002B08D8002A08D7000A128A11B9
:1007680079270A128A11831203135A08831603136E
:10077800C20083120313590883160313C10083129E
:100788000313580883160313C00083120313570872
:1007980083160313BF00D12C4C08AD0001300310A1
:1007A800AD0DFF3E031DD32B03102D0D693E8400B4
:1007B8000A128A150A200A128A1183120313A0004A
:1007C8000A128A150A200A128A11A1000A128A1529
:1007D8000A200A128A11A2000A128A150A200A128D
:1007E8008A11A30083160313420883120313A70078
:1007F80083160313410883120313A60083160313F9
:10080800400883120313A500831603133F088312BD
:100818000313A4000A168A152A240A128A118312BD
:100828000313230883160313BE008312031322083D
:1008380083160313BD0083120313210883160313C1
:10084800BC0083120313200883160313BB00003077
:1008580083120313AB000030AA000030A9000A304D
:10086800A800831603133E0883120313AF008316F0
:1008780003133D0883120313AE00831603133C08C9
:1008880083120313AD00831603133B08831203136B
:10089800AC000A168A157B230A128A1183120313E5
:1008A8002B0883160313BE00831203132A0883162A
:1008B8000313BD0083120313290883160313BC0016
:1008C80083120313280883160313BB003B08303E2A
:1008D800AD00490884002D08831780000130AD0061
:1008E8002D08C9074C08AD0001300310AD0DFF3EBF
:1008F800031D792C03102D0D693E84000A128A15F8
:100908000A200A128A1183120313A8000A128A15F0
:100918000A200A128A11A9000A128A150A200A1244
:100928008A11AA000A128A150A200A128A11AB0033
:1009380083160313420883120313AF0083160313AD
:10094800410883120313AE00831603134008831271
:100958000313AD00831603133F0883120313AC007F
:100968000A168A157B230A128A11831203132B088D
:1009780083160313C200831203132A088316031372
:10098800C10083120313290883160313C0008312BE
:100998000313280883160313BF000130CC024C0A46
:1009A800031DD72CD82CD02BEA2C3030AD004908A9
:1009B80084002D08831780000130AD002D08C90779
:1009C800FF30CA070318CB0AFF30CB074A084B048D
:1009D800031DEF2CF02CD92CA02E3608840083138D
:1009E8000008AD00840A0008AE002D08BF002E08DC
:1009F800C0000030C01BFF30C100C2000230AD0093
:100A08002D08B607C21F092D0A2D192D0330B7046A
:100A18000030B804BF09C009C109C209BF0A0319D7
:100A2800C00A0319C10A0319C20A4A084B04031D64
:100A38001E2D1F2D2D2D4208410440043F04031D87
:100A4800262D272D2D2D0130CA070318CB0A00307B
:100A5800CB07CC01CC0A4C08AD0001300310AD0D1A
:100A6800FF3E031D322D03102D0D693E84000A122E
:100A78008A150A200A128A11AE000A128A150A205B
:100A88000A128A11AF000A128A150A200A128A115C
:100A9800B0000A128A150A200A128A11B100310818
:100AA8004202031D612D30084102031D612D2F08EC
:100AB8004002031D612D2E083F020318642D652D89
:100AC800662D702D0130AD002D08CC070A304C067C
:100AD800031D6F2D702D2F2D4B08803A803C031D70
:100AE800772D4A084C0203187A2D7B2D822D831608
:100AF80003134A08AD002D08CC009A2D8316031362
:100B08004B08803AAD0080302D02031D8D2D4C0816
:100B18004A020318902D912D9A2D831603134C0821
:100B2800AD00AE012D08CA002E08CB0083160313B2
:100B380039083A040319A12DA22DB42D0330370525
:100B4800AD0000303805AE002D082E040319AD2D78
:100B5800AE2DB42DFF30B9070318BA0AFF30BA0713
:100B6800381FB72DB82DD32D4B08803AAD003A0861
:100B7800803A2D02031DC22D39084A020318C52DDB
:100B8800C62DCF2D831603134A08B9024B08031C40
:100B9800BA03BA02D32D83160313B901BA013A086E
:100BA800803A803C031DDA2D39084C020318DD2DEC
:100BB800DE2DEA2D831603134C08AD00AE012D0877
:100BC800B9022E08031CBA03BA02EE2D83160313CA
:100BD800B901BA0139083A040319F32DF42D0B2E83
:100BE8002030AD00490884002D08831780000130AB
:100BF800AD002D08C907FF30B9070318BA0AFF303E
:100C0800BA0739083A04031D0A2E0B2EF42D0330B7
:100C18003705AD0000303805AE002D082E04031945
:100C2800162E172E922E2D30AD00490884002D085F
:100C3800831780000130AD002D08C907922E0030BF
:100C480083120313AB000030AA000030A9000A3059
:100C5800A800831603134A08AD0001300310AD0D38
:100C6800FF3E031D322E03102D0D693E84000A122B
:100C78008A150A200A128A1183120313A0000A1285
:100C88008A150A200A128A11A1000A128A150A2056
:100C98000A128A11A2000A128A150A200A128A1157
:100CA800A30083160313420883120313A7008316B5
:100CB8000313410883120313A60083160313400885
:100CC80083120313A500831603133F08831203132B
:100CD800A4000A168A152A240A128A1183120313F9
:100CE8002308AF002208AE002108AD002008AC00A0
:100CF8000A168A157B230A128A11831203132808FD
:100D0800303E83160313AE002E08CC004C08AD000D
:100D1800490884002D08831780001E2EFF30CA075B
:100D28000318CB0AFF30CB074A0A031D9F2E4B0A34
:100D3800031D9F2EA02E232E0130A807FF30280761
:100D480084000A128A150A200A128A11AD002D0899
:100D5800CC004C08031DB12EB42E0A168A11002DA2
:100D680049088400831780010800031083120313C5
:100D7800220D230DF3007308F9007908031DC52E11
:100D8800C62ECF2E0030A3000030A2000030A100F4
:100D98000030A000782F0310260D270DF3007308EC
:100DA800F8007808031DD92EDA2EDB2EC62EA217DE
:100DB800FF30A005FF30A105FF30A2050030A305D4
:100DC800A617FF30A405FF30A505FF30A6050030A3
:100DD800A7050030F7000030F6000030F5000030BD
:100DE800F4007F30F902A0307807F3007308F902A5
:100DF8002030F3007308F8000130F3000310F40DFD
:100E0800F50DF60DF70DF30B022F27082302031D2E
:100E1800172F26082202031D172F25082102031D5C
:100E2800172F24082002031C1A2F1B2F2A2F2408EF
:100E3800A0022508031C250FA1022608031C260F63
:100E4800A2022708031C270FA30274140130F30021
:100E58000310A00DA10DA20DA30DF30B2C2F013033
:100E6800F802031D382F392F002FF91F3C2F3D2F73
:100E7800572F7908803A9F3E0318432F442F452F58
:100E8800C62E01300310F70CF60CF50CF40CFF3EDF
:100E9800031D462F0130F3007308F907031D552F72
:100EA800562F452F6E2F20307902031C5C2F5D2FA3
:100EB800692FC62E0130F3000310F40DF50DF60D61
:100EC800F70DF30B602F0130F9027908031D6D2F20
:100ED8006E2F5E2F770883120313A3007608A200F3
:100EE8007508A1007408A0000800031083120313FA
:100EF800590D5A0DDB005B08E1006108031D852FC1
:100F0800862F8F2F0030DA000030D9000030D8004B
:100F18000030D700F42F5708DB005808DC005908C8
:100F2800DD005A08DE001F300310DE0CDD0CDC0C7F
:100F3800DB0CFF3E031D982F5B08DF005F08E00015
:100F4800D917FF30D705FF30D805FF30D905003055
:100F5800DA059630E102E11FB22FB32FCD2F6108D9
:100F6800803A973E0318B92FBA2FBB2F862F01302E
:100F78000310DA0CD90CD80CD70CFF3E031DBC2F7C
:100F88000130DB005B08E107031DCB2FCC2FBB2F03
:100F9800E42F20306102031CD22FD32FDF2F862F9E
:100FA8000130DB000310D70DD80DD90DDA0DDB0B9E
:100FB800D62F0130E1026108031DE32FE42FD42F5F
:100FC80060080319E82FE92FF42FD709D809D909A0
:100FD800DA09D70A0319D80A0319D90A0319DA0A48
:100FE800080076087504740473040319FC2FFD2F98
:100FF800FF2F8030F6060800FF1B0A2883137F188E
:1010080083170008840A0319FF0A080008308A00B9
:101018000408840A820700340034003480343F34E2
:10102800003400342034413400340034C8344234AD
:10103800003400347A344434003440341C344634A8
:1010480000345034C33447340034243474344934BD
:101058008034963418344B342034BC34BE344C3489
:1010680028346B346E344E34F93402341534503429
:10107800EC347834AD346034CA34F23449347134E1
:101088000034003480343F34CD34CC34CC343D3457
:101098000A34D73423343C346F34123483343A342A
:1010A8001734B734D1343834AC34C53427343734F2
:1010B800BD343734863435349534BF34D63433347C
:1010C8007734CC342B3432345F3470348934303450
:1010D800FF34E634DB342E340834E5343C341E3433
:1010E80060344234A2340D34013400340034003406
:1010F8000A340034003400346434003400340034DA
:10110800E834033400340034103427340034003415
:10111800A034863401340034403442340F3400346F
:1011280080349634983400340034E134F53405348E
:101138000034CA349A343B34533431343A3420348A
:1011480020342034533432343A3420342034203498
:101158002034533433343A340034253433342E3481
:101168003234663456340034203420342034003489
:1011780025346434003401340134F400F3013A3086
:1011880074020318C828C928D12830307402031CF7
:10119800CE28CF28D128F301F30A730C0800831254
:1011A8000313A601A11FD928DA28E128A009A1095B
:1011B800A00A0319A10AA601A60AA31FE428E52884
:1011C800EE28A209A309A20A0319A30A0130A40060
:1011D8002408A606A701A801200821040319F52858
:1011E800F6282D29A501A50A042901300310A00D10
:1011F800A10DFF3E031DFA280130A4002408A5070D
:10120800A11F07290829F92801300310A70DA80DE7
:10121800FF3E031D092921082302031D1529200863
:101228002202031C1829192920292008A2022108B2
:10123800031CA303A302271401300310A10CA00C64
:10124800FF3E031D21290130A502031D2C292D294C
:10125800082926080319312932293729A709A80995
:10126800A70A0319A80A2808A1002708A00008004F
:10127800831203132D088039B2003208B7002D08F5
:10128800B2003207B3003308BD00AC1F4C294D290A
:101298004E293D143D0803195229532962293D0A54
:1012A800031D5729582960290030AD000030AC00D3
:1012B8000030AB000030AA00AC176A290030AD003E
:1012C8000030AC000030AB000030AA003108803993
:1012D800B2003208B7063108B2003207B30033084B
:1012E800BC00B01F782979297A293C143C080319D5
:1012F8007E297F298E293C0A031D832984298C296C
:101308000030B1000030B0000030AF000030AE0057
:10131800B01796290030B1000030B0000030AF009F
:101328000030AE003C0803199A299B29A0293D08E2
:10133800031D9F29A029A9290030AD000030AC0069
:101348000030AB000030AA009C2C2A08B2003208FA
:10135800F30030080A168A15E9200A128A1574085B
:1013680083120313C3007308C2004208B200B3011A
:10137800B401B5013508BB003408BA003308B90018
:101388003208B8004308B200B301B401B50135080A
:10139800C1003408C0003308BF003208BE002B0863
:1013A800B2003208F3002F080A168A15E9200A123B
:1013B8008A15740883120313C3007308C200420815
:1013C800B200B301B401B5013208B80733080311FC
:1013D8000318013E0319F129B9073408031103184A
:1013E800013E0319F829BA07350803110318013E0D
:1013F8000319FF29BB074308B200B301B401B501C3
:101408003208BE07330803110318013E03190D2AD9
:10141800BF07340803110318013E0319142AC00733
:10142800350803110318013E03191B2AC1072C08AC
:10143800B2003208F3002E080A168A15E9200A12AB
:101448008A15740883120313C3007308C200420884
:10145800B200B301B401B5013208B807330803116B
:101468000318013E0319392AB90734080311031870
:10147800013E0319402ABA07350803110318013E33
:101488000319472ABB074308B200B301B401B501E9
:101498003208BE07330803110318013E0319552A01
:1014A800BF07340803110318013E03195C2AC0075B
:1014B800350803110318013E0319632AC1070830D0
:1014C800B2000310B80DB90DBA0DBB0DB20B652AE9
:1014D8002B08B2003208F3002E080A168A15E920F4
:1014E8000A128A15740883120313C3007308C20012
:1014F8004208B2004308B300B401B5013208B80786
:10150800330803110318013E03198B2AB90734085D
:1015180003110318013E0319922ABA07350803116B
:101528000318013E0319992ABB072A08B20032089A
:10153800F3002F080A168A15E9200A128A1574087A
:1015480083120313C3007308C2004208B2004308A1
:10155800B300B401B5013208B80733080311031802
:10156800013E0319B82AB907340803110318013ECC
:101578000319BF2ABA07350803110318013E0319D6
:10158800C62ABB070830B2000310B80DB90DBA0D52
:10159800BB0DB20BC82A2A08B2003208F3002E0885
:1015A8000A168A15E9200A128A1574088312031389
:1015B800C3007308C2004208B2004308B300B40174
:1015C800B5013208B807330803110318013E03199F
:1015D800EE2AB907340803110318013E0319F52A46
:1015E800BA07350803110318013E0319FC2ABB0783
:1015F8002B08B2003208F30030080A168A15E920D1
:101608000A128A15740883120313C3007308C200F0
:101618004208B2004308B300B401B5013208BE075E
:10162800330803110318013E03191B2BBF073408A5
:1016380003110318013E0319222BC00735080311B3
:101648000318013E0319292BC1072C08B2003208E0
:10165800F3002F080A168A15E9200A128A15740859
:1016680083120313C3007308C2004208B200430880
:10167800B300B401B5013208BE07330803110318DB
:10168800013E0319482BBF07340803110318013E14
:1016980003194F2BC007350803110318013E03191E
:1016A800562BC1072C08B2003208F30030080A167E
:1016B8008A15E9200A128A15740883120313C300D5
:1016C8007308C2004208B2004308B300B401B50170
:1016D80008300310B20DB30DB40DB50DFF3E031D58
:1016E8006D2B3208BE07330803110318013E031996
:1016F8007E2BBF07340803110318013E0319852BFD
:10170800C007350803110318013E03198C2BC107C4
:101718003808B2003908B3003A08B4003B08B500ED
:1017280018300310B50CB40CB30CB20CFF3E031DFB
:10173800952B3208BE07330803110318013E03191D
:10174800A62BBF07340803110318013E0319AD2B5C
:10175800C007350803110318013E0319B42BC1074C
:101768000830B2000310B80DB90DBA0DBB0DB20B9D
:10177800B62B3D083C07B200B301B30D3208823ED8
:10178800C20033080318013EFF3EC300E82B0130B6
:10179800B2000310BE0DBF0DC00DC10DB20BCD2B95
:1017A800BB1FD72BD82BD92B3E140130B200031006
:1017B800B80DB90DBA0DBB0DB20BDB2BFF30C2074C
:1017C8000318C30AFF30C307C01FEB2BEC2BCB2B2E
:1017D800BC01BB1FF02BF12B0D2CFF303805B200DC
:1017E800FF303905B300FF303A05B4007F303B05C0
:1017F800B50035083404330432040319042C052CCD
:10180800082CBC01BC0A0D2C3E1C0B2C0C2C0D2CDE
:10181800052C3C080319112C122C432C0130BE074F
:10182800003003180130BF07003003180130C0072B
:10183800003003180130C107411C232C242C432CF1
:101848003E08B2003F08B3004008B4004108B500A4
:101858000130B600350DB50CB40CB30CB20CB60B98
:101868002E2C3508C1003408C0003308BF003208E8
:10187800BE000130C2070318C30A0030C30743087B
:10188800803AFF0080307F02031D4C2CFF3042025B
:10189800031C4F2C502C5B2C7F3083120313C10088
:1018A8008030C0000030BF000030BE00902C831292
:1018B80003134308803AFF0080307F02031D662C23
:1018C800013042020318692C6A2C762C00308312EE
:1018D8000313C1000030C0000030BF000030BE005C
:1018E800B701902C831203134208B2003208BD00DE
:1018F800FF30BE05FF30BF057F30C0050030C10591
:101908003D1C872C882C892CC0173D08B200031079
:10191800320CB3003308C1003708B2003208C104E2
:101928004108AD004008AC003F08AB003E08AA00E3
:10193800080083120313D600D61FA32CA42C532E01
:10194800D609D60A5608803A123E031CAC2CAD2C98
:10195800972D0A30A0000030A1005608F500F601C6
:10196800F51BF6036430F3000030F4000A168A15FC
:10197800D1230A128A15740883120313A30073086B
:10198800A2000A128A15D3200A128A158312031399
:101998002008C80001300310C80DFF3E031DCF2CDE
:1019A8000310480D593E84000A128A150A200A12AB
:1019B8008A15C9000A128A150A200A128A15CA004D
:1019C8000A128A150A200A128A15CB000A128A15E9
:1019D8000A200A128A15CC004C08AD004B08AC004E
:1019E8004A08AB004908AA006430A0000030A100F2
:1019F8005608A200A301A21BA3030A128A15D3202A
:101A08000A128A15831203132008CD00013003102F
:101A1800CD0DFF3E031D0B2D03104D0D7D3E8400A3
:101A28000A128A150A200A128A15CE000A128A1585
:101A38000A200A128A15CF000A128A150A200A12E9
:101A48008A15D0000A128A150A200A128A15D100AE
:101A58005108B1005008B0004F08AF004E08AE0062
:101A68000A128A153C210A128A15831203132D08BB
:101A7800D5002C08D4002B08D3002A08D2000A303D
:101A8800F3000030F4005608F500F601F51BF603E4
:101A98000A168A15D1230A128A15730883120313AA
:101AA800C80001300310C80DFF3E031D562D03105A
:101AB800480D353E84000A128A150A200A128A1532
:101AC800C9000A128A150A200A128A15CA000A12BF
:101AD8008A150A200A128A15CB000A128A150A20CA
:101AE8000A128A15CC004C08AD004B08AC004A0815
:101AF800AB004908AA005508B1005408B0005308C3
:101B0800AF005208AE000A128A153C210A128A1543
:101B1800831203132D08C7002C08C6002B08C50024
:101B28002A08C400FF2F5608803A753E031C9D2DD5
:101B38009E2D262E0A30F3000030F4005608F500DA
:101B4800F601F51BF6030A168A15D1230A128A151F
:101B5800730883120313C80001300310C80DFF3E39
:101B6800031DB12D0310480D353E84000A128A1555
:101B78000A200A128A15C9000A128A150A200A12AE
:101B88008A15CA000A128A150A200A128A15CB0079
:101B98000A128A150A200A128A15CC004C08AD00D0
:101BA8004B08AC004A08AB004908AA000A30A0005C
:101BB8000030A1005608A200A301A21BA3030A1229
:101BC8008A15D3200A128A15831203132008CD0020
:101BD80001300310CD0DFF3E031DED2D03104D0DFB
:101BE800593E84000A128A150A200A128A15CE0064
:101BF8000A128A150A200A128A15CF000A128A15B3
:101C08000A200A128A15D0000A128A150A200A1216
:101C18008A15D1005108B1005008B0004F08AF0034
:101C28004E08AE000A128A153C210A128A15831240
:101C380003132D08C7002C08C6002B08C5002A0866
:101C4800C400FF2F5608C80001300310C80DFF3E1E
:101C5800031D292E0310480D353E84000A128A15EB
:101C68000A200A128A15C9000A128A150A200A12BD
:101C78008A15CA000A128A150A200A128A15CB0088
:101C88000A128A150A200A128A15CC004C08C700C5
:101C98004B08C6004A08C5004908C400FF2F56086B
:101CA800803A123E031C592E5A2E442F0A30A000A7
:101CB8000030A1005608F500F601F51BF603643064
:101CC800F3000030F4000A168A15D1230A128A1587
:101CD800740883120313A3007308A2000A128A155A
:101CE800D3200A128A15831203132008C800013072
:101CF8000310C80DFF3E031D7C2E0310480D253E22
:101D080084000A128A150A200A128A15C9000A12C2
:101D18008A150A200A128A15CA000A128A150A2088
:101D28000A128A15CB000A128A150A200A128A1585
:101D3800CC004C08AD004B08AC004A08AB00490881
:101D4800AA006430A0000030A1005608A200A30138
:101D5800A21BA3030A128A15D3200A128A1583121A
:101D680003132008CD0001300310CD0DFF3E031DE5
:101D7800B82E03104D0D493E84000A128A150A2018
:101D88000A128A15CE000A128A150A200A128A1522
:101D9800CF000A128A150A200A128A15D0000A12E0
:101DA8008A150A200A128A15D1005108B100500874
:101DB800B0004F08AF004E08AE000A128A153C2149
:101DC8000A128A15831203132D08D5002C08D40093
:101DD8002B08D3002A08D2000A30F3000030F400A0
:101DE8005608F500F601F51BF6030A168A15D123E5
:101DF8000A128A15730883120313C80001300310EE
:101E0800C80DFF3E031D032F0310480D013E84003B
:101E18000A128A150A200A128A15C9000A128A1596
:101E28000A200A128A15CA000A128A150A200A12FA
:101E38008A15CB000A128A150A200A128A15CC00C4
:101E48004C08AD004B08AC004A08AB004908AA0092
:101E58005508B1005408B0005308AF005208AE004E
:101E68000A128A153C210A128A15831203132D08B7
:101E7800C7002C08C6002B08C5002A08C400FF2F7D
:101E88005608803A753E031C4A2F4B2FD32F0A3031
:101E9800F3000030F4005608F500F601F51BF603D0
:101EA8000A168A15D1230A128A1573088312031396
:101EB800C80001300310C80DFF3E031D5E2F03103C
:101EC800480D013E84000A128A150A200A128A1552
:101ED800C9000A128A150A200A128A15CA000A12AB
:101EE8008A150A200A128A15CB000A128A150A20B6
:101EF8000A128A15CC004C08AD004B08AC004A0801
:101F0800AB004908AA000A30A0000030A10056081A
:101F1800A200A301A21BA3030A128A15D3200A1246
:101F28008A15831203132008CD0001300310CD0D4C
:101F3800FF3E031D9A2F03104D0D253E84000A1203
:101F48008A150A200A128A15CE000A128A150A2052
:101F58000A128A15CF000A128A150A200A128A154F
:101F6800D0000A128A150A200A128A15D1005108CF
:101F7800B1005008B0004F08AF004E08AE000A127A
:101F88008A153C210A128A15831203132D08C700EB
:101F98002C08C6002B08C5002A08C400FF2F5608C5
:101FA800C80001300310C80DFF3E031DD62F0310D3
:101FB800480D013E84000A128A150A200A128A1561
:101FC800C9000A128A150A200A128A15CA000A12BA
:101FD8008A150A200A128A15CB000A128A150A20C5
:101FE8000A128A15CC004C08C7004B08C6004A08DC
:081FF800C5004908C4000800FF
:10200A0083120313CC003C30AD009F30AC00BE30CD
:10201A00AB007730AA004C08C800C901CA01CB013D
:10202A004B08F6004A08F5004908F4004808F3008E
:10203A0001300A168A1536250A168A11760883127D
:10204A000313B1007508B0007408AF007308AE003E
:10205A000A128A153C210A168A11831203132D08C3
:10206A0083160313D000831203132C088316031359
:10207A00CF00831203132B0883160313CE00831297
:10208A0003132A0883160313CD005008831203137F
:10209A00C700831603134F0883120313C60083165F
:1020AA0003134E0883120313C500831603134D0846
:1020BA0083120313C400080083120313D7006E307F
:1020CA005702031C69286A2879293F30AD0000307D
:1020DA00AC000030AB000030AA006430A000003031
:1020EA00A1005708C800C9014808A2004908A3006E
:1020FA000A168A1595220A168A11831203132008D2
:10210A00CA0001300310CA0DFF3E031D87280310C1
:10211A004A0D7D3E84000A128A150A200A168A117F
:10212A00CB000A128A150A200A168A11CC000A1252
:10213A008A150A200A168A11CD000A128A150A205F
:10214A000A168A11CE004E08B1004D08B0004C089C
:10215A00AF004B08AE000A128A153C210A168A11F2
:10216A00831203132D08D6002C08D5002B08D4009F
:10217A002A08D3000A30A0000030A1005708C8007E
:10218A00C9014808F5004908F6006430F300003038
:10219A00F4000A168A1512210A168A117408831283
:1021AA000313A3007308A2000A168A1595220A16B9
:1021BA008A11831203132008CA0001300310CA0DC2
:1021CA00FF3E031DE32803104A0D593E84000A12FC
:1021DA008A150A200A168A11CB000A128A150A20C1
:1021EA000A168A11CC000A128A150A200A168A11BE
:1021FA00CD000A128A150A200A168A11CE004E0844
:10220A00AD004D08AC004C08AB004B08AA005608BC
:10221A00B1005508B0005408AF005308AE000A12C6
:10222A008A153C210A168A11831203132D08D2003B
:10223A002C08D1002B08D0002A08CF000A30F3005E
:10224A000030F4005708C800C9014808F5004908D9
:10225A00F6000A168A1512210A168A1173088312C1
:10226A000313CA0001300310CA0DFF3E031D3829AB
:10227A0003104A0D353E84000A128A150A200A16EE
:10228A008A11CB000A128A150A200A168A11CC0072
:10229A000A128A150A200A168A11CD000A128A150C
:1022AA000A200A168A11CE004E08AD004D08AC006D
:1022BA004C08AB004B08AA005208B1005108B00004
:1022CA005008AF004F08AE000A128A153C210A16C0
:1022DA008A11831203132D08C7002C08C6002B0885
:1022EA00C5002A08C4006D2A0B305702031C7E2938
:1022FA007F292A2A3F30AD000030AC000030AB0005
:10230A000030AA000A30A0000030A1005708C80017
:10231A00C9014808A2004908A3000A168A1595228D
:10232A000A168A11831203132008CA000130031007
:10233A00CA0DFF3E031D9C2903104A0D593E840015
:10234A000A128A150A200A168A11CB000A128A155D
:10235A000A200A168A11CC000A128A150A200A16BD
:10236A008A11CD000A128A150A200A168A11CE008D
:10237A004E08B1004D08B0004C08AF004B08AE0043
:10238A000A128A153C210A168A11831203132D0890
:10239A00D6002C08D5002B08D4002A08D3000A300E
:1023AA00F3000030F4005708C800C9014808F500D6
:1023BA004908F6000A168A1512210A168A117308A4
:1023CA0083120313CA0001300310CA0DFF3E031D16
:1023DA00E92903104A0D353E84000A128A150A209B
:1023EA000A168A11CB000A128A150A200A168A11BD
:1023FA00CC000A128A150A200A168A11CD000A127E
:10240A008A150A200A168A11CE004E08AD004D0818
:10241A00AC004C08AB004B08AA005608B10055089E
:10242A00B0005408AF005308AE000A128A153C21C6
:10243A000A168A11831203132D08C7002C08C60036
:10244A002B08C5002A08C4006D2A3F30AD000030B1
:10245A00AC000030AB000030AA005708C8000130B9
:10246A000310C80DFF3E031D352A0310480D353EE3
:10247A0084000A128A150A200A168A11C9000A1249
:10248A008A150A200A168A11CA000A128A150A200F
:10249A000A168A11CB000A128A150A200A168A110C
:1024AA00CC004C08B1004B08B0004A08AF004908FC
:1024BA00AE000A128A153C210A168A1183120313E6
:1024CA002D08C7002C08C6002B08C5002A08C4001E
:1024DA000800831203135B088039E0006008E800F3
:1024EA005B08E0006007E1006108EA00DA1F7E2A63
:1024FA007F2A802A6A146A080319842A852A952A57
:10250A006A0A031D892A8A2A922A0030DB000030CF
:10251A00DA000030D9000030D800DA17DB019D2A32
:10252A000030DB000030DA000030D9000030D8007B
:10253A005F088039E0006008E90069086806031945
:10254A00A72AA82AA92A68175F08E0006007E100FD
:10255A006108E900DE1FB22AB32AB42A691469089D
:10256A000319B82AB92AC92A690A031DBD2ABE2A2B
:10257A00C62A0030DF000030DE000030DD00003007
:10258A00DC00DE17DF01D12A0030DF000030DE0078
:10259A000030DD000030DC006A0869020318D62A20
:1025AA00D72A1B2B681FDA2ADB2ADF2A8030E000B1
:1025BA006008E8066A08E0006008EB006908E000C5
:1025CA006008EA006B08E0006008E9005808E000CB
:1025DA006008EB005C08E0006008D8006B08E000C7
:1025EA006008DC005908E0006008EB005D08E000C4
:1025FA006008D9006B08E0006008DD005A08E000B6
:10260A006008EB005E08E0006008DA006B08E00092
:10261A006008DE005B08E0006008EB005F08E0008D
:10262A006008DB006B08E0006008DF00EB01690866
:10263A00E000E1016108E3006A086002E200031CAD
:10264A00E3036308803AFF0080307F02031D2F2BCB
:10265A001A306202031C322B332B702B83120313A2
:10266A005B085A0459045804031D3C2B3E2B0130C5
:10267A003F2B0030E0006008EB000030DB00003048
:10268A00DA000030D9000030D8006908E00060089C
:10269A00EA00782B6B1C522B532B5C2B6B08E00047
:1026AA000310600C0138E1006108EB005E2B031097
:1026BA00EB0C581C612B622B632BEB170130E000EB
:1026CA005B0DDB0CDA0CD90CD80CE00B652B013056
:1026DA00E0006008EA078312031369086A02031C10
:1026EA00772B782B4F2B681B7B2B7C2BC72B6A08ED
:1026FA00031D802B812B8A2B0030DB000030DA008F
:10270A000030D9000030D800F52C5C08D8075D08E5
:10271A0003110318013E0319932BD9075E0803110D
:10272A000318013E03199A2BDA075F0803110318ED
:10273A00013E0319A12BDB075B1CA42BA52B7B2CC9
:10274A006B1CA82BA92BB22B6B08E0000310600CA2
:10275A000138E1006108EB00B42B0310EB0C581CA4
:10276A00B72BB82BB92BEB170130E0005B0DDB0C54
:10277A00DA0CD90CD80CE00BBB2B0130E000600856
:10278A00EA077B2C5B08803AFF005F08803A7F02E9
:10279A00031DD92B5E085A02031DD92B5D08590265
:1027AA00031DD92B5C0858020318DC2BDD2B352CB2
:1027BA00FF30E000FF30E100FF30E200FF30E300CD
:1027CA005C08E4005D08E5005E08E6005F08E700D3
:1027DA005808E4025908031C590FF42BF52BE5029B
:1027EA005A08031C5A0FFA2BFB2BE6025B08031C40
:1027FA005B0F002C012CE7026408E0076508031848
:10280A00650F082C092CE10766080318660F0E2CC1
:10281A000F2CE20767080318670AE3076308DB005F
:10282A006208DA006108D9006008D8008030E00048
:10283A006008E806EB09EB0A6B08031D252C262C19
:10284A00432C0130D807003003180130D907003073
:10285A0003180130DA07003003180130DB07432C74
:10286A005C08D8025D08031C5D0FD9025E08031CD0
:10287A005E0FDA025F08031C5F0FDB025B085A0473
:10288A0059045804031D4A2C4B2C772C6B08031D42
:10289A004F2C502C772C0030DB000030DA0000304F
:1028AA00D9000030D800F52C0130E0000310D80D13
:1028BA00D90DDA0DDB0DE00B5B2CEB1F652C662CBA
:1028CA00672C58146B1C6A2C6B2C6E2C0314EB0DA2
:1028DA00702C0310EB0D6A080319742C752C772CD5
:1028EA000130EA02DA1F7A2C7B2C592CE901EB1F02
:1028FA007F2C802C8E2C6B087F390319852C862C13
:10290A00892CE901E90A8E2C581C8C2C8D2C8E2CD2
:10291A00862C69080319922C932CC72C0130D807EE
:10292A00003003180130D907003003180130DA07E4
:10293A00003003180130DB075B1CA42CA52CC72C24
:10294A005808E0005908E1005A08E2005B08E30071
:10295A000130E400630DE30CE20CE10CE00CE40B43
:10296A00AF2C6308DB006208DA006108D90060084E
:10297A00D8006A0A0319C22CC32CC72C0130E00004
:10298A006008EA076A0A0319CB2CCC2CD12C6A08F6
:10299A00031DD02CD12CDF2C0030DB000030DA00F4
:1029AA000030D9000030D8006A08031DDD2CDE2C67
:1029BA00DF2CE8016A1CE22CE32CE52CDA17E92C5F
:1029CA007F30E0006008DA056A08E0000310600C56
:1029DA00E1006108DB00E81FF32CF42CF52CDB176F
:1029EA00080083160313C900A930AD002D08B600EC
:1029FA000A128A11A02E25304C060319052D062D20
:102A0A00122D4C08AD00490884002D088317800058
:102A1A000130AD002D08C907FD2CB901BA01B70173
:102A2A00B801280884000A128A150A200A168A118F
:102A3A000A128A15C1200A168A11031C252D262D71
:102A4A00662D83160313B901BA010A30F300003068
:102A5A00F400831603133A08F6003908F5000A163B
:102A6A008A159E200A168A11740883160313BA005F
:102A7A007308B900280884000A128A150A200A165F
:102A8A008A11D03EAD00FF3003180030AE002D0889
:102A9A00B9070318BA0A2E08BA070130AD002D0883
:102AAA00A807280884000A128A150A200A168A1119
:102ABA000A128A15C1200A168A110318652D662D75
:102ACA002A2D83160313280884000A128A150A205D
:102ADA000A168A112E3A031D732D742DB92D381733
:102AEA000130AD002D08A807CA01CB01A82D0A3074
:102AFA00F3000030F400831603134B08F6004A086B
:102B0A00F5000A168A159E200A168A117408831679
:102B1A000313CB007308CA00280884000A128A1516
:102B2A000A200A168A11D03EAD00FF300318003081
:102B3A00AE002D08CA070318CB0A2E08CB070130AE
:102B4A00AD002D08A807280884000A128A150A2051
:102B5A000A168A110A128A15C1200A168A1103183E
:102B6A00B72DB82D7C2DBF2DCA01CB013816BF2D2C
:102B7A003815E12D013083160313A807FF30280703
:102B8A0084000A128A150A200A168A11CC00AD009E
:102B9A00AE012E08003A0319D32DFD2C2D08003A58
:102BAA000319FD2F643A0319E12D023A0319BD2DC9
:102BBA000F3A0319E12DFD2C00303705AD0007301F
:102BCA003805AE002D082E040319EC2DEF2D0A123C
:102BDA008A11F12C381EF22DF32DF72D0630CA007A
:102BEA000030CB003608840083130008C500840A2D
:102BFA000008C600840A0008C700840A0008C80042
:102C0A000430AD002D08B607480883120313A30049
:102C1A0083160313470883120313A20083160313B0
:102C2A00460883120313A10083160313450883126F
:102C3A000313A0000030A7000030A6000030A50052
:102C4A000030A4000A168A1592240A168A1103185B
:102C5A002F2E302E4D2E831603134808F6004708F0
:102C6A00F5004608F4004508F3000A128A11F52710
:102C7A000A168A11760883160313C8007508C70056
:102C8A007408C6007308C5000330B7040030B804DE
:102C9A0083160313C301C401480883120313A30054
:102CAA0083160313470883120313A2008316031320
:102CBA00460883120313A1008316031345088312DF
:102CCA000313A0000030A7000030A6000030A500C2
:102CDA000030A4000A168A15DB220A168A11031884
:102CEA00772E782E942F031083160313470D480D61
:102CFA00823EC300FF3003180030C400FF30C30710
:102D0A000318C40AFF30C4070330F3000030F4008C
:102D1A004408F6004308F5000A168A159E200A168A
:102D2A008A11740883160313C4007308C3000A3097
:102D3A0083120313A0000030A10083160313440872
:102D4A0083120313A3008316031343088312031386
:102D5A00A2000A128A15D3200A168A1183120313B3
:102D6A00210883160313C400831203132008831651
:102D7A000313C300C41FC22EC32EC92EFF30C307BC
:102D8A000318C40AFF30C4074303FF3A0A128A151C
:102D9A009D240A168A118312031347088316031304
:102DAA00BE0083120313460883160313BD00831261
:102DBA000313450883160313BC0083120313440844
:102DCA0083160313BB00480883120313AD0083164E
:102DDA000313470883120313AC0083160313460830
:102DEA0083120313AB0083160313450883120313DC
:102DFA00AA00831603133E0883120313B100831635
:102E0A0003133D0883120313B000831603133C080F
:102E1A0083120313AF00831603133B0883120313B1
:102E2A00AE000A128A153C210A168A11831203136C
:102E3A002D0883160313BE00831203132C0883166E
:102E4A000313BD00831203132B0883160313BC005C
:102E5A00831203132A0883160313BB003E08831246
:102E6A000313A300831603133D0883120313A2005E
:102E7A00831603133C0883120313A100831603135A
:102E8A003B0883120313A0003F30A7008030A6003E
:102E9A000030A5000030A4000A168A1592240A16EA
:102EAA008A110318592F5A2F632FFF3083160313E1
:102EBA00C3070318C40AFF30C407942F83160313E9
:102ECA003E0883120313A300831603133D088312DB
:102EDA000313A200831603133C0883120313A100F1
:102EEA00831603133B0883120313A0004130A70083
:102EFA002030A6000030A5000030A4000A168A156A
:102F0A0092240A168A11031C8B2F8C2F942F0130BE
:102F1A0083160313C3070318C40A0030C4078316B1
:102F2A0003134B08803AFF0080307F02031D9F2F56
:102F3A000D304A020318A22FA32FEA2F8316031378
:102F4A004A080A168A1161200A168A118312031383
:102F5A004708DB004608DA004508D9004408D800CB
:102F6A0083160313480883120313DF00831603131F
:102F7A00470883120313DE008316031346088312DD
:102F8A000313DD0083160313450883120313DC00C1
:102F9A000A168A116E220A168A11831203135B0813
:102FAA0083160313C800831203135A0883160313E4
:102FBA00C70083120313590883160313C60083122A
:102FCA000313580883160313C50083160313440812
:102FDA00803AFF0080307F02031DF52F0A3043023A
:102FEA000318FA2F0A128A1137280A128A11962808
:062FFA000A128A11B42E38
:10304200F3007308831203138800080064008001F0
:10305200840A040603190034040628288312031381
:1030620018161811831603138C1683120313981063
:10307200080000300A168A1569200A168A150130DE
:103082000A168A1569200A168A1508008316031380
:1030920018129816181183160317871519308316FC
:1030A200031399008312031398178B1708008316D2
:1030B20003138801803087008901033083160317C8
:1030C20088008312031387018801890186010800A1
:1030D200F60083120313091076080A168A152120B6
:1030E2000A168A158312031389140B30F500623015
:1030F200F400F40B7A28F50B7A28000083120313EC
:1031020089100800F50083120313091475080A16C2
:103112008A1521200A168A158312031389141A307C
:10312200F400F40B922800008312031389101A3062
:10313200F400F40B9A2800000800F701F801731C50
:10314200A328A428AA287508F7070318F80A7608FE
:10315200F80701300310F50DF60DFF3E031DAB28F5
:1031620001300310F40CF30CFF3E031DB228730868
:103172007404031DBD28BE28A0287808F40077082F
:10318200F300080083120313A0002003031DCA28C2
:10319200CB28D72877087F3EF8007808A1002108BD
:1031A2000A168A1569200A168A15E82802302006AE
:1031B200031DDC28DD28E8287708BF3EF8007808E0
:1031C200A10021080A168A1569200A168A15080024
:1031D20083120313A400A001A1017308F500F601F4
:1031E2007508A2007608A300241CF828F928FF28F5
:1031F2002208A0070318A10A2308A107013003101F
:10320200A20DA30DFF3E031D00290310A40C2408E8
:10321200031D0C290D29F5282108F4002008F300CC
:103222000800730874040319172918294729F8019B
:10323200F80A262901300310F30DF40DFF3E031D99
:103242001C290130F7007708F807F41F29292A29D9
:103252001B2974087602031D302973087502031CAA
:10326200332934293A297308F5027408031CF6033A
:10327200F60201300310F40CF30CFF3E031D3B2950
:103282000130F802031D462947292A297608F4004D
:103292007508F3000800F600831603139F1303302A
:1032A200831603178800E8308B00831603130C176C
:1032B200831203130C137603031D602961297129FC
:1032C2007303031D65296629712941309F000D3062
:1032D200F400F40B6A29831203139F14F501862963
:1032E2007603031D7529762986297308031D7A2919
:1032F2007B29862945309F000D30F400F40B7F298D
:10330200831203139F14F501F50A750808000030B3
:103312000A168A1521200A168A153430F800F1306F
:10332200F700F70B9229F80B922997293F300A16DA
:103332008A1569200A168A151A30F800F830F70043
:10334200F70BA129F80BA12900003F300A168A15B4
:1033520069200A168A158530F700F70BAE293F302F
:103362000A168A1569200A168A1538300A168A152D
:1033720069200A168A150C300A168A1569200A165F
:103382008A1506300A168A1569200A168A15080057
:10339200F300730884008317000883120313990053
:1033A20083160313981CD629D729D129730A8400BE
:1033B2008317000883120313990083160313981CC2
:1033C200E329E429DE297308023E840083170008FA
:1033D20083120313990083160313981CF129F2290F
:1033E200EC297308033E8400831700088312031339
:1033F200990083160313981CFF29002AFA2920300A
:1034020083120313990083160313981C092A0A2AAC
:10341200042A0800F801F901302A78087607A10089
:103422007708A0000318A00AF81F182AA003831225
:1034320003132008A2002208FF00210884000A12B8
:103442008A1500200A168A150A168A1583200A167A
:103452008A150130F8070318F90A0030F9077808CD
:10346200760783120313A1007708A0000318A00AAD
:10347200F81F3C2AA003831203132008A20022088B
:10348200FF00210884000A128A1500200A168A15F4
:10349200003A031D4D2A4E2A0E2A080083120313F6
:1034A2000C1F542A552A792A6F08031D592A5A2AB1
:1034B200642A1E08F000700883160313DC00DD0185
:1034C200DE01DE0A722A6F03031D682A692A722A44
:1034D2001E08F000700883160313DB00DD01DD0A0D
:1034E200612A83160313DE01DE0A831203130C130F
:1034F2008C1E7C2A7D2A8E2A981C802A812A882A60
:103502001812C730F000F00B842A872A8E2A1A0874
:10351200F000700883160313D90072088A00710E36
:103522008300FE0E7E0E090083120313A401A5017F
:103532002008210403199E2A9F2AD62AA601A60A38
:10354200AD2A01300310A00DA10DFF3E031DA32AD9
:103552000130F9007908A607A11FB02AB12AA22AD0
:1035620001300310A40DA50DFF3E031DB22A210850
:103572002302031DBE2A20082202031CC12AC22ADA
:10358200C92A2008A2022108031CA303A3022414AF
:1035920001300310A10CA00CFF3E031DCA2A01300A
:1035A200A602031DD52AD62AB12A2508A10024087D
:1035B200A00008000030831203132005F30000303E
:1035C2002105F40080302205F5007F302305F60046
:1035D2007608750474047304031DF02AF12AF92A8B
:1035E2000030A3000030A2000030A1000030A00093
:1035F20000302405F30000302505F4008030260554
:10360200F5007F302705F60076087504740473040C
:10361200031D0C2B0D2B152B0030A7000030A6002C
:103622000030A5000030A40027082306031D232B29
:1036320026082206031D232B25082106031D232B02
:10364200240820060319262B272B292B03102A2BAB
:1036520003140800803083160313A306270883127D
:103662000313DB0083160313260883120313DA0005
:1036720083160313250883120313D9008316031339
:10368200240883120313D80083160313230883121A
:103692000313DF0083160313220883120313DE00D1
:1036A20083160313210883120313DD008316031309
:1036B200200883120313DC000A168A116E220A16EE
:1036C2008A15831203135B0883160313A300831264
:1036D20003135A0883160313A20083120313590813
:1036E20083160313A10083120313580883160313CE
:1036F200A0000800831203132B082A0429042804BB
:103702000319842B852BC82BB001B00A952B0130ED
:10371200F9000310A80DA90DAA0DAB0DF90B8A2B08
:103722000130F9007908B007AB1F982B992B882B31
:103732002B082F02031DA72B2A082E02031DA72BDD
:1037420029082D02031DA72B28082C02031CAA2BD3
:10375200AB2BB92B2808AC022908031C290FAD0298
:103762002A08031C2A0FAE022B08031C2B0FAF02E0
:1037720001300310AB0CAA0CA90CA80CFF3E031DD0
:10378200BA2B0130B002031DC72BC82B992B2F086F
:10379200AB002E08AA002D08A9002C08A8000800DA
:1037A200F901F61FD52BD62BDD2BF509F609F50A03
:1037B2000319F60AF901F90AF41FE02BE12BE62BB3
:1037C200F309F409F30A0319F40A730874040319D8
:1037D200EB2BEC2B1B2CF801F80AFA2B013003100F
:1037E200F30DF40DFF3E031DF02B0130F7007708B7
:1037F200F807F41FFD2BFE2BEF2B74087602031D36
:10380200042C73087502031C072C082C0E2C730859
:10381200F5027408031CF603F60201300310F40CDF
:10382200F30CFF3E031D0F2C0130F802031D1A2C6E
:103832001B2CFE2B790803191F2C202C252CF50993
:10384200F609F50A0319F60A7608F4007508F3007A
:1038520008000030F7000030F6000030F5000030BC
:10386200F400831203132308220421042004031901
:103872003B2C3C2C892CF801F80A4C2C0130F3002B
:103882000310A00DA10DA20DA30DF30B412C0130CD
:10389200F3007308F807A31F4F2C502C3F2C013064
:1038A200F3000310F40DF50DF60DF70DF30B522C8A
:1038B20023082702031D672C22082602031D672CFA
:1038C20021082502031D672C20082402031C6A2CF0
:1038D2006B2C7A2C2008A4022108031C210FA502BC
:1038E2002208031C220FA6022308031C230FA7028F
:1038F200741401300310A30CA20CA10CA00CFF3E07
:10390200031D7B2C0130F802031D882C892C502CBE
:103912007708A3007608A2007508A1007408A00029
:1039220008000030831203132005F3000030210544
:10393200F40080302205F5007F302305F60076087A
:10394200750474047304031DA72CA82CB02C00303A
:10395200A3000030A2000030A1000030A00000301F
:103962002405F30000302505F40080302605F5001B
:103972007F302705F6007608750474047304031D6E
:10398200C32CC42CCC2C0030A7000030A600003081
:10399200A5000030A400A31FCF2CD02CF42C0030A3
:1039A200F3000030F4000030F5008030F60020080B
:1039B200F3022108031C210FDF2CE02CF402220861
:1039C200031C220FE52CE62CF5022308031C230F0F
:1039D200EB2CEC2CF6027608A3007508A200740802
:1039E200A1007308A000A71FF72CF82C1C2D003093
:1039F200F3000030F4000030F5008030F6002408B7
:103A0200F3022508031C250F072D082DF4022608B2
:103A1200031C260F0D2D0E2DF5022708031C270F60
:103A2200132D142DF6027608A7007508A600740857
:103A3200A5007308A4008030A3068030A7062708DB
:103A42002302031D2E2D26082202031D2E2D2508DA
:103A52002102031D2E2D240820020318312D322DA0
:103A6200342D0310352D0314080083120313A40010
:103A7200240803193D2D3E2D522DF61F412D422DB6
:103A8200522D7309A6007409A7007509A8007609CA
:103A9200A900A60A0319A70A0319A80A0319A90A61
:103AA2005A2D7608A9007508A8007408A7007308A3
:103AB200A6007608750474047304031D612D622D3B
:103AC2006B2D0030F6000030F5000030F4000030BD
:103AD200F300F12D9630A0002008A5007D2D0130C5
:103AE200A0002008A50701300310A90CA80CA70C00
:103AF200A60CFF3E031D752DFE302905031D822DE8
:103B0200832D702D9F2D0130A0002008A5070130C4
:103B1200A607003003180130A70700300318013050
:103B2200A807003003180130A90701300310A90CBF
:103B3200A80CA70CA60CFF3E031D972DFF302905EC
:103B4200031DA42DA52D842DB12D0130A502013018
:103B5200A0000310A60DA70DA80DA90DA00BAA2D5C
:103B6200A81BB42DB52DBB2D023025020318BA2D8A
:103B7200BB2DA62D2518BE2DBF2DC72DFF30A605A6
:103B8200FF30A7057F30A805FF30A9050310A50C5B
:103B92002508A000A101A201A30118300310A00D65
:103BA200A10DA20DA30DFF3E031DCF2D2008A604DB
:103BB2002108A7042208A8042308A9042408031939
:103BC200E32DE42DE92DF61FE72DE82DE92DA917A8
:103BD2002908F6002808F5002708F4002608F30053
:103BE2000800831203132008F3002108F4002208BE
:103BF200F5000310740D750DF6007608AD002D0862
:103C0200031D042E052E0E2E0030A3000030A2004C
:103C12000030A1000030A000AE2E2408F3002508D9
:103C2200F4002608F5000310740D750DF6007608F1
:103C3200AC002C08031D1E2E1F2E202E052EA117B0
:103C4200FF30A005FF30A1050030A205A517FF3007
:103C5200A405FF30A5050030A6050030AB000030FA
:103C6200AA000030A9000030A8007F30AD029830D1
:103C72002C07F3007308AD021830F3007308AC0090
:103C82000130F3000310A80DA90DAA0DAB0DF30B23
:103C9200432E26082202031D542E25082102031D4D
:103CA200542E24082002031C572E582E632E24085B
:103CB200A0022508031C250FA1022608031C260AC0
:103CC200A202281401300310A00DA10DA20DFF3E87
:103CD200031D642E0130AC02031D702E712E412E85
:103CE200AD1F742E752E8F2E2D08803A973E031825
:103CF2007B2E7C2E7D2E052E01300310AB0CAA0CE0
:103D0200A90CA80CFF3E031D7E2E0130F3007308A0
:103D1200AD07031D8D2E8E2E7D2EA62E18302D0260
:103D2200031C942E952EA12E052E0130F3000310B4
:103D3200A80DA90DAA0DAB0DF30B982E0130AD0203
:103D42002D08031DA52EA62E962E2B08A3002A08A9
:103D5200A2002908A1002808A00008000A168A1556
:103D620058200A168A150A168A1547200A168A1535
:103D72000A168A152F200A168A150A168A1588210C
:103D82000A168A150A168A153A200A168A15F701A2
:103D9200F70A01300A168A15C3200A168A159130CD
:103DA200F6008030F7000A168A150B220A168A15C9
:103DB200831603135D0883120313EC006C08F300EF
:103DC200831603135E080A168A154C210A168A15F1
:103DD20083120313ED006D08EF00831603135C08D2
:103DE2000A168A1105200A168A1583120313470838
:103DF20083160313D8008312031346088316031392
:103E0200D70083120313450883160313D6008312C7
:103E12000313440883160313D5005B080A168A119C
:103E220005200A168A158312031347088316031303
:103E3200D40083120313460883160313D30083129C
:103E42000313450883160313D20083120313440895
:103E520083160313D100F701F70A02300A168A15F6
:103E6200C3200A168A15A23083120313EC006C08D1
:103E720083160313A8005808AC005708AB00560875
:103E8200AA005508A90090300A168A11F6240A16CB
:103E92008A159030F6000130F7000A168A150B22B7
:103EA2000A168A15073083120313EC006C08F70018
:103EB20002300A168A15C3200A168A15A230831206
:103EC2000313EC006C0883160313A8005408AC001B
:103ED2005308AB005208AA005108A90090300A16F4
:103EE2008A11F6240A168A159030F6000130F7007E
:103EF2000A168A150B220A168A1590300A168A1596
:103F0200C9210A168A15043083120313EE000C30FD
:103F1200ED003330EC00EC0B8C2FED0B8C2FEE0B05
:103F22008C2F2B30831603135906031D992F9A2FBA
:103F3200A42F013083120313EC006C0883160313C1
:103F4200DA07D901AD2F2D305906031DA92FAA2F4B
:103F5200AD2F0130DA02A22FAD3083120313EC0031
:103F62006C0883160313A8005A0883120313ED008A
:103F7200EE016D0883160313A900831203136E0862
:103F820083160313AA0090300A168A11F6240A1621
:103F92008A150E3083120313EC006C08F70002300E
:103FA2000A168A15C3200A168A159030F6000130C7
:103FB200F7000A168A150B220A168A150A3083168A
:103FC20003135A020318E62FE72FC82E0F3083126D
:103FD2000313EC006C08F70002300A168A15C3209E
:103FE2000A168A15A930F6008030F7000A168A15DB
:0E3FF2000B220A168A15C82E0A128A110C28F4
:04400E00D520FF3F7B
:00000001FF
