:020000040000FA
:060000000A128A110C280F
:10000800FE00030EF2000A08F3000A128A11F42D0A
:100018000A128A110F280A128A1182260A128A11D4
:10002800F900D001D101D201D301D401D501D60103
:10003800D701F701F80183010A128A11402C8312B3
:10004800031331088039B6003608BB003108B60002
:100058003607B7003708C100B01F332834283528C1
:1000680041144108031939283A284928410A031D2F
:100078003E283F2847280030B1000030B00000304B
:10008800AF000030AE00B01751280030B10000308A
:10009800B0000030AF000030AE0035088039B6003F
:1000A8003608BB063508B6003607B7003708BC0067
:1000B800B41F5F28602861283C143C080319652890
:1000C800662875283C0A031D6A286B2873280030A7
:1000D800B5000030B4000030B3000030B200B417EF
:1000E8007D280030B5000030B4000030B300003087
:1000F800B2003C0803198128822887284108031D7B
:100108008628872890280030B1000030B0000030E1
:10011800AF000030AE00832B2E08B6003608F4007E
:1001280034080A128A11CB250A128A11750883121B
:100138000313C7007408C6004608B600B701B80123
:10014800B9013908C0003808BF003708BE003608B2
:10015800BD004708B600B701B801B9013908C500A4
:100168003808C4003708C3003608C2002F08B60094
:100178003608F40033080A128A11CB250A128A11AC
:10018800750883120313C7007408C6004608B60032
:10019800B701B801B9013608BD07370803110318BC
:1001A800013E0319D828BE07380803110318013E79
:1001B8000319DF28BF07390803110318013E031983
:1001C800E628C0074708B600B701B801B9013608E4
:1001D800C207370803110318013E0319F428C3079F
:1001E800380803110318013E0319FB28C40739080E
:1001F80003110318013E03190229C5073008B60088
:100208003608F40032080A128A11CB250A128A111C
:10021800750883120313C7007408C6004608B600A1
:10022800B701B801B9013608BD073708031103182B
:10023800013E03192029BE07380803110318013E9F
:1002480003192729BF07390803110318013E0319A9
:100258002E29C0074708B600B701B801B90136080A
:10026800C207370803110318013E03193C29C307C5
:10027800380803110318013E03194329C407390834
:1002880003110318013E03194A29C5070830B600AF
:100298000310BD0DBE0DBF0DC00DB60B4C292F08A8
:1002A800B6003608F40032080A128A11CB250A1261
:1002B8008A11750883120313C7007408C60046081C
:1002C800B6004708B700B801B9013608BD073708B6
:1002D80003110318013E03197229BE0738080311D8
:1002E8000318013E03197929BF07390803110318B8
:1002F800013E03198029C0072E08B6003608F4000D
:1003080033080A128A11CB250A128A11750883123A
:100318000313C7007408C6004608B6004708B700AC
:10032800B801B9013608BD07370803110318013EA3
:1003380003199F29BE07380803110318013E031942
:10034800A629BF07390803110318013E0319AD296F
:10035800C0070830B6000310BD0DBE0DBF0DC00D9F
:10036800B60BAF292E08B6003608F40032080A1278
:100378008A11CB250A128A11750883120313C70044
:100388007408C6004608B6004708B700B801B901A6
:100398003608BD07370803110318013E0319D5298C
:1003A800BE07380803110318013E0319DC29BF07EB
:1003B800390803110318013E0319E329C0072F0860
:1003C800B6003608F40034080A128A11CB250A123E
:1003D8008A11750883120313C7007408C6004608FB
:1003E800B6004708B700B801B9013608C207370890
:1003F80003110318013E0319022AC3073808031121
:100408000318013E0319092AC40739080311031800
:10041800013E0319102AC5073008B6003608F40053
:1004280033080A128A11CB250A128A117508831219
:100438000313C7007408C6004608B6004708B7008B
:10044800B801B9013608C207370803110318013E7D
:1004580003192F2AC307380803110318013E03198B
:10046800362AC407390803110318013E03193D2A27
:10047800C5073008B6003608F40034080A128A1195
:10048800CB250A128A11750883120313C700740852
:10049800C6004608B6004708B700B801B9010830D9
:1004A8000310B60DB70DB80DB90DFF3E031D542A44
:1004B8003608C207370803110318013E0319652AD5
:1004C800C307380803110318013E03196C2AC4072F
:1004D800390803110318013E0319732AC5073D089B
:1004E800B6003E08B7003F08B8004008B900183009
:1004F8000310B90CB80CB70CB60CFF3E031D7C2AD0
:100508003608C207370803110318013E03198D2A5C
:10051800C307380803110318013E0319942AC407B6
:10052800390803110318013E03199B2AC50708302F
:10053800B6000310BD0DBE0DBF0DC00DB60B9D2A34
:1005480041083C07B600B701B70D3608823EC60021
:1005580037080318013EFF3EC700CF2A0130B60016
:100568000310C20DC30DC40DC50DB60BB42AC01FB0
:10057800BE2ABF2AC02A42140130B6000310BD0D9E
:10058800BE0DBF0DC00DB60BC22AFF30C60703183B
:10059800C70AFF30C707C41FD22AD32AB22ABC0110
:1005A800C01FD72AD82AF42AFF303D05B600FF30ED
:1005B8003E05B700FF303F05B8007F304005B90061
:1005C80039083804370436040319EB2AEC2AEF2AD1
:1005D800BC01BC0AF42A421CF22AF32AF42AEC2AA7
:1005E8003C080319F82AF92A2A2B0130C2070030DF
:1005F80003180130C307003003180130C407003066
:1006080003180130C507451C0A2B0B2B2A2B42085F
:10061800B6004308B7004408B8004508B9000130DF
:10062800BA00390DB90CB80CB70CB60CBA0B152BAF
:100638003908C5003808C4003708C3003608C200A6
:100648000130C6070318C70A0030C7074708803AB1
:10065800FF0080307F02031D332BFF304602031C4E
:10066800362B372B422B7F3083120313C500803083
:10067800C4000030C3000030C200772B831203137C
:100688004708803AFF0080307F02031D4D2B013060
:1006980046020318502B512B5D2B00308312031395
:1006A800C5000030C4000030C3000030C200BB01E8
:1006B800772B831203134608B6003608C100FF30B3
:1006C800C205FF30C3057F30C4050030C505411C95
:1006D8006E2B6F2B702BC4174108B6000310360C15
:1006E800B7003708C5003B08B6003608C5044508FA
:1006F800B1004408B0004308AF004208AE0008004B
:1007080083120313A800280803198B2B8C2BA02B0A
:10071800A31F8F2B902BA02B2009AA002109AB0027
:100728002209AC002309AD00AA0A0319AB0A031970
:10073800AC0A0319AD0AA82B2308AD002208AC00A7
:100748002108AB002008AA00230822042104200461
:10075800031DAF2BB02BB92B0030A3000030A20033
:100768000030A1000030A0003F2C9630A4002408DF
:10077800A900CB2B0130A4002408A90701300310DD
:10078800AD0CAC0CAB0CAA0CFF3E031DC32BFE300A
:100798002D05031DD02BD12BBE2BED2B0130A40032
:1007A8002408A9070130AA07003003180130AB0755
:1007B800003003180130AC07003003180130AD07D2
:1007C80001300310AD0CAC0CAB0CAA0CFF3E031DA2
:1007D800E52BFF302D05031DF22BF32BD22BFF2B1E
:1007E8000130A9020130A4000310AA0DAB0DAC0D15
:1007F800AD0DA40BF82BAC1B022C032C092C0230DA
:1008080029020318082C092CF42B29180C2C0D2C60
:10081800152CFF30AA05FF30AB057F30AC05FF3043
:10082800AD050310A90C2908A400A501A601A7017C
:1008380018300310A40DA50DA60DA70DFF3E031D2E
:100848001D2C2408AA042508AB042608AC04270894
:10085800AD0428080319312C322C372CA31F352C52
:10086800362C372CAD172D08A3002C08A2002B0816
:10087800A1002A08A00008000A128A1159260A12A3
:100888008A11F801F901F90AF401F501F601243099
:100898000A128A111D260A128A1179080A128A1167
:1008A8003B260A128A1177080A128A118B250A1226
:1008B8008A11831203134B08D3004A08D20049084F
:1008C800D1004808D0005308A3005208A2005108DC
:1008D800A1005008A0004130A700C830A600003091
:1008E800A5000030A4000A128A11E7240A128A110E
:1008F80003187F2C802C862C83120313081588106C
:100908000810512C413083120313A300C830A200F1
:100918000030A1000030A0005308A7005208A6002C
:100928005108A5005008A4000A128A11E7240A12E7
:100938008A110318A02CA12CC22C8312031353086C
:10094800A3005208A2005108A1005008A00042309C
:10095800A7001030A6000030A5000030A4000A123D
:100968008A11E7240A128A110318BB2CBC2CC22C4A
:1009780083120313081188140810512C4230831273
:100988000313A3001030A2000030A1000030A00023
:100998005308A7005208A6005108A5005008A40053
:1009A8000A128A11E7240A128A110318DC2CDD2C9A
:1009B800E32C83120313081188100814512C512CAE
:1009C8000A128A110C280030831203132005A8008C
:1009D80000302105A90080302205AA007F302305B8
:1009E800AB002B082A0429042804031DFC2CFD2C29
:1009F800052D0030A3000030A2000030A100003017
:100A0800A00000302405A80000302505A90080308A
:100A18002605AA007F302705AB002B082A042904E5
:100A28002804031D182D192D212D0030A700003092
:100A3800A6000030A5000030A400A31F242D252DFA
:100A4800492D0030A8000030A9000030AA008030ED
:100A5800AB002008A8022108031C210F342D352DD6
:100A6800A9022208031C220F3A2D3B2DAA022308B3
:100A7800031C230F402D412DAB022B08A3002A088D
:100A8800A2002908A1002808A000A71F4C2D4D2D61
:100A9800712D0030A8000030A9000030AA00803075
:100AA800AB002408A8022508031C250F5C2D5D2D2A
:100AB800A9022608031C260F622D632DAA02270807
:100AC800031C270F682D692DAB022B08A7002A08E5
:100AD800A6002908A5002808A4008030A3068030B5
:100AE800A70627082302031D832D26082202031DBB
:100AF800832D25082102031D832D240820020318B5
:100B0800862D872D892D03108A2D03140800F600E1
:100B18003F3083120313B100F930B0009930AF00B1
:100B28009A30AE007608CC00CD01CE01CF014F0837
:100B3800A3004E08A2004D08A1004C08A0000130F7
:100B48000A128A1184230A128A11831203132308B2
:100B5800B5002208B4002108B3002008B2000A1228
:100B68008A1123200A128A11831203133108D7002D
:100B78003008D6002F08D5002E08D4005708CB001F
:100B88005608CA005508C9005408C800080083124E
:100B98000313A600A201A3017408A000A101200864
:100BA800A4002108A500261CDA2DDB2DE12D240840
:100BB800A2070318A30A2508A30701300310A40DF0
:100BC800A50DFF3E031DE22D0310A60C2608031DEC
:100BD800EE2DEF2DD72D2308F5002208F40008008C
:100BE800831203130C1FF92DFA2D012EF901F90AAE
:100BF8001E08F1007108F7000C138C1D042E052E39
:100C0800162E0A128A116C260A128A11F10071082E
:100C1800F80077080A128A117C260A128A118312B0
:100C280003138C1173088A00720E8300FE0E7E0E69
:100C3800090083120313A00083160313871283127B
:100C48000313201D282E292E2F2E76088316031312
:100C580094008715352E74087604831603139400C0
:100C68008711831203132008750494000800F50007
:100C78000130831603178800E8308B004130831257
:100C880003139F00831603130C17831203130C130B
:100C98007503031D502E512E582E0D30F400F40B01
:100CA800532E831203139F140800FF308316031377
:100CB8008500880118308700831203138701850196
:100CC80088018C11831603138C15E8308B000800FB
:100CD8000A128A1175260A128A118312031313083D
:100CE800080083160313141C7A2E7B2E752E080019
:0E0CF800F0007008831203139300080001340B
:04400E00D520FF3F7B
:00000001FF
