:020000040000FA
:060000000A128A110C280F
:10000800FE00030EF2000A08F3000A128A112D28D6
:100018000A128A110F2883133030FD000030FE00C9
:10002800F830FF00203084000A128A11D8200A1202
:100038008A110A128A1111210A128A11FD00F70188
:10004800F801F901FA01FB01FC0183010A128A1186
:1000580080280B1D3028312847280A3083120313C3
:100068008100091C382839283E2809108914770886
:1000780087004628891C41284228462889100914E7
:10008800780887000B11831203130C1F4C284D2886
:100098006528FD01FD0A1E08F00004300310F00C6D
:1000A800FF3E031D52287008F1007108FB001E086E
:1000B8000F39F0007008FA001E08F0007008F90007
:1000C8000C130B1C682869287928061B6C286D28D6
:1000D80072280130F0007008FC077828861B752804
:1000E800762878280130FC020B1073088A00720EFB
:1000F8008300FE0E7E0E09000A128A11E7200A12FA
:100108008A11FC01FD01FD0A0A128A1108210A124E
:100118008A117D080A128A11B3200A128A117C08F2
:100128008312031388007B08203E84008313000891
:10013800F6007608F8007A08203E84000008F600E9
:100148007608F70079087C020318AB28AC28AE289B
:1001580006148D2806108D280A128A110C28F5001D
:10016800831603139F130130831603178800E830A2
:100178008B004130831203139F00831603130C175F
:10018800831203130C137503031DCB28CC28D32823
:100198000D30F400F40BCE28831203139F140800CB
:1001A8007E088A007F0882000A128A11D4200A1267
:1001B8008A118000840A04087D0603190034FF0AA6
:1001C8000319FE0AD8288316031388018701FE3015
:1001D8008600890116179617831203138601870173
:1001E80088018901091408003F3406345B344F3410
:1001F80066346D347D3407347F346F3477347C341F
:1002080039345E34793471348730831603138100AE
:0C0218000A308312031381000800013437
:04400E00D520FF3F7B
:00000001FF
