:020000040000FA
:060000000A128A110C280F
:10000800FE00030EF2000A08F3000A128A111B28E8
:100018000A128A110F280A128A11BE200A128A119E
:10002800F900F701F80183010A128A116228831284
:1000380003130C1F202821282828F901F90A1E0873
:10004800F1007108F7000C138C1D2B282C283D2873
:100058000A128A11A8200A128A11F1007108F80000
:1000680077080A128A11B8200A128A118312031318
:100078008C1173088A00720E8300FE0E7E0E090032
:10008800F5000130831603178800E8308B004130F3
:10009800831203139F00831603130C178312031391
:1000A8000C137503031D59285A2861280D30F400D4
:1000B800F40B5C28831203139F1408000A128A1198
:1000C80094200A128A11F801F901F90AF401F501DC
:1000D800F60124300A128A117D200A128A11790841
:1000E8000A128A1144200A128A1173280A128A11E4
:1000F8000C2883120313A000201D83288428892834
:1001080076088316031394008E28740876048316E1
:100118000313940083120313200875049400080045
:1001280083160313880118308700FE308600851671
:1001380083120313860187018801890185018C11C7
:10014800831603138C1508000A128A11B1200A12AB
:100158008A11831203131308080083160313141C4F
:10016800B628B728B1280800F000700883120313D6
:06017800930008000134B1
:04400E00D520FF3F7B
:00000001FF
