:020000040000FA
:060000000A128A110C280F
:10000800FE00030EF2000A08F3000A128A111B28E8
:100018000A128A110F280A128A11D1200A128A118B
:10002800F900F701F80183010A128A118B2883125B
:1000380003130C1F202821282A28F901F90A1E0871
:10004800F1007108F700770888000C138C1D2D2823
:100058002E28452883160313141C332834284528D2
:100068000A128A11BB200A128A11F1007108F800DD
:1000780077080A128A11CB200A128A1183120313F5
:100088008C1173088A00720E8300FE0E7E0E090022
:10009800F500831603139F13013083160317880096
:1000A800E8308B004130831203139F00831603133B
:1000B8000C17831203130C137503031D642865289A
:1000C8006C280D30F400F40B6728831203139F1477
:1000D800080083120313A0008316031387128312E8
:1000E8000313201D782879287F28760883160313A0
:1000F80094008715852874087604831603139400E2
:1001080087118312031320087504940008000A124B
:100118008A11A6200A128A11F801F901F90AF401D4
:10012800F501F60124300A128A116D200A128A118B
:1001380079080A128A114C200A128A119C280A127C
:100148008A110C2883160313851688011830870036
:10015800FE30860083120313860187018801890116
:100168008C11831603138C15E8308B0008000A12D3
:100178008A11C4200A128A11831203131308080073
:1001880083160313141CC928CA28C4280800F000C1
:0C01980070088312031393000800013468
:04400E00D520FF3F7B
:00000001FF
