:020000040000FA
:060000000A128A110C280F
:10000800FE00030EF2000A08F3000A128A111B28E8
:100018000A128A110F280A128A11CC200A128A1190
:10002800F900F701F80183010A128A118628831260
:1000380003130C1F202821282828F901F90A1E0873
:10004800F1007108F7000C138C1D2B282C2843286D
:1000580083160313141C3128322843280A128A11E4
:10006800B6200A128A11F1007108F80077080A12FE
:100078008A11C6200A128A11831203138C1173087D
:100088008A00720E8300FE0E7E0E0900831203138F
:10009800A00083160313871283120313201D55280B
:1000A80056285C287608831603139400871562285F
:1000B80074087604831603139400871183120313BC
:1000C8002008750494000800F50001308316031712
:1000D8008800E8308B004130831203139F00831699
:1000E80003130C17831203130C137503031D7D28C8
:1000F8007E2885280D30F400F40B80288312031322
:100108009F1408000A128A11A1200A128A11F80104
:10011800F901F90AF401F501F60124300A128A11ED
:100128004A200A128A1179080A128A1168200A12CA
:100138008A1197280A128A110C2883160313851628
:10014800880118308700FE30860083120313860169
:100158008701880189018C11831603138C15E830F7
:100168008B0008000A128A11BF200A128A11831212
:1001780003131308080083160313141CC428C52886
:10018800BF280800F00070088312031393000800CA
:02019800013430
:04400E00D520FF3F7B
:00000001FF
