:020000040000FA
:060000000A128A110C280F
:10000800FE00030EF2000A08F3000A128A111B28E8
:100018000A128A110F280A128A11C6200A128A1196
:10002800F900F701F80183010A128A118028831266
:1000380003130C1F202821282828F901F90A1E0873
:10004800F1007108F7000C138C1D2B282C283D2873
:100058000A128A11B0200A128A11F1007108F800F8
:1000680077080A128A11C0200A128A118312031310
:100078008C1173088A00720E8300FE0E7E0E090032
:1000880083120313A000831603138712831203132A
:10009800201D4F28502856287608831603139400ED
:1000A80087155C2874087604831603139400871157
:1000B800831203132008750494000800F50001302A
:1000C800831603178800E8308B004130831203132E
:1000D8009F00831603130C17831203130C13750365
:1000E800031D772878287F280D30F400F40B7A2830
:1000F800831203139F1408000A128A119B200A1204
:100108008A11F801F901F90AF401F501F601243020
:100118000A128A1144200A128A1179080A128A11CD
:1001280062200A128A1191280A128A110C28831651
:1001380003138516880118308700FE308600831265
:10014800031386018701880189018C118316031323
:100158008C15E8308B0008000A128A11B9200A129F
:100168008A11831203131308080083160313141C3F
:10017800BE28BF28B9280800F000700883120313AE
:06018800930008000134A1
:04400E00D520FF3F7B
:00000001FF
