:020000040000FA
:060000000A128A110C280F
:10000800FE00030EF1000A08F2000A128A11DC2829
:100018000A128A110F28F70183010A128A1114287B
:100028000A128A111E210A128A110A128A11F8204C
:100038000A128A110A128A1109210A128A11013038
:100048000A128A118D200A128A113330F600BB3049
:10005800F500DF30F400F40B2F28F50B2F28F60BF2
:100068002F28362801308312031388001F30F6002A
:100078007130F5001E30F400F40B4028F50B4028D1
:10008800F60B4028000003308312031388001F304A
:10009800F6007130F5001E30F400F40B5128F50B12
:1000A8005128F60B512800008312031388011F30D2
:1000B800F6007130F5001E30F400F40B6128F50BE2
:1000C8006128F60B612800000130831203138800B1
:1000D8001F30F6007130F5001E30F400F40B722862
:1000E800F50B7228F60B72280000023083120313F6
:1000F80088006630F6007630F500C130F400F40B65
:100108008328F50B8328F60B832823280A128A11E3
:100118000C28F300730884000A128A1114210A12A9
:100128008A1183120313990083160313981C9D28C0
:100138009E2898287308013E84000A128A11142107
:100148000A128A1183120313990083160313981C49
:10015800AE28AF28A9287308023E84000A128A1123
:1001680014210A128A1183120313990083160313A8
:10017800981CBF28C028BA287308033E84000A12B6
:100188008A1114210A128A11831203139900831603
:100198000313981CD028D128CB28203083120313AE
:1001A800990083160313981CDA28DB28D528080041
:1001B800831203138C1EE128E228F128981CE528F5
:1001C800E628ED281812C730F000F00BE928EC28D3
:1001D800F1281A08F0007008F70072088A00710EFA
:1001E8008300FE0E7E0E090083160313181298165C
:1001F80018118316031787151930831603139900EE
:100208008312031398178B17080083120313181609
:100218001811831603138C16831203139810080001
:1002280001308A000408840A8207003431343034EB
:10023800303400348316031388018030870083121A
:0802480003138701880108007F
:04400E00D520FF3F7B
:00000001FF
